{
  "_format": "hh-sol-artifact-1",
  "contractName": "MintRallyForwarder",
  "sourceName": "contracts/Forwarder.sol",
  "abi": [
    {
      "inputs": [],
      "stateMutability": "nonpayable",
      "type": "constructor"
    },
    {
      "inputs": [
        {
          "components": [
            {
              "internalType": "address",
              "name": "from",
              "type": "address"
            },
            {
              "internalType": "address",
              "name": "to",
              "type": "address"
            },
            {
              "internalType": "uint256",
              "name": "value",
              "type": "uint256"
            },
            {
              "internalType": "uint256",
              "name": "gas",
              "type": "uint256"
            },
            {
              "internalType": "uint256",
              "name": "nonce",
              "type": "uint256"
            },
            {
              "internalType": "bytes",
              "name": "data",
              "type": "bytes"
            }
          ],
          "internalType": "struct MintRallyForwarder.ForwardRequest",
          "name": "req",
          "type": "tuple"
        },
        {
          "internalType": "bytes",
          "name": "signature",
          "type": "bytes"
        }
      ],
      "name": "execute",
      "outputs": [
        {
          "internalType": "bool",
          "name": "",
          "type": "bool"
        },
        {
          "internalType": "bytes",
          "name": "",
          "type": "bytes"
        }
      ],
      "stateMutability": "payable",
      "type": "function"
    },
    {
      "inputs": [
        {
          "internalType": "address",
          "name": "from",
          "type": "address"
        }
      ],
      "name": "getNonce",
      "outputs": [
        {
          "internalType": "uint256",
          "name": "",
          "type": "uint256"
        }
      ],
      "stateMutability": "view",
      "type": "function"
    },
    {
      "inputs": [
        {
          "components": [
            {
              "internalType": "address",
              "name": "from",
              "type": "address"
            },
            {
              "internalType": "address",
              "name": "to",
              "type": "address"
            },
            {
              "internalType": "uint256",
              "name": "value",
              "type": "uint256"
            },
            {
              "internalType": "uint256",
              "name": "gas",
              "type": "uint256"
            },
            {
              "internalType": "uint256",
              "name": "nonce",
              "type": "uint256"
            },
            {
              "internalType": "bytes",
              "name": "data",
              "type": "bytes"
            }
          ],
          "internalType": "struct MintRallyForwarder.ForwardRequest",
          "name": "req",
          "type": "tuple"
        },
        {
          "internalType": "bytes",
          "name": "signature",
          "type": "bytes"
        }
      ],
      "name": "verify",
      "outputs": [
        {
          "internalType": "bool",
          "name": "",
          "type": "bool"
        }
      ],
      "stateMutability": "view",
      "type": "function"
    }
  ],
  "bytecode": "0x6101406040523480156200001257600080fd5b506040518060400160405280601281526020017f4d696e7452616c6c79466f7277617264657200000000000000000000000000008152506040518060400160405280600581526020017f302e302e3100000000000000000000000000000000000000000000000000000081525060008280519060200120905060008280519060200120905060007f8b73c3c69bb8fe3d512ecc4cf759cc79239f7b179b0ffacaa9a75d522b39400f90508260e081815250508161010081815250504660a08181525050620000e88184846200013a60201b60201c565b608081815250503073ffffffffffffffffffffffffffffffffffffffff1660c08173ffffffffffffffffffffffffffffffffffffffff1660601b8152505080610120818152505050505050506200024e565b6000838383463060405160200162000157959493929190620001a9565b6040516020818303038152906040528051906020012090509392505050565b620001818162000206565b82525050565b62000192816200021a565b82525050565b620001a38162000244565b82525050565b600060a082019050620001c0600083018862000187565b620001cf602083018762000187565b620001de604083018662000187565b620001ed606083018562000198565b620001fc608083018462000176565b9695505050505050565b6000620002138262000224565b9050919050565b6000819050919050565b600073ffffffffffffffffffffffffffffffffffffffff82169050919050565b6000819050919050565b60805160a05160c05160601c60e05161010051610120516114b0620002a1600039600061057b015260006105bd0152600061059c015260006104d1015260006105270152600061055001526114b06000f3fe6080604052600436106100345760003560e01c80632d0335ab1461003957806347153f8214610076578063bf5d3bdb146100a7575b600080fd5b34801561004557600080fd5b50610060600480360381019061005b9190610b7e565b6100e4565b60405161006d9190611074565b60405180910390f35b610090600480360381019061008b9190610ba7565b61012c565b60405161009e929190610e9d565b60405180910390f35b3480156100b357600080fd5b506100ce60048036038101906100c99190610ba7565b6102d7565b6040516100db9190610e82565b60405180910390f35b60008060008373ffffffffffffffffffffffffffffffffffffffff1673ffffffffffffffffffffffffffffffffffffffff168152602001908152602001600020549050919050565b6000606061013b8585856102d7565b61017a576040517f08c379a000000000000000000000000000000000000000000000000000000000815260040161017190610ff4565b60405180910390fd5b6001856080013561018b9190611129565b6000808760000160208101906101a19190610b7e565b73ffffffffffffffffffffffffffffffffffffffff1673ffffffffffffffffffffffffffffffffffffffff168152602001908152602001600020819055506000808660200160208101906101f59190610b7e565b73ffffffffffffffffffffffffffffffffffffffff1687606001358860400135898060a00190610225919061108f565b8b60000160208101906102389190610b7e565b60405160200161024a93929190610e0a565b6040516020818303038152906040526040516102669190610e34565b600060405180830381858888f193505050503d80600081146102a4576040519150601f19603f3d011682016040523d82523d6000602084013e6102a9565b606091505b5091509150603f87606001356102bf919061117f565b5a116102c757fe5b8181935093505050935093915050565b6000806103e084848080601f016020809104026020016040519081016040528093929190818152602001838380828437600081840152601f19601f820116905080830192505050505050506103d27fdd8f4b70b0f4393e889bd39128a30628a78b61816a9eb8199759e7a349657e488860000160208101906103599190610b7e565b89602001602081019061036c9190610b7e565b8a604001358b606001358c608001358d8060a0019061038b919061108f565b604051610399929190610df1565b60405180910390206040516020016103b79796959493929190610ecd565b6040516020818303038152906040528051906020012061048c565b6104a690919063ffffffff16565b905084608001356000808760000160208101906103fd9190610b7e565b73ffffffffffffffffffffffffffffffffffffffff1673ffffffffffffffffffffffffffffffffffffffff1681526020019081526020016000205414801561048257508460000160208101906104539190610b7e565b73ffffffffffffffffffffffffffffffffffffffff168173ffffffffffffffffffffffffffffffffffffffff16145b9150509392505050565b600061049f6104996104cd565b836105e7565b9050919050565b60008060006104b5858561061a565b915091506104c28161066c565b819250505092915050565b60007f000000000000000000000000000000000000000000000000000000000000000073ffffffffffffffffffffffffffffffffffffffff163073ffffffffffffffffffffffffffffffffffffffff1614801561054957507f000000000000000000000000000000000000000000000000000000000000000046145b15610576577f000000000000000000000000000000000000000000000000000000000000000090506105e4565b6105e17f00000000000000000000000000000000000000000000000000000000000000007f00000000000000000000000000000000000000000000000000000000000000007f00000000000000000000000000000000000000000000000000000000000000006109bd565b90505b90565b600082826040516020016105fc929190610e4b565b60405160208183030381529060405280519060200120905092915050565b60008060418351141561065c5760008060006020860151925060408601519150606086015160001a9050610650878285856109f7565b94509450505050610665565b60006002915091505b9250929050565b600060048111156106a6577f4e487b7100000000000000000000000000000000000000000000000000000000600052602160045260246000fd5b8160048111156106df577f4e487b7100000000000000000000000000000000000000000000000000000000600052602160045260246000fd5b14156106ea576109ba565b60016004811115610724577f4e487b7100000000000000000000000000000000000000000000000000000000600052602160045260246000fd5b81600481111561075d577f4e487b7100000000000000000000000000000000000000000000000000000000600052602160045260246000fd5b141561079e576040517f08c379a000000000000000000000000000000000000000000000000000000000815260040161079590610fd4565b60405180910390fd5b600260048111156107d8577f4e487b7100000000000000000000000000000000000000000000000000000000600052602160045260246000fd5b816004811115610811577f4e487b7100000000000000000000000000000000000000000000000000000000600052602160045260246000fd5b1415610852576040517f08c379a000000000000000000000000000000000000000000000000000000000815260040161084990611014565b60405180910390fd5b6003600481111561088c577f4e487b7100000000000000000000000000000000000000000000000000000000600052602160045260246000fd5b8160048111156108c5577f4e487b7100000000000000000000000000000000000000000000000000000000600052602160045260246000fd5b1415610906576040517f08c379a00000000000000000000000000000000000000000000000000000000081526004016108fd90611034565b60405180910390fd5b60048081111561093f577f4e487b7100000000000000000000000000000000000000000000000000000000600052602160045260246000fd5b816004811115610978577f4e487b7100000000000000000000000000000000000000000000000000000000600052602160045260246000fd5b14156109b9576040517f08c379a00000000000000000000000000000000000000000000000000000000081526004016109b090611054565b60405180910390fd5b5b50565b600083838346306040516020016109d8959493929190610f3c565b6040516020818303038152906040528051906020012090509392505050565b6000807f7fffffffffffffffffffffffffffffff5d576e7357a4501ddfe92f46681b20a08360001c1115610a32576000600391509150610afb565b601b8560ff1614158015610a4a5750601c8560ff1614155b15610a5c576000600491509150610afb565b600060018787878760405160008152602001604052604051610a819493929190610f8f565b6020604051602081039080840390855afa158015610aa3573d6000803e3d6000fd5b505050602060405103519050600073ffffffffffffffffffffffffffffffffffffffff168173ffffffffffffffffffffffffffffffffffffffff161415610af257600060019250925050610afb565b80600092509250505b94509492505050565b600081359050610b1381611463565b92915050565b60008083601f840112610b2b57600080fd5b8235905067ffffffffffffffff811115610b4457600080fd5b602083019150836001820283011115610b5c57600080fd5b9250929050565b600060c08284031215610b7557600080fd5b81905092915050565b600060208284031215610b9057600080fd5b6000610b9e84828501610b04565b91505092915050565b600080600060408486031215610bbc57600080fd5b600084013567ffffffffffffffff811115610bd657600080fd5b610be286828701610b63565b935050602084013567ffffffffffffffff811115610bff57600080fd5b610c0b86828701610b19565b92509250509250925092565b610c20816111b0565b82525050565b610c37610c32826111b0565b611251565b82525050565b610c46816111c2565b82525050565b610c55816111ce565b82525050565b610c6c610c67826111ce565b611263565b82525050565b6000610c7e8385611102565b9350610c8b83858461120f565b82840190509392505050565b6000610ca2826110e6565b610cac81856110f1565b9350610cbc81856020860161121e565b610cc5816112dd565b840191505092915050565b6000610cdb826110e6565b610ce58185611102565b9350610cf581856020860161121e565b80840191505092915050565b6000610d0e60188361110d565b9150610d19826112fb565b602082019050919050565b6000610d3160328361110d565b9150610d3c82611324565b604082019050919050565b6000610d54601f8361110d565b9150610d5f82611373565b602082019050919050565b6000610d7760028361111e565b9150610d828261139c565b600282019050919050565b6000610d9a60228361110d565b9150610da5826113c5565b604082019050919050565b6000610dbd60228361110d565b9150610dc882611414565b604082019050919050565b610ddc816111f8565b82525050565b610deb81611202565b82525050565b6000610dfe828486610c72565b91508190509392505050565b6000610e17828587610c72565b9150610e238284610c26565b601482019150819050949350505050565b6000610e408284610cd0565b915081905092915050565b6000610e5682610d6a565b9150610e628285610c5b565b602082019150610e728284610c5b565b6020820191508190509392505050565b6000602082019050610e976000830184610c3d565b92915050565b6000604082019050610eb26000830185610c3d565b8181036020830152610ec48184610c97565b90509392505050565b600060e082019050610ee2600083018a610c4c565b610eef6020830189610c17565b610efc6040830188610c17565b610f096060830187610dd3565b610f166080830186610dd3565b610f2360a0830185610dd3565b610f3060c0830184610c4c565b98975050505050505050565b600060a082019050610f516000830188610c4c565b610f5e6020830187610c4c565b610f6b6040830186610c4c565b610f786060830185610dd3565b610f856080830184610c17565b9695505050505050565b6000608082019050610fa46000830187610c4c565b610fb16020830186610de2565b610fbe6040830185610c4c565b610fcb6060830184610c4c565b95945050505050565b60006020820190508181036000830152610fed81610d01565b9050919050565b6000602082019050818103600083015261100d81610d24565b9050919050565b6000602082019050818103600083015261102d81610d47565b9050919050565b6000602082019050818103600083015261104d81610d8d565b9050919050565b6000602082019050818103600083015261106d81610db0565b9050919050565b60006020820190506110896000830184610dd3565b92915050565b600080833560016020038436030381126110a857600080fd5b80840192508235915067ffffffffffffffff8211156110c657600080fd5b6020830192506001820236038313156110de57600080fd5b509250929050565b600081519050919050565b600082825260208201905092915050565b600081905092915050565b600082825260208201905092915050565b600081905092915050565b6000611134826111f8565b915061113f836111f8565b9250827fffffffffffffffffffffffffffffffffffffffffffffffffffffffffffffffff038211156111745761117361127f565b5b828201905092915050565b600061118a826111f8565b9150611195836111f8565b9250826111a5576111a46112ae565b5b828204905092915050565b60006111bb826111d8565b9050919050565b60008115159050919050565b6000819050919050565b600073ffffffffffffffffffffffffffffffffffffffff82169050919050565b6000819050919050565b600060ff82169050919050565b82818337600083830152505050565b60005b8381101561123c578082015181840152602081019050611221565b8381111561124b576000848401525b50505050565b600061125c8261126d565b9050919050565b6000819050919050565b6000611278826112ee565b9050919050565b7f4e487b7100000000000000000000000000000000000000000000000000000000600052601160045260246000fd5b7f4e487b7100000000000000000000000000000000000000000000000000000000600052601260045260246000fd5b6000601f19601f8301169050919050565b60008160601b9050919050565b7f45434453413a20696e76616c6964207369676e61747572650000000000000000600082015250565b7f4d696e696d616c466f727761726465723a207369676e617475726520646f657360008201527f206e6f74206d6174636820726571756573740000000000000000000000000000602082015250565b7f45434453413a20696e76616c6964207369676e6174757265206c656e67746800600082015250565b7f1901000000000000000000000000000000000000000000000000000000000000600082015250565b7f45434453413a20696e76616c6964207369676e6174757265202773272076616c60008201527f7565000000000000000000000000000000000000000000000000000000000000602082015250565b7f45434453413a20696e76616c6964207369676e6174757265202776272076616c60008201527f7565000000000000000000000000000000000000000000000000000000000000602082015250565b61146c816111b0565b811461147757600080fd5b5056fea26469706673582212207c8c3433fe0824c48272235251ed32e5fd6dc0d5e82a78030f66a7473833daae64736f6c63430008040033",
  "linkReferences": {},
  "deployedLinkReferences": {}
}