{
  "_format": "hh-sol-artifact-1",
  "contractName": "EventManager",
  "sourceName": "contracts/Event.sol",
  "abi": [
    {
      "anonymous": false,
      "inputs": [
        {
          "indexed": true,
          "internalType": "address",
          "name": "owner",
          "type": "address"
        },
        {
          "indexed": false,
          "internalType": "uint256",
          "name": "groupId",
          "type": "uint256"
        }
      ],
      "name": "CreatedGroupId",
      "type": "event"
    },
    {
      "anonymous": false,
      "inputs": [
        {
          "indexed": false,
          "internalType": "uint8",
          "name": "version",
          "type": "uint8"
        }
      ],
      "name": "Initialized",
      "type": "event"
    },
    {
      "anonymous": false,
      "inputs": [
        {
          "indexed": true,
          "internalType": "address",
          "name": "previousOwner",
          "type": "address"
        },
        {
          "indexed": true,
          "internalType": "address",
          "name": "newOwner",
          "type": "address"
        }
      ],
      "name": "OwnershipTransferred",
      "type": "event"
    },
    {
      "inputs": [
        {
          "internalType": "uint256",
          "name": "_groupId",
          "type": "uint256"
        },
        {
          "internalType": "string",
          "name": "_name",
          "type": "string"
        },
        {
          "internalType": "string",
          "name": "_description",
          "type": "string"
        },
        {
          "internalType": "string",
          "name": "_date",
          "type": "string"
        },
        {
          "internalType": "uint256",
          "name": "_mintLimit",
          "type": "uint256"
        },
        {
          "internalType": "bool",
          "name": "_useMtx",
          "type": "bool"
        },
        {
          "internalType": "string",
          "name": "_secretPhrase",
          "type": "string"
        },
        {
          "components": [
            {
              "internalType": "string",
              "name": "metaDataURL",
              "type": "string"
            },
            {
              "internalType": "uint256",
              "name": "requiredParticipateCount",
              "type": "uint256"
            }
          ],
          "internalType": "struct IMintNFT.NFTAttribute[]",
          "name": "_eventNFTAttributes",
          "type": "tuple[]"
        }
      ],
      "name": "createEventRecord",
      "outputs": [],
      "stateMutability": "payable",
      "type": "function"
    },
    {
      "inputs": [
        {
          "internalType": "string",
          "name": "_name",
          "type": "string"
        }
      ],
      "name": "createGroup",
      "outputs": [],
      "stateMutability": "nonpayable",
      "type": "function"
    },
    {
      "inputs": [
        {
          "internalType": "uint256",
          "name": "_eventId",
          "type": "uint256"
        }
      ],
      "name": "getEventById",
      "outputs": [
        {
          "components": [
            {
              "internalType": "uint256",
              "name": "eventRecordId",
              "type": "uint256"
            },
            {
              "internalType": "uint256",
              "name": "groupId",
              "type": "uint256"
            },
            {
              "internalType": "string",
              "name": "name",
              "type": "string"
            },
            {
              "internalType": "string",
              "name": "description",
              "type": "string"
            },
            {
              "internalType": "string",
              "name": "date",
              "type": "string"
            },
            {
              "internalType": "bool",
              "name": "useMtx",
              "type": "bool"
            }
          ],
          "internalType": "struct EventManager.EventRecord",
          "name": "",
          "type": "tuple"
        }
      ],
      "stateMutability": "view",
      "type": "function"
    },
    {
      "inputs": [],
      "name": "getEventRecords",
      "outputs": [
        {
          "components": [
            {
              "internalType": "uint256",
              "name": "eventRecordId",
              "type": "uint256"
            },
            {
              "internalType": "uint256",
              "name": "groupId",
              "type": "uint256"
            },
            {
              "internalType": "string",
              "name": "name",
              "type": "string"
            },
            {
              "internalType": "string",
              "name": "description",
              "type": "string"
            },
            {
              "internalType": "string",
              "name": "date",
              "type": "string"
            },
            {
              "internalType": "bool",
              "name": "useMtx",
              "type": "bool"
            }
          ],
          "internalType": "struct EventManager.EventRecord[]",
          "name": "",
          "type": "tuple[]"
        }
      ],
      "stateMutability": "view",
      "type": "function"
    },
    {
      "inputs": [],
      "name": "getGroups",
      "outputs": [
        {
          "components": [
            {
              "internalType": "uint256",
              "name": "groupId",
              "type": "uint256"
            },
            {
              "internalType": "address",
              "name": "ownerAddress",
              "type": "address"
            },
            {
              "internalType": "string",
              "name": "name",
              "type": "string"
            }
          ],
          "internalType": "struct EventManager.Group[]",
          "name": "",
          "type": "tuple[]"
        }
      ],
      "stateMutability": "view",
      "type": "function"
    },
    {
      "inputs": [],
      "name": "getOwnGroups",
      "outputs": [
        {
          "components": [
            {
              "internalType": "uint256",
              "name": "groupId",
              "type": "uint256"
            },
            {
              "internalType": "address",
              "name": "ownerAddress",
              "type": "address"
            },
            {
              "internalType": "string",
              "name": "name",
              "type": "string"
            }
          ],
          "internalType": "struct EventManager.Group[]",
          "name": "",
          "type": "tuple[]"
        }
      ],
      "stateMutability": "view",
      "type": "function"
    },
    {
      "inputs": [
        {
          "internalType": "address",
          "name": "_relayerAddr",
          "type": "address"
        },
        {
          "internalType": "uint256",
          "name": "_mtxPrice",
          "type": "uint256"
        },
        {
          "internalType": "uint256",
          "name": "_maxMintLimit",
          "type": "uint256"
        }
      ],
      "name": "initialize",
      "outputs": [],
      "stateMutability": "nonpayable",
      "type": "function"
    },
    {
      "inputs": [],
      "name": "owner",
      "outputs": [
        {
          "internalType": "address",
          "name": "",
          "type": "address"
        }
      ],
      "stateMutability": "view",
      "type": "function"
    },
    {
      "inputs": [],
      "name": "renounceOwnership",
      "outputs": [],
      "stateMutability": "nonpayable",
      "type": "function"
    },
    {
      "inputs": [
        {
          "internalType": "uint256",
          "name": "_mintLimit",
          "type": "uint256"
        }
      ],
      "name": "setMaxMintLimit",
      "outputs": [],
      "stateMutability": "nonpayable",
      "type": "function"
    },
    {
      "inputs": [
        {
          "internalType": "address",
          "name": "_mintNftAddr",
          "type": "address"
        }
      ],
      "name": "setMintNFTAddr",
      "outputs": [],
      "stateMutability": "nonpayable",
      "type": "function"
    },
    {
      "inputs": [
        {
          "internalType": "uint256",
          "name": "_price",
          "type": "uint256"
        }
      ],
      "name": "setMtxPrice",
      "outputs": [],
      "stateMutability": "nonpayable",
      "type": "function"
    },
    {
      "inputs": [
        {
          "internalType": "address",
          "name": "_relayerAddr",
          "type": "address"
        }
      ],
      "name": "setRelayerAddr",
      "outputs": [],
      "stateMutability": "nonpayable",
      "type": "function"
    },
    {
      "inputs": [
        {
          "internalType": "address",
          "name": "newOwner",
          "type": "address"
        }
      ],
      "name": "transferOwnership",
      "outputs": [],
      "stateMutability": "nonpayable",
      "type": "function"
    }
  ],
  "bytecode": "0x608060405234801561001057600080fd5b50612da3806100206000396000f3fe6080604052600436106100dd5760003560e01c8063b98079bc1161007f578063d337483a11610059578063d337483a14610277578063dc2ddcae146102a2578063f2fde38b146102cb578063f926b50c146102f4576100dd565b8063b98079bc146101e4578063be04cc3614610221578063c72b51761461024c576100dd565b8063715018a6116100bb578063715018a61461015d5780637a1ac61e146101745780638da5cb5b1461019d57806390d68b0c146101c8576100dd565b80631ac30e63146100e257806337c81cd71461010b5780636b1f762214610134575b600080fd5b3480156100ee57600080fd5b5061010960048036038101906101049190611ce0565b61031d565b005b34801561011757600080fd5b50610132600480360381019061012d9190611ce0565b6103d9565b005b34801561014057600080fd5b5061015b60048036038101906101569190611d99565b610495565b005b34801561016957600080fd5b506101726104a7565b005b34801561018057600080fd5b5061019b60048036038101906101969190611d09565b6104bb565b005b3480156101a957600080fd5b506101b261062b565b6040516101bf919061249d565b60405180910390f35b6101e260048036038101906101dd9190611dc2565b610655565b005b3480156101f057600080fd5b5061020b60048036038101906102069190611d99565b610b10565b6040516102189190612677565b60405180910390f35b34801561022d57600080fd5b50610236610d6f565b60405161024391906124da565b60405180910390f35b34801561025857600080fd5b506102616110a1565b60405161026e91906124da565b60405180910390f35b34801561028357600080fd5b5061028c61127f565b60405161029991906124b8565b60405180910390f35b3480156102ae57600080fd5b506102c960048036038101906102c49190611d58565b611550565b005b3480156102d757600080fd5b506102f260048036038101906102ed9190611ce0565b6116ec565b005b34801561030057600080fd5b5061031b60048036038101906103169190611d99565b611770565b005b6103256117c6565b600073ffffffffffffffffffffffffffffffffffffffff168173ffffffffffffffffffffffffffffffffffffffff161415610395576040517f08c379a000000000000000000000000000000000000000000000000000000000815260040161038c90612617565b60405180910390fd5b80606c60006101000a81548173ffffffffffffffffffffffffffffffffffffffff021916908373ffffffffffffffffffffffffffffffffffffffff16021790555050565b6103e16117c6565b600073ffffffffffffffffffffffffffffffffffffffff168173ffffffffffffffffffffffffffffffffffffffff161415610451576040517f08c379a0000000000000000000000000000000000000000000000000000000008152600401610448906125d7565b60405180910390fd5b80606d60006101000a81548173ffffffffffffffffffffffffffffffffffffffff021916908373ffffffffffffffffffffffffffffffffffffffff16021790555050565b61049d6117c6565b80606e8190555050565b6104af6117c6565b6104b96000611844565b565b60008060019054906101000a900460ff161590508080156104ec5750600160008054906101000a900460ff1660ff16105b8061051957506104fb3061190a565b1580156105185750600160008054906101000a900460ff1660ff16145b5b610558576040517f08c379a000000000000000000000000000000000000000000000000000000000815260040161054f90612577565b60405180910390fd5b60016000806101000a81548160ff021916908360ff1602179055508015610595576001600060016101000a81548160ff0219169083151502179055505b61059d61192d565b6105a76066611986565b6105b16065611986565b6105ba846103d9565b6105c383610495565b6105cc82611770565b80156106255760008060016101000a81548160ff0219169083151502179055507f7f26b83ff96e1f2b6a682f133852f6798a09c465da95921460cefb3847402498600160405161061c91906124fc565b60405180910390a15b50505050565b6000603360009054906101000a900473ffffffffffffffffffffffffffffffffffffffff16905090565b6000841180156106675750606f548411155b6106a6576040517f08c379a000000000000000000000000000000000000000000000000000000000815260040161069d90612557565b60405180910390fd5b6000805b606960003373ffffffffffffffffffffffffffffffffffffffff1673ffffffffffffffffffffffffffffffffffffffff168152602001908152602001600020805490508110156107955789606960003373ffffffffffffffffffffffffffffffffffffffff1673ffffffffffffffffffffffffffffffffffffffff168152602001908152602001600020828154811061076c577f4e487b7100000000000000000000000000000000000000000000000000000000600052603260045260246000fd5b9060005260206000200154141561078257600191505b808061078d90612a09565b9150506106aa565b50806107d6576040517f08c379a00000000000000000000000000000000000000000000000000000000081526004016107cd90612537565b60405180910390fd5b831561090d576000606e543a876107ed9190612865565b6107f79190612865565b90508034101561083c576040517f08c379a000000000000000000000000000000000000000000000000000000000815260040161083390612597565b60405180910390fd5b6000606d60009054906101000a900473ffffffffffffffffffffffffffffffffffffffff1673ffffffffffffffffffffffffffffffffffffffff163460405161088490612488565b60006040518083038185875af1925050503d80600081146108c1576040519150601f19603f3d011682016040523d82523d6000602084013e6108c6565b606091505b505090508061090a576040517f08c379a000000000000000000000000000000000000000000000000000000000815260040161090190612657565b60405180910390fd5b50505b6000610919606561199c565b90506109256065611986565b60686040518060c001604052808381526020018c81526020018b81526020018a81526020018981526020018715158152509080600181540180825580915050600190039060005260206000209060060201600090919091909150600082015181600001556020820151816001015560408201518160020190805190602001906109af929190611a13565b5060608201518160030190805190602001906109cc929190611a13565b5060808201518160040190805190602001906109e9929190611a13565b5060a08201518160050160006101000a81548160ff02191690831515021790555050506000848051906020012090506000606c60009054906101000a900473ffffffffffffffffffffffffffffffffffffffff1690508073ffffffffffffffffffffffffffffffffffffffff1663ef3ad9eb848a85896040518563ffffffff1660e01b8152600401610a7e94939291906126b4565b600060405180830381600087803b158015610a9857600080fd5b505af1158015610aac573d6000803e3d6000fd5b50505050606a60008d81526020019081526020016000208390806001815401808255809150506001900390600052602060002001600090919091909150558b606b600085815260200190815260200160002081905550505050505050505050505050565b610b18611a99565b6000600183610b2791906128bf565b9050600060688281548110610b65577f4e487b7100000000000000000000000000000000000000000000000000000000600052603260045260246000fd5b90600052602060002090600602016040518060c00160405290816000820154815260200160018201548152602001600282018054610ba2906129a6565b80601f0160208091040260200160405190810160405280929190818152602001828054610bce906129a6565b8015610c1b5780601f10610bf057610100808354040283529160200191610c1b565b820191906000526020600020905b815481529060010190602001808311610bfe57829003601f168201915b50505050508152602001600382018054610c34906129a6565b80601f0160208091040260200160405190810160405280929190818152602001828054610c60906129a6565b8015610cad5780601f10610c8257610100808354040283529160200191610cad565b820191906000526020600020905b815481529060010190602001808311610c9057829003601f168201915b50505050508152602001600482018054610cc6906129a6565b80601f0160208091040260200160405190810160405280929190818152602001828054610cf2906129a6565b8015610d3f5780601f10610d1457610100808354040283529160200191610d3f565b820191906000526020600020905b815481529060010190602001808311610d2257829003601f168201915b505050505081526020016005820160009054906101000a900460ff16151515158152505090508092505050919050565b60606000606960003373ffffffffffffffffffffffffffffffffffffffff1673ffffffffffffffffffffffffffffffffffffffff1681526020019081526020016000208054905090506000606780549050905060008267ffffffffffffffff811115610e04577f4e487b7100000000000000000000000000000000000000000000000000000000600052604160045260246000fd5b604051908082528060200260200182016040528015610e3d57816020015b610e2a611ad1565b815260200190600190039081610e225790505b5090506000805b83811015611096573373ffffffffffffffffffffffffffffffffffffffff1660678281548110610e9d577f4e487b7100000000000000000000000000000000000000000000000000000000600052603260045260246000fd5b906000526020600020906003020160010160009054906101000a900473ffffffffffffffffffffffffffffffffffffffff1673ffffffffffffffffffffffffffffffffffffffff1614156110835760678181548110610f25577f4e487b7100000000000000000000000000000000000000000000000000000000600052603260045260246000fd5b9060005260206000209060030201604051806060016040529081600082015481526020016001820160009054906101000a900473ffffffffffffffffffffffffffffffffffffffff1673ffffffffffffffffffffffffffffffffffffffff1673ffffffffffffffffffffffffffffffffffffffff168152602001600282018054610fae906129a6565b80601f0160208091040260200160405190810160405280929190818152602001828054610fda906129a6565b80156110275780601f10610ffc57610100808354040283529160200191611027565b820191906000526020600020905b81548152906001019060200180831161100a57829003601f168201915b505050505081525050838381518110611069577f4e487b7100000000000000000000000000000000000000000000000000000000600052603260045260246000fd5b6020026020010181905250818061107f90612a09565b9250505b808061108e90612a09565b915050610e44565b508194505050505090565b60606000606780549050905060008167ffffffffffffffff8111156110ef577f4e487b7100000000000000000000000000000000000000000000000000000000600052604160045260246000fd5b60405190808252806020026020018201604052801561112857816020015b611115611ad1565b81526020019060019003908161110d5790505b5090506067805480602002602001604051908101604052809291908181526020016000905b828210156112715783829060005260206000209060030201604051806060016040529081600082015481526020016001820160009054906101000a900473ffffffffffffffffffffffffffffffffffffffff1673ffffffffffffffffffffffffffffffffffffffff1673ffffffffffffffffffffffffffffffffffffffff1681526020016002820180546111e0906129a6565b80601f016020809104026020016040519081016040528092919081815260200182805461120c906129a6565b80156112595780601f1061122e57610100808354040283529160200191611259565b820191906000526020600020905b81548152906001019060200180831161123c57829003601f168201915b5050505050815250508152602001906001019061114d565b505050509050809250505090565b60606000606880549050905060008167ffffffffffffffff8111156112cd577f4e487b7100000000000000000000000000000000000000000000000000000000600052604160045260246000fd5b60405190808252806020026020018201604052801561130657816020015b6112f3611a99565b8152602001906001900390816112eb5790505b5090506068805480602002602001604051908101604052809291908181526020016000905b8282101561154257838290600052602060002090600602016040518060c00160405290816000820154815260200160018201548152602001600282018054611372906129a6565b80601f016020809104026020016040519081016040528092919081815260200182805461139e906129a6565b80156113eb5780601f106113c0576101008083540402835291602001916113eb565b820191906000526020600020905b8154815290600101906020018083116113ce57829003601f168201915b50505050508152602001600382018054611404906129a6565b80601f0160208091040260200160405190810160405280929190818152602001828054611430906129a6565b801561147d5780601f106114525761010080835404028352916020019161147d565b820191906000526020600020905b81548152906001019060200180831161146057829003601f168201915b50505050508152602001600482018054611496906129a6565b80601f01602080910402602001604051908101604052809291908181526020018280546114c2906129a6565b801561150f5780601f106114e45761010080835404028352916020019161150f565b820191906000526020600020905b8154815290600101906020018083116114f257829003601f168201915b505050505081526020016005820160009054906101000a900460ff1615151515815250508152602001906001019061132b565b505050509050809250505090565b600061155c606661199c565b90506115686066611986565b606760405180606001604052808381526020013373ffffffffffffffffffffffffffffffffffffffff1681526020018481525090806001815401808255809150506001900390600052602060002090600302016000909190919091506000820151816000015560208201518160010160006101000a81548173ffffffffffffffffffffffffffffffffffffffff021916908373ffffffffffffffffffffffffffffffffffffffff1602179055506040820151816002019080519060200190611631929190611a13565b505050606960003373ffffffffffffffffffffffffffffffffffffffff1673ffffffffffffffffffffffffffffffffffffffff1681526020019081526020016000208190806001815401808255809150506001900390600052602060002001600090919091909150553373ffffffffffffffffffffffffffffffffffffffff167f8fd7975dffff2a53bfe748adb09eacd0516344fb3db49dad60069d8b91c63654826040516116e09190612699565b60405180910390a25050565b6116f46117c6565b600073ffffffffffffffffffffffffffffffffffffffff168173ffffffffffffffffffffffffffffffffffffffff161415611764576040517f08c379a000000000000000000000000000000000000000000000000000000000815260040161175b90612517565b60405180910390fd5b61176d81611844565b50565b6117786117c6565b60008114156117bc576040517f08c379a00000000000000000000000000000000000000000000000000000000081526004016117b3906125f7565b60405180910390fd5b80606f8190555050565b6117ce6119aa565b73ffffffffffffffffffffffffffffffffffffffff166117ec61062b565b73ffffffffffffffffffffffffffffffffffffffff1614611842576040517f08c379a0000000000000000000000000000000000000000000000000000000008152600401611839906125b7565b60405180910390fd5b565b6000603360009054906101000a900473ffffffffffffffffffffffffffffffffffffffff16905081603360006101000a81548173ffffffffffffffffffffffffffffffffffffffff021916908373ffffffffffffffffffffffffffffffffffffffff1602179055508173ffffffffffffffffffffffffffffffffffffffff168173ffffffffffffffffffffffffffffffffffffffff167f8be0079c531659141344cd1fd0a4f28419497f9722a3daafe3b4186f6b6457e060405160405180910390a35050565b6000808273ffffffffffffffffffffffffffffffffffffffff163b119050919050565b600060019054906101000a900460ff1661197c576040517f08c379a000000000000000000000000000000000000000000000000000000000815260040161197390612637565b60405180910390fd5b6119846119b2565b565b6001816000016000828254019250508190555050565b600081600001549050919050565b600033905090565b600060019054906101000a900460ff16611a01576040517f08c379a00000000000000000000000000000000000000000000000000000000081526004016119f890612637565b60405180910390fd5b611a11611a0c6119aa565b611844565b565b828054611a1f906129a6565b90600052602060002090601f016020900481019282611a415760008555611a88565b82601f10611a5a57805160ff1916838001178555611a88565b82800160010185558215611a88579182015b82811115611a87578251825591602001919060010190611a6c565b5b509050611a959190611b08565b5090565b6040518060c0016040528060008152602001600081526020016060815260200160608152602001606081526020016000151581525090565b604051806060016040528060008152602001600073ffffffffffffffffffffffffffffffffffffffff168152602001606081525090565b5b80821115611b21576000816000905550600101611b09565b5090565b6000611b38611b3384612725565b612700565b90508083825260208201905082856020860282011115611b5757600080fd5b60005b85811015611ba157813567ffffffffffffffff811115611b7957600080fd5b808601611b868982611c67565b85526020850194506020840193505050600181019050611b5a565b5050509392505050565b6000611bbe611bb984612751565b612700565b905082815260208101848484011115611bd657600080fd5b611be1848285612964565b509392505050565b600081359050611bf881612d28565b92915050565b600082601f830112611c0f57600080fd5b8135611c1f848260208601611b25565b91505092915050565b600081359050611c3781612d3f565b92915050565b600082601f830112611c4e57600080fd5b8135611c5e848260208601611bab565b91505092915050565b600060408284031215611c7957600080fd5b611c836040612700565b9050600082013567ffffffffffffffff811115611c9f57600080fd5b611cab84828501611c3d565b6000830152506020611cbf84828501611ccb565b60208301525092915050565b600081359050611cda81612d56565b92915050565b600060208284031215611cf257600080fd5b6000611d0084828501611be9565b91505092915050565b600080600060608486031215611d1e57600080fd5b6000611d2c86828701611be9565b9350506020611d3d86828701611ccb565b9250506040611d4e86828701611ccb565b9150509250925092565b600060208284031215611d6a57600080fd5b600082013567ffffffffffffffff811115611d8457600080fd5b611d9084828501611c3d565b91505092915050565b600060208284031215611dab57600080fd5b6000611db984828501611ccb565b91505092915050565b600080600080600080600080610100898b031215611ddf57600080fd5b6000611ded8b828c01611ccb565b985050602089013567ffffffffffffffff811115611e0a57600080fd5b611e168b828c01611c3d565b975050604089013567ffffffffffffffff811115611e3357600080fd5b611e3f8b828c01611c3d565b965050606089013567ffffffffffffffff811115611e5c57600080fd5b611e688b828c01611c3d565b9550506080611e798b828c01611ccb565b94505060a0611e8a8b828c01611c28565b93505060c089013567ffffffffffffffff811115611ea757600080fd5b611eb38b828c01611c3d565b92505060e089013567ffffffffffffffff811115611ed057600080fd5b611edc8b828c01611bfe565b9150509295985092959890939650565b6000611ef883836122af565b905092915050565b6000611f0c83836123dd565b905092915050565b6000611f20838361242d565b905092915050565b611f31816128f3565b82525050565b611f40816128f3565b82525050565b6000611f51826127b2565b611f5b8185612805565b935083602082028501611f6d85612782565b8060005b85811015611fa95784840389528151611f8a8582611eec565b9450611f95836127de565b925060208a01995050600181019050611f71565b50829750879550505050505092915050565b6000611fc6826127bd565b611fd08185612816565b935083602082028501611fe285612792565b8060005b8581101561201e5784840389528151611fff8582611f00565b945061200a836127eb565b925060208a01995050600181019050611fe6565b50829750879550505050505092915050565b600061203b826127c8565b6120458185612827565b935083602082028501612057856127a2565b8060005b8581101561209357848403895281516120748582611f14565b945061207f836127f8565b925060208a0199505060018101905061205b565b50829750879550505050505092915050565b6120ae81612905565b82525050565b6120bd81612911565b82525050565b6120cc81612952565b82525050565b60006120dd826127d3565b6120e78185612843565b93506120f7818560208601612973565b61210081612adf565b840191505092915050565b6000612118602683612854565b915061212382612af0565b604082019050919050565b600061213b601783612854565b915061214682612b3f565b602082019050919050565b600061215e601583612854565b915061216982612b68565b602082019050919050565b6000612181602e83612854565b915061218c82612b91565b604082019050919050565b60006121a4601083612854565b91506121af82612be0565b602082019050919050565b60006121c7602083612854565b91506121d282612c09565b602082019050919050565b60006121ea601883612854565b91506121f582612c32565b602082019050919050565b600061220d600083612838565b915061221882612c5b565b600082019050919050565b6000612230600f83612854565b915061223b82612c5e565b602082019050919050565b6000612253601983612854565b915061225e82612c87565b602082019050919050565b6000612276602b83612854565b915061228182612cb0565b604082019050919050565b6000612299600f83612854565b91506122a482612cff565b602082019050919050565b600060c0830160008301516122c7600086018261246a565b5060208301516122da602086018261246a565b50604083015184820360408601526122f282826120d2565b9150506060830151848203606086015261230c82826120d2565b9150506080830151848203608086015261232682826120d2565b91505060a083015161233b60a08601826120a5565b508091505092915050565b600060c08301600083015161235e600086018261246a565b506020830151612371602086018261246a565b506040830151848203604086015261238982826120d2565b915050606083015184820360608601526123a382826120d2565b915050608083015184820360808601526123bd82826120d2565b91505060a08301516123d260a08601826120a5565b508091505092915050565b60006060830160008301516123f5600086018261246a565b5060208301516124086020860182611f28565b506040830151848203604086015261242082826120d2565b9150508091505092915050565b6000604083016000830151848203600086015261244a82826120d2565b915050602083015161245f602086018261246a565b508091505092915050565b6124738161293b565b82525050565b6124828161293b565b82525050565b600061249382612200565b9150819050919050565b60006020820190506124b26000830184611f37565b92915050565b600060208201905081810360008301526124d28184611f46565b905092915050565b600060208201905081810360008301526124f48184611fbb565b905092915050565b600060208201905061251160008301846120c3565b92915050565b600060208201905081810360008301526125308161210b565b9050919050565b600060208201905081810360008301526125508161212e565b9050919050565b6000602082019050818103600083015261257081612151565b9050919050565b6000602082019050818103600083015261259081612174565b9050919050565b600060208201905081810360008301526125b081612197565b9050919050565b600060208201905081810360008301526125d0816121ba565b9050919050565b600060208201905081810360008301526125f0816121dd565b9050919050565b6000602082019050818103600083015261261081612223565b9050919050565b6000602082019050818103600083015261263081612246565b9050919050565b6000602082019050818103600083015261265081612269565b9050919050565b600060208201905081810360008301526126708161228c565b9050919050565b600060208201905081810360008301526126918184612346565b905092915050565b60006020820190506126ae6000830184612479565b92915050565b60006080820190506126c96000830187612479565b6126d66020830186612479565b6126e360408301856120b4565b81810360608301526126f58184612030565b905095945050505050565b600061270a61271b565b905061271682826129d8565b919050565b6000604051905090565b600067ffffffffffffffff8211156127405761273f612ab0565b5b602082029050602081019050919050565b600067ffffffffffffffff82111561276c5761276b612ab0565b5b61277582612adf565b9050602081019050919050565b6000819050602082019050919050565b6000819050602082019050919050565b6000819050602082019050919050565b600081519050919050565b600081519050919050565b600081519050919050565b600081519050919050565b6000602082019050919050565b6000602082019050919050565b6000602082019050919050565b600082825260208201905092915050565b600082825260208201905092915050565b600082825260208201905092915050565b600081905092915050565b600082825260208201905092915050565b600082825260208201905092915050565b60006128708261293b565b915061287b8361293b565b9250817fffffffffffffffffffffffffffffffffffffffffffffffffffffffffffffffff04831182151516156128b4576128b3612a52565b5b828202905092915050565b60006128ca8261293b565b91506128d58361293b565b9250828210156128e8576128e7612a52565b5b828203905092915050565b60006128fe8261291b565b9050919050565b60008115159050919050565b6000819050919050565b600073ffffffffffffffffffffffffffffffffffffffff82169050919050565b6000819050919050565b600060ff82169050919050565b600061295d82612945565b9050919050565b82818337600083830152505050565b60005b83811015612991578082015181840152602081019050612976565b838111156129a0576000848401525b50505050565b600060028204905060018216806129be57607f821691505b602082108114156129d2576129d1612a81565b5b50919050565b6129e182612adf565b810181811067ffffffffffffffff82111715612a00576129ff612ab0565b5b80604052505050565b6000612a148261293b565b91507fffffffffffffffffffffffffffffffffffffffffffffffffffffffffffffffff821415612a4757612a46612a52565b5b600182019050919050565b7f4e487b7100000000000000000000000000000000000000000000000000000000600052601160045260246000fd5b7f4e487b7100000000000000000000000000000000000000000000000000000000600052602260045260246000fd5b7f4e487b7100000000000000000000000000000000000000000000000000000000600052604160045260246000fd5b6000601f19601f8301169050919050565b7f4f776e61626c653a206e6577206f776e657220697320746865207a65726f206160008201527f6464726573730000000000000000000000000000000000000000000000000000602082015250565b7f596f7520617265206e6f742067726f7570206f776e6572000000000000000000600082015250565b7f6d696e74206c696d697420697320696e76616c69640000000000000000000000600082015250565b7f496e697469616c697a61626c653a20636f6e747261637420697320616c72656160008201527f647920696e697469616c697a6564000000000000000000000000000000000000602082015250565b7f4e6f7420656e6f7567682076616c756500000000000000000000000000000000600082015250565b7f4f776e61626c653a2063616c6c6572206973206e6f7420746865206f776e6572600082015250565b7f72656c61796572206164647265737320697320626c616e6b0000000000000000600082015250565b50565b7f6d696e74206c696d697420697320300000000000000000000000000000000000600082015250565b7f6d696e74206e6674206164647265737320697320626c616e6b00000000000000600082015250565b7f496e697469616c697a61626c653a20636f6e7472616374206973206e6f74206960008201527f6e697469616c697a696e67000000000000000000000000000000000000000000602082015250565b7f7472616e73666572206661696c65640000000000000000000000000000000000600082015250565b612d31816128f3565b8114612d3c57600080fd5b50565b612d4881612905565b8114612d5357600080fd5b50565b612d5f8161293b565b8114612d6a57600080fd5b5056fea2646970667358221220b3562fe74995e99a4f76876a3fa979560ee98f8f4bf94a1d082792c23e2ce6c464736f6c63430008040033",
  "linkReferences": {},
  "deployedLinkReferences": {}
}