{
  "_format": "hh-sol-artifact-1",
  "contractName": "EventManagerv2",
  "sourceName": "contracts/event/Eventv2.sol",
  "abi": [
    {
      "anonymous": false,
      "inputs": [
        {
          "indexed": true,
          "internalType": "address",
          "name": "owner",
          "type": "address"
        },
        {
          "indexed": false,
          "internalType": "uint256",
          "name": "groupId",
          "type": "uint256"
        }
      ],
      "name": "CreatedGroupId",
      "type": "event"
    },
    {
      "anonymous": false,
      "inputs": [
        {
          "indexed": false,
          "internalType": "uint8",
          "name": "version",
          "type": "uint8"
        }
      ],
      "name": "Initialized",
      "type": "event"
    },
    {
      "anonymous": false,
      "inputs": [
        {
          "indexed": true,
          "internalType": "address",
          "name": "previousOwner",
          "type": "address"
        },
        {
          "indexed": true,
          "internalType": "address",
          "name": "newOwner",
          "type": "address"
        }
      ],
      "name": "OwnershipTransferred",
      "type": "event"
    },
    {
      "inputs": [
        {
          "internalType": "uint256",
          "name": "_groupId",
          "type": "uint256"
        },
        {
          "internalType": "string",
          "name": "_name",
          "type": "string"
        },
        {
          "internalType": "string",
          "name": "_description",
          "type": "string"
        },
        {
          "internalType": "string",
          "name": "_date",
          "type": "string"
        },
        {
          "internalType": "uint256",
          "name": "_mintLimit",
          "type": "uint256"
        },
        {
          "internalType": "bool",
          "name": "_useMtx",
          "type": "bool"
        },
        {
          "components": [
            {
              "internalType": "uint256[2][2]",
              "name": "h",
              "type": "uint256[2][2]"
            },
            {
              "internalType": "uint256[2]",
              "name": "g_alpha",
              "type": "uint256[2]"
            },
            {
              "internalType": "uint256[2][2]",
              "name": "h_beta",
              "type": "uint256[2][2]"
            },
            {
              "internalType": "uint256[2]",
              "name": "g_gamma",
              "type": "uint256[2]"
            },
            {
              "internalType": "uint256[2][2]",
              "name": "h_gamma",
              "type": "uint256[2][2]"
            },
            {
              "internalType": "uint256[2][1]",
              "name": "query",
              "type": "uint256[2][1]"
            }
          ],
          "internalType": "struct IZkVerifier.VerifyingKeyPoint",
          "name": "_verifyingKeyPoint",
          "type": "tuple"
        },
        {
          "components": [
            {
              "internalType": "string",
              "name": "metaDataURL",
              "type": "string"
            },
            {
              "internalType": "uint256",
              "name": "requiredParticipateCount",
              "type": "uint256"
            }
          ],
          "internalType": "struct IMintNFTv2.NFTAttribute[]",
          "name": "_eventNFTAttributes",
          "type": "tuple[]"
        }
      ],
      "name": "createEventRecord",
      "outputs": [],
      "stateMutability": "payable",
      "type": "function"
    },
    {
      "inputs": [
        {
          "internalType": "string",
          "name": "_name",
          "type": "string"
        }
      ],
      "name": "createGroup",
      "outputs": [],
      "stateMutability": "nonpayable",
      "type": "function"
    },
    {
      "inputs": [
        {
          "internalType": "uint256",
          "name": "_eventId",
          "type": "uint256"
        }
      ],
      "name": "getEventById",
      "outputs": [
        {
          "components": [
            {
              "internalType": "uint256",
              "name": "eventRecordId",
              "type": "uint256"
            },
            {
              "internalType": "uint256",
              "name": "groupId",
              "type": "uint256"
            },
            {
              "internalType": "string",
              "name": "name",
              "type": "string"
            },
            {
              "internalType": "string",
              "name": "description",
              "type": "string"
            },
            {
              "internalType": "string",
              "name": "date",
              "type": "string"
            },
            {
              "internalType": "bool",
              "name": "useMtx",
              "type": "bool"
            }
          ],
          "internalType": "struct IEventManagerv2.EventRecord",
          "name": "",
          "type": "tuple"
        }
      ],
      "stateMutability": "view",
      "type": "function"
    },
    {
      "inputs": [],
      "name": "getEventRecords",
      "outputs": [
        {
          "components": [
            {
              "internalType": "uint256",
              "name": "eventRecordId",
              "type": "uint256"
            },
            {
              "internalType": "uint256",
              "name": "groupId",
              "type": "uint256"
            },
            {
              "internalType": "string",
              "name": "name",
              "type": "string"
            },
            {
              "internalType": "string",
              "name": "description",
              "type": "string"
            },
            {
              "internalType": "string",
              "name": "date",
              "type": "string"
            },
            {
              "internalType": "bool",
              "name": "useMtx",
              "type": "bool"
            }
          ],
          "internalType": "struct IEventManagerv2.EventRecord[]",
          "name": "",
          "type": "tuple[]"
        }
      ],
      "stateMutability": "view",
      "type": "function"
    },
    {
      "inputs": [
        {
          "internalType": "uint256",
          "name": "_groupId",
          "type": "uint256"
        }
      ],
      "name": "getGroupById",
      "outputs": [
        {
          "components": [
            {
              "internalType": "uint256",
              "name": "groupId",
              "type": "uint256"
            },
            {
              "internalType": "address",
              "name": "ownerAddress",
              "type": "address"
            },
            {
              "internalType": "string",
              "name": "name",
              "type": "string"
            }
          ],
          "internalType": "struct IEventManagerv2.Group",
          "name": "",
          "type": "tuple"
        }
      ],
      "stateMutability": "view",
      "type": "function"
    },
    {
      "inputs": [],
      "name": "getGroups",
      "outputs": [
        {
          "components": [
            {
              "internalType": "uint256",
              "name": "groupId",
              "type": "uint256"
            },
            {
              "internalType": "address",
              "name": "ownerAddress",
              "type": "address"
            },
            {
              "internalType": "string",
              "name": "name",
              "type": "string"
            }
          ],
          "internalType": "struct IEventManagerv2.Group[]",
          "name": "",
          "type": "tuple[]"
        }
      ],
      "stateMutability": "view",
      "type": "function"
    },
    {
      "inputs": [],
      "name": "getOwnGroups",
      "outputs": [
        {
          "components": [
            {
              "internalType": "uint256",
              "name": "groupId",
              "type": "uint256"
            },
            {
              "internalType": "address",
              "name": "ownerAddress",
              "type": "address"
            },
            {
              "internalType": "string",
              "name": "name",
              "type": "string"
            }
          ],
          "internalType": "struct IEventManagerv2.Group[]",
          "name": "",
          "type": "tuple[]"
        }
      ],
      "stateMutability": "view",
      "type": "function"
    },
    {
      "inputs": [
        {
          "internalType": "address",
          "name": "_relayerAddr",
          "type": "address"
        },
        {
          "internalType": "uint256",
          "name": "_mtxPrice",
          "type": "uint256"
        },
        {
          "internalType": "uint256",
          "name": "_maxMintLimit",
          "type": "uint256"
        }
      ],
      "name": "initialize",
      "outputs": [],
      "stateMutability": "nonpayable",
      "type": "function"
    },
    {
      "inputs": [],
      "name": "owner",
      "outputs": [
        {
          "internalType": "address",
          "name": "",
          "type": "address"
        }
      ],
      "stateMutability": "view",
      "type": "function"
    },
    {
      "inputs": [],
      "name": "renounceOwnership",
      "outputs": [],
      "stateMutability": "nonpayable",
      "type": "function"
    },
    {
      "inputs": [
        {
          "internalType": "uint256",
          "name": "_mintLimit",
          "type": "uint256"
        }
      ],
      "name": "setMaxMintLimit",
      "outputs": [],
      "stateMutability": "nonpayable",
      "type": "function"
    },
    {
      "inputs": [
        {
          "internalType": "address",
          "name": "_mintNftAddr",
          "type": "address"
        }
      ],
      "name": "setMintNFTAddr",
      "outputs": [],
      "stateMutability": "nonpayable",
      "type": "function"
    },
    {
      "inputs": [
        {
          "internalType": "uint256",
          "name": "_price",
          "type": "uint256"
        }
      ],
      "name": "setMtxPrice",
      "outputs": [],
      "stateMutability": "nonpayable",
      "type": "function"
    },
    {
      "inputs": [
        {
          "internalType": "address",
          "name": "_relayerAddr",
          "type": "address"
        }
      ],
      "name": "setRelayerAddr",
      "outputs": [],
      "stateMutability": "nonpayable",
      "type": "function"
    },
    {
      "inputs": [
        {
          "internalType": "address",
          "name": "newOwner",
          "type": "address"
        }
      ],
      "name": "transferOwnership",
      "outputs": [],
      "stateMutability": "nonpayable",
      "type": "function"
    }
  ],
  "bytecode": "0x608060405234801561001057600080fd5b50613479806100206000396000f3fe6080604052600436106100e85760003560e01c80638da5cb5b1161008a578063d337483a11610059578063d337483a146102bf578063dc2ddcae146102ea578063f2fde38b14610313578063f926b50c1461033c576100e8565b80638da5cb5b14610201578063b98079bc1461022c578063be04cc3614610269578063c72b517614610294576100e8565b80636b1f7622116100c65780636b1f76221461015b5780636cc29ea014610184578063715018a6146101c15780637a1ac61e146101d8576100e8565b80631ac30e63146100ed57806337c81cd714610116578063561020d21461013f575b600080fd5b3480156100f957600080fd5b50610114600480360381019061010f91906120c5565b610365565b005b34801561012257600080fd5b5061013d600480360381019061013891906120c5565b610421565b005b610159600480360381019061015491906121a7565b6104dd565b005b34801561016757600080fd5b50610182600480360381019061017d919061217e565b61098b565b005b34801561019057600080fd5b506101ab60048036038101906101a6919061217e565b61099d565b6040516101b89190612c5c565b60405180910390f35b3480156101cd57600080fd5b506101d6610b09565b005b3480156101e457600080fd5b506101ff60048036038101906101fa91906120ee565b610b1d565b005b34801561020d57600080fd5b50610216610c8d565b6040516102239190612a60565b60405180910390f35b34801561023857600080fd5b50610253600480360381019061024e919061217e565b610cb7565b6040516102609190612c3a565b60405180910390f35b34801561027557600080fd5b5061027e610f16565b60405161028b9190612a9d565b60405180910390f35b3480156102a057600080fd5b506102a9611248565b6040516102b69190612a9d565b60405180910390f35b3480156102cb57600080fd5b506102d4611426565b6040516102e19190612a7b565b60405180910390f35b3480156102f657600080fd5b50610311600480360381019061030c919061213d565b6116f7565b005b34801561031f57600080fd5b5061033a600480360381019061033591906120c5565b611893565b005b34801561034857600080fd5b50610363600480360381019061035e919061217e565b611917565b005b61036d61196d565b600073ffffffffffffffffffffffffffffffffffffffff168173ffffffffffffffffffffffffffffffffffffffff1614156103dd576040517f08c379a00000000000000000000000000000000000000000000000000000000081526004016103d490612bda565b60405180910390fd5b80606c60006101000a81548173ffffffffffffffffffffffffffffffffffffffff021916908373ffffffffffffffffffffffffffffffffffffffff16021790555050565b61042961196d565b600073ffffffffffffffffffffffffffffffffffffffff168173ffffffffffffffffffffffffffffffffffffffff161415610499576040517f08c379a000000000000000000000000000000000000000000000000000000000815260040161049090612b9a565b60405180910390fd5b80606d60006101000a81548173ffffffffffffffffffffffffffffffffffffffff021916908373ffffffffffffffffffffffffffffffffffffffff16021790555050565b6000841180156104ef5750606f548411155b61052e576040517f08c379a000000000000000000000000000000000000000000000000000000000815260040161052590612b1a565b60405180910390fd5b6000805b606960003373ffffffffffffffffffffffffffffffffffffffff1673ffffffffffffffffffffffffffffffffffffffff1681526020019081526020016000208054905081101561061d5789606960003373ffffffffffffffffffffffffffffffffffffffff1673ffffffffffffffffffffffffffffffffffffffff16815260200190815260200160002082815481106105f4577f4e487b7100000000000000000000000000000000000000000000000000000000600052603260045260246000fd5b9060005260206000200154141561060a57600191505b8080610615906130df565b915050610532565b508061065e576040517f08c379a000000000000000000000000000000000000000000000000000000000815260040161065590612afa565b60405180910390fd5b8315610795576000606e543a876106759190612f45565b61067f9190612f45565b9050803410156106c4576040517f08c379a00000000000000000000000000000000000000000000000000000000081526004016106bb90612b5a565b60405180910390fd5b6000606d60009054906101000a900473ffffffffffffffffffffffffffffffffffffffff1673ffffffffffffffffffffffffffffffffffffffff163460405161070c90612a4b565b60006040518083038185875af1925050503d8060008114610749576040519150601f19603f3d011682016040523d82523d6000602084013e61074e565b606091505b5050905080610792576040517f08c379a000000000000000000000000000000000000000000000000000000000815260040161078990612c1a565b60405180910390fd5b50505b60006107a160656119eb565b90506107ad60656119f9565b60686040518060c001604052808381526020018c81526020018b81526020018a8152602001898152602001871515815250908060018154018082558091505060019003906000526020600020906006020160009091909190915060008201518160000155602082015181600101556040820151816002019080519060200190610837929190611bba565b506060820151816003019080519060200190610854929190611bba565b506080820151816004019080519060200190610871929190611bba565b5060a08201518160050160006101000a81548160ff02191690831515021790555050506000606c60009054906101000a900473ffffffffffffffffffffffffffffffffffffffff1690508073ffffffffffffffffffffffffffffffffffffffff16633c322164838988886040518563ffffffff1660e01b81526004016108fa9493929190612c99565b600060405180830381600087803b15801561091457600080fd5b505af1158015610928573d6000803e3d6000fd5b50505050606a60008c81526020019081526020016000208290806001815401808255809150506001900390600052602060002001600090919091909150558a606b6000848152602001908152602001600020819055505050505050505050505050565b61099361196d565b80606e8190555050565b6109a5611c40565b60006001836109b49190612f9f565b90506000606782815481106109f2577f4e487b7100000000000000000000000000000000000000000000000000000000600052603260045260246000fd5b9060005260206000209060030201604051806060016040529081600082015481526020016001820160009054906101000a900473ffffffffffffffffffffffffffffffffffffffff1673ffffffffffffffffffffffffffffffffffffffff1673ffffffffffffffffffffffffffffffffffffffff168152602001600282018054610a7b9061307c565b80601f0160208091040260200160405190810160405280929190818152602001828054610aa79061307c565b8015610af45780601f10610ac957610100808354040283529160200191610af4565b820191906000526020600020905b815481529060010190602001808311610ad757829003601f168201915b50505050508152505090508092505050919050565b610b1161196d565b610b1b6000611a0f565b565b60008060019054906101000a900460ff16159050808015610b4e5750600160008054906101000a900460ff1660ff16105b80610b7b5750610b5d30611ad5565b158015610b7a5750600160008054906101000a900460ff1660ff16145b5b610bba576040517f08c379a0000000000000000000000000000000000000000000000000000000008152600401610bb190612b3a565b60405180910390fd5b60016000806101000a81548160ff021916908360ff1602179055508015610bf7576001600060016101000a81548160ff0219169083151502179055505b610bff611af8565b610c0960666119f9565b610c1360656119f9565b610c1c84610421565b610c258361098b565b610c2e82611917565b8015610c875760008060016101000a81548160ff0219169083151502179055507f7f26b83ff96e1f2b6a682f133852f6798a09c465da95921460cefb38474024986001604051610c7e9190612abf565b60405180910390a15b50505050565b6000603360009054906101000a900473ffffffffffffffffffffffffffffffffffffffff16905090565b610cbf611c77565b6000600183610cce9190612f9f565b9050600060688281548110610d0c577f4e487b7100000000000000000000000000000000000000000000000000000000600052603260045260246000fd5b90600052602060002090600602016040518060c00160405290816000820154815260200160018201548152602001600282018054610d499061307c565b80601f0160208091040260200160405190810160405280929190818152602001828054610d759061307c565b8015610dc25780601f10610d9757610100808354040283529160200191610dc2565b820191906000526020600020905b815481529060010190602001808311610da557829003601f168201915b50505050508152602001600382018054610ddb9061307c565b80601f0160208091040260200160405190810160405280929190818152602001828054610e079061307c565b8015610e545780601f10610e2957610100808354040283529160200191610e54565b820191906000526020600020905b815481529060010190602001808311610e3757829003601f168201915b50505050508152602001600482018054610e6d9061307c565b80601f0160208091040260200160405190810160405280929190818152602001828054610e999061307c565b8015610ee65780601f10610ebb57610100808354040283529160200191610ee6565b820191906000526020600020905b815481529060010190602001808311610ec957829003601f168201915b505050505081526020016005820160009054906101000a900460ff16151515158152505090508092505050919050565b60606000606960003373ffffffffffffffffffffffffffffffffffffffff1673ffffffffffffffffffffffffffffffffffffffff1681526020019081526020016000208054905090506000606780549050905060008267ffffffffffffffff811115610fab577f4e487b7100000000000000000000000000000000000000000000000000000000600052604160045260246000fd5b604051908082528060200260200182016040528015610fe457816020015b610fd1611c40565b815260200190600190039081610fc95790505b5090506000805b8381101561123d573373ffffffffffffffffffffffffffffffffffffffff1660678281548110611044577f4e487b7100000000000000000000000000000000000000000000000000000000600052603260045260246000fd5b906000526020600020906003020160010160009054906101000a900473ffffffffffffffffffffffffffffffffffffffff1673ffffffffffffffffffffffffffffffffffffffff16141561122a57606781815481106110cc577f4e487b7100000000000000000000000000000000000000000000000000000000600052603260045260246000fd5b9060005260206000209060030201604051806060016040529081600082015481526020016001820160009054906101000a900473ffffffffffffffffffffffffffffffffffffffff1673ffffffffffffffffffffffffffffffffffffffff1673ffffffffffffffffffffffffffffffffffffffff1681526020016002820180546111559061307c565b80601f01602080910402602001604051908101604052809291908181526020018280546111819061307c565b80156111ce5780601f106111a3576101008083540402835291602001916111ce565b820191906000526020600020905b8154815290600101906020018083116111b157829003601f168201915b505050505081525050838381518110611210577f4e487b7100000000000000000000000000000000000000000000000000000000600052603260045260246000fd5b60200260200101819052508180611226906130df565b9250505b8080611235906130df565b915050610feb565b508194505050505090565b60606000606780549050905060008167ffffffffffffffff811115611296577f4e487b7100000000000000000000000000000000000000000000000000000000600052604160045260246000fd5b6040519080825280602002602001820160405280156112cf57816020015b6112bc611c40565b8152602001906001900390816112b45790505b5090506067805480602002602001604051908101604052809291908181526020016000905b828210156114185783829060005260206000209060030201604051806060016040529081600082015481526020016001820160009054906101000a900473ffffffffffffffffffffffffffffffffffffffff1673ffffffffffffffffffffffffffffffffffffffff1673ffffffffffffffffffffffffffffffffffffffff1681526020016002820180546113879061307c565b80601f01602080910402602001604051908101604052809291908181526020018280546113b39061307c565b80156114005780601f106113d557610100808354040283529160200191611400565b820191906000526020600020905b8154815290600101906020018083116113e357829003601f168201915b505050505081525050815260200190600101906112f4565b505050509050809250505090565b60606000606880549050905060008167ffffffffffffffff811115611474577f4e487b7100000000000000000000000000000000000000000000000000000000600052604160045260246000fd5b6040519080825280602002602001820160405280156114ad57816020015b61149a611c77565b8152602001906001900390816114925790505b5090506068805480602002602001604051908101604052809291908181526020016000905b828210156116e957838290600052602060002090600602016040518060c001604052908160008201548152602001600182015481526020016002820180546115199061307c565b80601f01602080910402602001604051908101604052809291908181526020018280546115459061307c565b80156115925780601f1061156757610100808354040283529160200191611592565b820191906000526020600020905b81548152906001019060200180831161157557829003601f168201915b505050505081526020016003820180546115ab9061307c565b80601f01602080910402602001604051908101604052809291908181526020018280546115d79061307c565b80156116245780601f106115f957610100808354040283529160200191611624565b820191906000526020600020905b81548152906001019060200180831161160757829003601f168201915b5050505050815260200160048201805461163d9061307c565b80601f01602080910402602001604051908101604052809291908181526020018280546116699061307c565b80156116b65780601f1061168b576101008083540402835291602001916116b6565b820191906000526020600020905b81548152906001019060200180831161169957829003601f168201915b505050505081526020016005820160009054906101000a900460ff161515151581525050815260200190600101906114d2565b505050509050809250505090565b600061170360666119eb565b905061170f60666119f9565b606760405180606001604052808381526020013373ffffffffffffffffffffffffffffffffffffffff1681526020018481525090806001815401808255809150506001900390600052602060002090600302016000909190919091506000820151816000015560208201518160010160006101000a81548173ffffffffffffffffffffffffffffffffffffffff021916908373ffffffffffffffffffffffffffffffffffffffff16021790555060408201518160020190805190602001906117d8929190611bba565b505050606960003373ffffffffffffffffffffffffffffffffffffffff1673ffffffffffffffffffffffffffffffffffffffff1681526020019081526020016000208190806001815401808255809150506001900390600052602060002001600090919091909150553373ffffffffffffffffffffffffffffffffffffffff167f8fd7975dffff2a53bfe748adb09eacd0516344fb3db49dad60069d8b91c63654826040516118879190612c7e565b60405180910390a25050565b61189b61196d565b600073ffffffffffffffffffffffffffffffffffffffff168173ffffffffffffffffffffffffffffffffffffffff16141561190b576040517f08c379a000000000000000000000000000000000000000000000000000000000815260040161190290612ada565b60405180910390fd5b61191481611a0f565b50565b61191f61196d565b6000811415611963576040517f08c379a000000000000000000000000000000000000000000000000000000000815260040161195a90612bba565b60405180910390fd5b80606f8190555050565b611975611b51565b73ffffffffffffffffffffffffffffffffffffffff16611993610c8d565b73ffffffffffffffffffffffffffffffffffffffff16146119e9576040517f08c379a00000000000000000000000000000000000000000000000000000000081526004016119e090612b7a565b60405180910390fd5b565b600081600001549050919050565b6001816000016000828254019250508190555050565b6000603360009054906101000a900473ffffffffffffffffffffffffffffffffffffffff16905081603360006101000a81548173ffffffffffffffffffffffffffffffffffffffff021916908373ffffffffffffffffffffffffffffffffffffffff1602179055508173ffffffffffffffffffffffffffffffffffffffff168173ffffffffffffffffffffffffffffffffffffffff167f8be0079c531659141344cd1fd0a4f28419497f9722a3daafe3b4186f6b6457e060405160405180910390a35050565b6000808273ffffffffffffffffffffffffffffffffffffffff163b119050919050565b600060019054906101000a900460ff16611b47576040517f08c379a0000000000000000000000000000000000000000000000000000000008152600401611b3e90612bfa565b60405180910390fd5b611b4f611b59565b565b600033905090565b600060019054906101000a900460ff16611ba8576040517f08c379a0000000000000000000000000000000000000000000000000000000008152600401611b9f90612bfa565b60405180910390fd5b611bb8611bb3611b51565b611a0f565b565b828054611bc69061307c565b90600052602060002090601f016020900481019282611be85760008555611c2f565b82601f10611c0157805160ff1916838001178555611c2f565b82800160010185558215611c2f579182015b82811115611c2e578251825591602001919060010190611c13565b5b509050611c3c9190611caf565b5090565b604051806060016040528060008152602001600073ffffffffffffffffffffffffffffffffffffffff168152602001606081525090565b6040518060c0016040528060008152602001600081526020016060815260200160608152602001606081526020016000151581525090565b5b80821115611cc8576000816000905550600101611cb0565b5090565b6000611cdf611cda84612d0c565b612ce7565b90508082856040860282011115611cf557600080fd5b60005b85811015611d255781611d0b8882611f46565b845260208401935060408301925050600181019050611cf8565b5050509392505050565b6000611d42611d3d84612d32565b612ce7565b90508082856040860282011115611d5857600080fd5b60005b85811015611d885781611d6e8882611f46565b845260208401935060408301925050600181019050611d5b565b5050509392505050565b6000611da5611da084612d58565b612ce7565b90508083825260208201905082856020860282011115611dc457600080fd5b60005b85811015611e0e57813567ffffffffffffffff811115611de657600080fd5b808601611df38982611fac565b85526020850194506020840193505050600181019050611dc7565b5050509392505050565b6000611e2b611e2684612d84565b612ce7565b90508082856020860282011115611e4157600080fd5b60005b85811015611e715781611e5788826120b0565b845260208401935060208301925050600181019050611e44565b5050509392505050565b6000611e8e611e8984612daa565b612ce7565b905082815260208101848484011115611ea657600080fd5b611eb184828561303a565b509392505050565b600081359050611ec8816133fe565b92915050565b600082601f830112611edf57600080fd5b6001611eec848285611ccc565b91505092915050565b600082601f830112611f0657600080fd5b6002611f13848285611d2f565b91505092915050565b600082601f830112611f2d57600080fd5b8135611f3d848260208601611d92565b91505092915050565b600082601f830112611f5757600080fd5b6002611f64848285611e18565b91505092915050565b600081359050611f7c81613415565b92915050565b600082601f830112611f9357600080fd5b8135611fa3848260208601611e7b565b91505092915050565b600060408284031215611fbe57600080fd5b611fc86040612ce7565b9050600082013567ffffffffffffffff811115611fe457600080fd5b611ff084828501611f82565b6000830152506020612004848285016120b0565b60208301525092915050565b6000610240828403121561202357600080fd5b61202d60c0612ce7565b9050600061203d84828501611ef5565b600083015250608061205184828501611f46565b60208301525060c061206584828501611ef5565b60408301525061014061207a84828501611f46565b60608301525061018061208f84828501611ef5565b6080830152506102006120a484828501611ece565b60a08301525092915050565b6000813590506120bf8161342c565b92915050565b6000602082840312156120d757600080fd5b60006120e584828501611eb9565b91505092915050565b60008060006060848603121561210357600080fd5b600061211186828701611eb9565b9350506020612122868287016120b0565b9250506040612133868287016120b0565b9150509250925092565b60006020828403121561214f57600080fd5b600082013567ffffffffffffffff81111561216957600080fd5b61217584828501611f82565b91505092915050565b60006020828403121561219057600080fd5b600061219e848285016120b0565b91505092915050565b600080600080600080600080610320898b0312156121c457600080fd5b60006121d28b828c016120b0565b985050602089013567ffffffffffffffff8111156121ef57600080fd5b6121fb8b828c01611f82565b975050604089013567ffffffffffffffff81111561221857600080fd5b6122248b828c01611f82565b965050606089013567ffffffffffffffff81111561224157600080fd5b61224d8b828c01611f82565b955050608061225e8b828c016120b0565b94505060a061226f8b828c01611f6d565b93505060c06122808b828c01612010565b92505061030089013567ffffffffffffffff81111561229e57600080fd5b6122aa8b828c01611f1c565b9150509295985092959890939650565b60006122c68383612551565b60408301905092915050565b60006122de83836127a3565b905092915050565b60006122f283836128d1565b905092915050565b60006123068383612971565b905092915050565b600061231a8383612a2d565b60208301905092915050565b61232f81612fd3565b82525050565b61233e81612fd3565b82525050565b61234d81612e29565b6123578184612ec4565b925061236282612ddb565b8060005b8381101561239357815161237a87826122ba565b965061238583612e76565b925050600181019050612366565b505050505050565b6123a481612e34565b6123ae8184612ecf565b92506123b982612de5565b8060005b838110156123ea5781516123d187826122ba565b96506123dc83612e83565b9250506001810190506123bd565b505050505050565b60006123fd82612e3f565b6124078185612eda565b93508360208202850161241985612def565b8060005b85811015612455578484038952815161243685826122d2565b945061244183612e90565b925060208a0199505060018101905061241d565b50829750879550505050505092915050565b600061247282612e4a565b61247c8185612eeb565b93508360208202850161248e85612dff565b8060005b858110156124ca57848403895281516124ab85826122e6565b94506124b683612e9d565b925060208a01995050600181019050612492565b50829750879550505050505092915050565b60006124e782612e55565b6124f18185612efc565b93508360208202850161250385612e0f565b8060005b8581101561253f578484038952815161252085826122fa565b945061252b83612eaa565b925060208a01995050600181019050612507565b50829750879550505050505092915050565b61255a81612e60565b6125648184612f0d565b925061256f82612e1f565b8060005b838110156125a0578151612587878261230e565b965061259283612eb7565b925050600181019050612573565b505050505050565b6125b181612fe5565b82525050565b6125c081613028565b82525050565b60006125d182612e6b565b6125db8185612f23565b93506125eb818560208601613049565b6125f4816131b5565b840191505092915050565b600061260c602683612f34565b9150612617826131c6565b604082019050919050565b600061262f601783612f34565b915061263a82613215565b602082019050919050565b6000612652601583612f34565b915061265d8261323e565b602082019050919050565b6000612675602e83612f34565b915061268082613267565b604082019050919050565b6000612698601083612f34565b91506126a3826132b6565b602082019050919050565b60006126bb602083612f34565b91506126c6826132df565b602082019050919050565b60006126de601883612f34565b91506126e982613308565b602082019050919050565b6000612701600083612f18565b915061270c82613331565b600082019050919050565b6000612724600f83612f34565b915061272f82613334565b602082019050919050565b6000612747601983612f34565b91506127528261335d565b602082019050919050565b600061276a602b83612f34565b915061277582613386565b604082019050919050565b600061278d600f83612f34565b9150612798826133d5565b602082019050919050565b600060c0830160008301516127bb6000860182612a2d565b5060208301516127ce6020860182612a2d565b50604083015184820360408601526127e682826125c6565b9150506060830151848203606086015261280082826125c6565b9150506080830151848203608086015261281a82826125c6565b91505060a083015161282f60a08601826125a8565b508091505092915050565b600060c0830160008301516128526000860182612a2d565b5060208301516128656020860182612a2d565b506040830151848203604086015261287d82826125c6565b9150506060830151848203606086015261289782826125c6565b915050608083015184820360808601526128b182826125c6565b91505060a08301516128c660a08601826125a8565b508091505092915050565b60006060830160008301516128e96000860182612a2d565b5060208301516128fc6020860182612326565b506040830151848203604086015261291482826125c6565b9150508091505092915050565b60006060830160008301516129396000860182612a2d565b50602083015161294c6020860182612326565b506040830151848203604086015261296482826125c6565b9150508091505092915050565b6000604083016000830151848203600086015261298e82826125c6565b91505060208301516129a36020860182612a2d565b508091505092915050565b610240820160008201516129c5600085018261239b565b5060208201516129d86080850182612551565b5060408201516129eb60c085018261239b565b5060608201516129ff610140850182612551565b506080820151612a1361018085018261239b565b5060a0820151612a27610200850182612344565b50505050565b612a3681613011565b82525050565b612a4581613011565b82525050565b6000612a56826126f4565b9150819050919050565b6000602082019050612a756000830184612335565b92915050565b60006020820190508181036000830152612a9581846123f2565b905092915050565b60006020820190508181036000830152612ab78184612467565b905092915050565b6000602082019050612ad460008301846125b7565b92915050565b60006020820190508181036000830152612af3816125ff565b9050919050565b60006020820190508181036000830152612b1381612622565b9050919050565b60006020820190508181036000830152612b3381612645565b9050919050565b60006020820190508181036000830152612b5381612668565b9050919050565b60006020820190508181036000830152612b738161268b565b9050919050565b60006020820190508181036000830152612b93816126ae565b9050919050565b60006020820190508181036000830152612bb3816126d1565b9050919050565b60006020820190508181036000830152612bd381612717565b9050919050565b60006020820190508181036000830152612bf38161273a565b9050919050565b60006020820190508181036000830152612c138161275d565b9050919050565b60006020820190508181036000830152612c3381612780565b9050919050565b60006020820190508181036000830152612c54818461283a565b905092915050565b60006020820190508181036000830152612c768184612921565b905092915050565b6000602082019050612c936000830184612a3c565b92915050565b60006102a082019050612caf6000830187612a3c565b612cbc6020830186612a3c565b612cc960408301856129ae565b818103610280830152612cdc81846124dc565b905095945050505050565b6000612cf1612d02565b9050612cfd82826130ae565b919050565b6000604051905090565b600067ffffffffffffffff821115612d2757612d26613186565b5b602082029050919050565b600067ffffffffffffffff821115612d4d57612d4c613186565b5b602082029050919050565b600067ffffffffffffffff821115612d7357612d72613186565b5b602082029050602081019050919050565b600067ffffffffffffffff821115612d9f57612d9e613186565b5b602082029050919050565b600067ffffffffffffffff821115612dc557612dc4613186565b5b612dce826131b5565b9050602081019050919050565b6000819050919050565b6000819050919050565b6000819050602082019050919050565b6000819050602082019050919050565b6000819050602082019050919050565b6000819050919050565b600060019050919050565b600060029050919050565b600081519050919050565b600081519050919050565b600081519050919050565b600060029050919050565b600081519050919050565b6000602082019050919050565b6000602082019050919050565b6000602082019050919050565b6000602082019050919050565b6000602082019050919050565b6000602082019050919050565b600081905092915050565b600081905092915050565b600082825260208201905092915050565b600082825260208201905092915050565b600082825260208201905092915050565b600081905092915050565b600081905092915050565b600082825260208201905092915050565b600082825260208201905092915050565b6000612f5082613011565b9150612f5b83613011565b9250817fffffffffffffffffffffffffffffffffffffffffffffffffffffffffffffffff0483118215151615612f9457612f93613128565b5b828202905092915050565b6000612faa82613011565b9150612fb583613011565b925082821015612fc857612fc7613128565b5b828203905092915050565b6000612fde82612ff1565b9050919050565b60008115159050919050565b600073ffffffffffffffffffffffffffffffffffffffff82169050919050565b6000819050919050565b600060ff82169050919050565b60006130338261301b565b9050919050565b82818337600083830152505050565b60005b8381101561306757808201518184015260208101905061304c565b83811115613076576000848401525b50505050565b6000600282049050600182168061309457607f821691505b602082108114156130a8576130a7613157565b5b50919050565b6130b7826131b5565b810181811067ffffffffffffffff821117156130d6576130d5613186565b5b80604052505050565b60006130ea82613011565b91507fffffffffffffffffffffffffffffffffffffffffffffffffffffffffffffffff82141561311d5761311c613128565b5b600182019050919050565b7f4e487b7100000000000000000000000000000000000000000000000000000000600052601160045260246000fd5b7f4e487b7100000000000000000000000000000000000000000000000000000000600052602260045260246000fd5b7f4e487b7100000000000000000000000000000000000000000000000000000000600052604160045260246000fd5b6000601f19601f8301169050919050565b7f4f776e61626c653a206e6577206f776e657220697320746865207a65726f206160008201527f6464726573730000000000000000000000000000000000000000000000000000602082015250565b7f596f7520617265206e6f742067726f7570206f776e6572000000000000000000600082015250565b7f6d696e74206c696d697420697320696e76616c69640000000000000000000000600082015250565b7f496e697469616c697a61626c653a20636f6e747261637420697320616c72656160008201527f647920696e697469616c697a6564000000000000000000000000000000000000602082015250565b7f4e6f7420656e6f7567682076616c756500000000000000000000000000000000600082015250565b7f4f776e61626c653a2063616c6c6572206973206e6f7420746865206f776e6572600082015250565b7f72656c61796572206164647265737320697320626c616e6b0000000000000000600082015250565b50565b7f6d696e74206c696d697420697320300000000000000000000000000000000000600082015250565b7f6d696e74206e6674206164647265737320697320626c616e6b00000000000000600082015250565b7f496e697469616c697a61626c653a20636f6e7472616374206973206e6f74206960008201527f6e697469616c697a696e67000000000000000000000000000000000000000000602082015250565b7f7472616e73666572206661696c65640000000000000000000000000000000000600082015250565b61340781612fd3565b811461341257600080fd5b50565b61341e81612fe5565b811461342957600080fd5b50565b61343581613011565b811461344057600080fd5b5056fea264697066735822122072705c52283dbd159cbc7845820f8c028584c18c73d7aeb524c0ca91aaf9639a64736f6c63430008040033",
  "linkReferences": {},
  "deployedLinkReferences": {}
}