{
  "_format": "hh-sol-artifact-1",
  "contractName": "EventManagerv2",
  "sourceName": "contracts/Eventv2.sol",
  "abi": [
    {
      "anonymous": false,
      "inputs": [
        {
          "indexed": true,
          "internalType": "address",
          "name": "owner",
          "type": "address"
        },
        {
          "indexed": false,
          "internalType": "uint256",
          "name": "groupId",
          "type": "uint256"
        }
      ],
      "name": "CreatedGroupId",
      "type": "event"
    },
    {
      "anonymous": false,
      "inputs": [
        {
          "indexed": false,
          "internalType": "uint8",
          "name": "version",
          "type": "uint8"
        }
      ],
      "name": "Initialized",
      "type": "event"
    },
    {
      "anonymous": false,
      "inputs": [
        {
          "indexed": true,
          "internalType": "address",
          "name": "previousOwner",
          "type": "address"
        },
        {
          "indexed": true,
          "internalType": "address",
          "name": "newOwner",
          "type": "address"
        }
      ],
      "name": "OwnershipTransferred",
      "type": "event"
    },
    {
      "inputs": [
        {
          "internalType": "uint256",
          "name": "_groupId",
          "type": "uint256"
        },
        {
          "internalType": "string",
          "name": "_name",
          "type": "string"
        },
        {
          "internalType": "string",
          "name": "_description",
          "type": "string"
        },
        {
          "internalType": "string",
          "name": "_date",
          "type": "string"
        },
        {
          "internalType": "uint256",
          "name": "_mintLimit",
          "type": "uint256"
        },
        {
          "internalType": "bool",
          "name": "_useMtx",
          "type": "bool"
        },
        {
          "components": [
            {
              "internalType": "uint256[2][2]",
              "name": "h",
              "type": "uint256[2][2]"
            },
            {
              "internalType": "uint256[2]",
              "name": "g_alpha",
              "type": "uint256[2]"
            },
            {
              "internalType": "uint256[2][2]",
              "name": "h_beta",
              "type": "uint256[2][2]"
            },
            {
              "internalType": "uint256[2]",
              "name": "g_gamma",
              "type": "uint256[2]"
            },
            {
              "internalType": "uint256[2][2]",
              "name": "h_gamma",
              "type": "uint256[2][2]"
            },
            {
              "internalType": "uint256[2][1]",
              "name": "query",
              "type": "uint256[2][1]"
            }
          ],
          "internalType": "struct IZkVerifier.VerifyingKeyPoint",
          "name": "_verifyingKeyPoint",
          "type": "tuple"
        },
        {
          "components": [
            {
              "internalType": "string",
              "name": "metaDataURL",
              "type": "string"
            },
            {
              "internalType": "uint256",
              "name": "requiredParticipateCount",
              "type": "uint256"
            }
          ],
          "internalType": "struct IMintNFTv2.NFTAttribute[]",
          "name": "_eventNFTAttributes",
          "type": "tuple[]"
        }
      ],
      "name": "createEventRecord",
      "outputs": [],
      "stateMutability": "payable",
      "type": "function"
    },
    {
      "inputs": [
        {
          "internalType": "string",
          "name": "_name",
          "type": "string"
        }
      ],
      "name": "createGroup",
      "outputs": [],
      "stateMutability": "nonpayable",
      "type": "function"
    },
    {
      "inputs": [
        {
          "internalType": "uint256",
          "name": "_eventId",
          "type": "uint256"
        }
      ],
      "name": "getEventById",
      "outputs": [
        {
          "components": [
            {
              "internalType": "uint256",
              "name": "eventRecordId",
              "type": "uint256"
            },
            {
              "internalType": "uint256",
              "name": "groupId",
              "type": "uint256"
            },
            {
              "internalType": "string",
              "name": "name",
              "type": "string"
            },
            {
              "internalType": "string",
              "name": "description",
              "type": "string"
            },
            {
              "internalType": "string",
              "name": "date",
              "type": "string"
            },
            {
              "internalType": "bool",
              "name": "useMtx",
              "type": "bool"
            }
          ],
          "internalType": "struct IEventManagerv2.EventRecord",
          "name": "",
          "type": "tuple"
        }
      ],
      "stateMutability": "view",
      "type": "function"
    },
    {
      "inputs": [],
      "name": "getEventRecords",
      "outputs": [
        {
          "components": [
            {
              "internalType": "uint256",
              "name": "eventRecordId",
              "type": "uint256"
            },
            {
              "internalType": "uint256",
              "name": "groupId",
              "type": "uint256"
            },
            {
              "internalType": "string",
              "name": "name",
              "type": "string"
            },
            {
              "internalType": "string",
              "name": "description",
              "type": "string"
            },
            {
              "internalType": "string",
              "name": "date",
              "type": "string"
            },
            {
              "internalType": "bool",
              "name": "useMtx",
              "type": "bool"
            }
          ],
          "internalType": "struct IEventManagerv2.EventRecord[]",
          "name": "",
          "type": "tuple[]"
        }
      ],
      "stateMutability": "view",
      "type": "function"
    },
    {
      "inputs": [],
      "name": "getGroups",
      "outputs": [
        {
          "components": [
            {
              "internalType": "uint256",
              "name": "groupId",
              "type": "uint256"
            },
            {
              "internalType": "address",
              "name": "ownerAddress",
              "type": "address"
            },
            {
              "internalType": "string",
              "name": "name",
              "type": "string"
            }
          ],
          "internalType": "struct IEventManagerv2.Group[]",
          "name": "",
          "type": "tuple[]"
        }
      ],
      "stateMutability": "view",
      "type": "function"
    },
    {
      "inputs": [],
      "name": "getOwnGroups",
      "outputs": [
        {
          "components": [
            {
              "internalType": "uint256",
              "name": "groupId",
              "type": "uint256"
            },
            {
              "internalType": "address",
              "name": "ownerAddress",
              "type": "address"
            },
            {
              "internalType": "string",
              "name": "name",
              "type": "string"
            }
          ],
          "internalType": "struct IEventManagerv2.Group[]",
          "name": "",
          "type": "tuple[]"
        }
      ],
      "stateMutability": "view",
      "type": "function"
    },
    {
      "inputs": [
        {
          "internalType": "address",
          "name": "_relayerAddr",
          "type": "address"
        },
        {
          "internalType": "uint256",
          "name": "_mtxPrice",
          "type": "uint256"
        },
        {
          "internalType": "uint256",
          "name": "_maxMintLimit",
          "type": "uint256"
        }
      ],
      "name": "initialize",
      "outputs": [],
      "stateMutability": "nonpayable",
      "type": "function"
    },
    {
      "inputs": [],
      "name": "owner",
      "outputs": [
        {
          "internalType": "address",
          "name": "",
          "type": "address"
        }
      ],
      "stateMutability": "view",
      "type": "function"
    },
    {
      "inputs": [],
      "name": "renounceOwnership",
      "outputs": [],
      "stateMutability": "nonpayable",
      "type": "function"
    },
    {
      "inputs": [
        {
          "internalType": "uint256",
          "name": "_mintLimit",
          "type": "uint256"
        }
      ],
      "name": "setMaxMintLimit",
      "outputs": [],
      "stateMutability": "nonpayable",
      "type": "function"
    },
    {
      "inputs": [
        {
          "internalType": "address",
          "name": "_mintNftAddr",
          "type": "address"
        }
      ],
      "name": "setMintNFTAddr",
      "outputs": [],
      "stateMutability": "nonpayable",
      "type": "function"
    },
    {
      "inputs": [
        {
          "internalType": "uint256",
          "name": "_price",
          "type": "uint256"
        }
      ],
      "name": "setMtxPrice",
      "outputs": [],
      "stateMutability": "nonpayable",
      "type": "function"
    },
    {
      "inputs": [
        {
          "internalType": "address",
          "name": "_relayerAddr",
          "type": "address"
        }
      ],
      "name": "setRelayerAddr",
      "outputs": [],
      "stateMutability": "nonpayable",
      "type": "function"
    },
    {
      "inputs": [
        {
          "internalType": "address",
          "name": "newOwner",
          "type": "address"
        }
      ],
      "name": "transferOwnership",
      "outputs": [],
      "stateMutability": "nonpayable",
      "type": "function"
    }
  ],
  "bytecode": "0x608060405234801561001057600080fd5b50613253806100206000396000f3fe6080604052600436106100dd5760003560e01c8063b98079bc1161007f578063d337483a11610059578063d337483a14610277578063dc2ddcae146102a2578063f2fde38b146102cb578063f926b50c146102f4576100dd565b8063b98079bc146101e4578063be04cc3614610221578063c72b51761461024c576100dd565b80636b1f7622116100bb5780636b1f762214610150578063715018a6146101795780637a1ac61e146101905780638da5cb5b146101b9576100dd565b80631ac30e63146100e257806337c81cd71461010b578063561020d214610134575b600080fd5b3480156100ee57600080fd5b5061010960048036038101906101049190611f11565b61031d565b005b34801561011757600080fd5b50610132600480360381019061012d9190611f11565b6103d9565b005b61014e60048036038101906101499190611ff3565b610495565b005b34801561015c57600080fd5b5061017760048036038101906101729190611fca565b610943565b005b34801561018557600080fd5b5061018e610955565b005b34801561019c57600080fd5b506101b760048036038101906101b29190611f3a565b610969565b005b3480156101c557600080fd5b506101ce610ad9565b6040516101db919061285c565b60405180910390f35b3480156101f057600080fd5b5061020b60048036038101906102069190611fca565b610b03565b6040516102189190612a36565b60405180910390f35b34801561022d57600080fd5b50610236610d62565b6040516102439190612899565b60405180910390f35b34801561025857600080fd5b50610261611094565b60405161026e9190612899565b60405180910390f35b34801561028357600080fd5b5061028c611272565b6040516102999190612877565b60405180910390f35b3480156102ae57600080fd5b506102c960048036038101906102c49190611f89565b611543565b005b3480156102d757600080fd5b506102f260048036038101906102ed9190611f11565b6116df565b005b34801561030057600080fd5b5061031b60048036038101906103169190611fca565b611763565b005b6103256117b9565b600073ffffffffffffffffffffffffffffffffffffffff168173ffffffffffffffffffffffffffffffffffffffff161415610395576040517f08c379a000000000000000000000000000000000000000000000000000000000815260040161038c906129d6565b60405180910390fd5b80606c60006101000a81548173ffffffffffffffffffffffffffffffffffffffff021916908373ffffffffffffffffffffffffffffffffffffffff16021790555050565b6103e16117b9565b600073ffffffffffffffffffffffffffffffffffffffff168173ffffffffffffffffffffffffffffffffffffffff161415610451576040517f08c379a000000000000000000000000000000000000000000000000000000000815260040161044890612996565b60405180910390fd5b80606d60006101000a81548173ffffffffffffffffffffffffffffffffffffffff021916908373ffffffffffffffffffffffffffffffffffffffff16021790555050565b6000841180156104a75750606f548411155b6104e6576040517f08c379a00000000000000000000000000000000000000000000000000000000081526004016104dd90612916565b60405180910390fd5b6000805b606960003373ffffffffffffffffffffffffffffffffffffffff1673ffffffffffffffffffffffffffffffffffffffff168152602001908152602001600020805490508110156105d55789606960003373ffffffffffffffffffffffffffffffffffffffff1673ffffffffffffffffffffffffffffffffffffffff16815260200190815260200160002082815481106105ac577f4e487b7100000000000000000000000000000000000000000000000000000000600052603260045260246000fd5b906000526020600020015414156105c257600191505b80806105cd90612eb9565b9150506104ea565b5080610616576040517f08c379a000000000000000000000000000000000000000000000000000000000815260040161060d906128f6565b60405180910390fd5b831561074d576000606e543a8761062d9190612d1f565b6106379190612d1f565b90508034101561067c576040517f08c379a000000000000000000000000000000000000000000000000000000000815260040161067390612956565b60405180910390fd5b6000606d60009054906101000a900473ffffffffffffffffffffffffffffffffffffffff1673ffffffffffffffffffffffffffffffffffffffff16346040516106c490612847565b60006040518083038185875af1925050503d8060008114610701576040519150601f19603f3d011682016040523d82523d6000602084013e610706565b606091505b505090508061074a576040517f08c379a000000000000000000000000000000000000000000000000000000000815260040161074190612a16565b60405180910390fd5b50505b60006107596065611837565b90506107656065611845565b60686040518060c001604052808381526020018c81526020018b81526020018a81526020018981526020018715158152509080600181540180825580915050600190039060005260206000209060060201600090919091909150600082015181600001556020820151816001015560408201518160020190805190602001906107ef929190611a06565b50606082015181600301908051906020019061080c929190611a06565b506080820151816004019080519060200190610829929190611a06565b5060a08201518160050160006101000a81548160ff02191690831515021790555050506000606c60009054906101000a900473ffffffffffffffffffffffffffffffffffffffff1690508073ffffffffffffffffffffffffffffffffffffffff16633c322164838988886040518563ffffffff1660e01b81526004016108b29493929190612a73565b600060405180830381600087803b1580156108cc57600080fd5b505af11580156108e0573d6000803e3d6000fd5b50505050606a60008c81526020019081526020016000208290806001815401808255809150506001900390600052602060002001600090919091909150558a606b6000848152602001908152602001600020819055505050505050505050505050565b61094b6117b9565b80606e8190555050565b61095d6117b9565b610967600061185b565b565b60008060019054906101000a900460ff1615905080801561099a5750600160008054906101000a900460ff1660ff16105b806109c757506109a930611921565b1580156109c65750600160008054906101000a900460ff1660ff16145b5b610a06576040517f08c379a00000000000000000000000000000000000000000000000000000000081526004016109fd90612936565b60405180910390fd5b60016000806101000a81548160ff021916908360ff1602179055508015610a43576001600060016101000a81548160ff0219169083151502179055505b610a4b611944565b610a556066611845565b610a5f6065611845565b610a68846103d9565b610a7183610943565b610a7a82611763565b8015610ad35760008060016101000a81548160ff0219169083151502179055507f7f26b83ff96e1f2b6a682f133852f6798a09c465da95921460cefb38474024986001604051610aca91906128bb565b60405180910390a15b50505050565b6000603360009054906101000a900473ffffffffffffffffffffffffffffffffffffffff16905090565b610b0b611a8c565b6000600183610b1a9190612d79565b9050600060688281548110610b58577f4e487b7100000000000000000000000000000000000000000000000000000000600052603260045260246000fd5b90600052602060002090600602016040518060c00160405290816000820154815260200160018201548152602001600282018054610b9590612e56565b80601f0160208091040260200160405190810160405280929190818152602001828054610bc190612e56565b8015610c0e5780601f10610be357610100808354040283529160200191610c0e565b820191906000526020600020905b815481529060010190602001808311610bf157829003601f168201915b50505050508152602001600382018054610c2790612e56565b80601f0160208091040260200160405190810160405280929190818152602001828054610c5390612e56565b8015610ca05780601f10610c7557610100808354040283529160200191610ca0565b820191906000526020600020905b815481529060010190602001808311610c8357829003601f168201915b50505050508152602001600482018054610cb990612e56565b80601f0160208091040260200160405190810160405280929190818152602001828054610ce590612e56565b8015610d325780601f10610d0757610100808354040283529160200191610d32565b820191906000526020600020905b815481529060010190602001808311610d1557829003601f168201915b505050505081526020016005820160009054906101000a900460ff16151515158152505090508092505050919050565b60606000606960003373ffffffffffffffffffffffffffffffffffffffff1673ffffffffffffffffffffffffffffffffffffffff1681526020019081526020016000208054905090506000606780549050905060008267ffffffffffffffff811115610df7577f4e487b7100000000000000000000000000000000000000000000000000000000600052604160045260246000fd5b604051908082528060200260200182016040528015610e3057816020015b610e1d611ac4565b815260200190600190039081610e155790505b5090506000805b83811015611089573373ffffffffffffffffffffffffffffffffffffffff1660678281548110610e90577f4e487b7100000000000000000000000000000000000000000000000000000000600052603260045260246000fd5b906000526020600020906003020160010160009054906101000a900473ffffffffffffffffffffffffffffffffffffffff1673ffffffffffffffffffffffffffffffffffffffff1614156110765760678181548110610f18577f4e487b7100000000000000000000000000000000000000000000000000000000600052603260045260246000fd5b9060005260206000209060030201604051806060016040529081600082015481526020016001820160009054906101000a900473ffffffffffffffffffffffffffffffffffffffff1673ffffffffffffffffffffffffffffffffffffffff1673ffffffffffffffffffffffffffffffffffffffff168152602001600282018054610fa190612e56565b80601f0160208091040260200160405190810160405280929190818152602001828054610fcd90612e56565b801561101a5780601f10610fef5761010080835404028352916020019161101a565b820191906000526020600020905b815481529060010190602001808311610ffd57829003601f168201915b50505050508152505083838151811061105c577f4e487b7100000000000000000000000000000000000000000000000000000000600052603260045260246000fd5b6020026020010181905250818061107290612eb9565b9250505b808061108190612eb9565b915050610e37565b508194505050505090565b60606000606780549050905060008167ffffffffffffffff8111156110e2577f4e487b7100000000000000000000000000000000000000000000000000000000600052604160045260246000fd5b60405190808252806020026020018201604052801561111b57816020015b611108611ac4565b8152602001906001900390816111005790505b5090506067805480602002602001604051908101604052809291908181526020016000905b828210156112645783829060005260206000209060030201604051806060016040529081600082015481526020016001820160009054906101000a900473ffffffffffffffffffffffffffffffffffffffff1673ffffffffffffffffffffffffffffffffffffffff1673ffffffffffffffffffffffffffffffffffffffff1681526020016002820180546111d390612e56565b80601f01602080910402602001604051908101604052809291908181526020018280546111ff90612e56565b801561124c5780601f106112215761010080835404028352916020019161124c565b820191906000526020600020905b81548152906001019060200180831161122f57829003601f168201915b50505050508152505081526020019060010190611140565b505050509050809250505090565b60606000606880549050905060008167ffffffffffffffff8111156112c0577f4e487b7100000000000000000000000000000000000000000000000000000000600052604160045260246000fd5b6040519080825280602002602001820160405280156112f957816020015b6112e6611a8c565b8152602001906001900390816112de5790505b5090506068805480602002602001604051908101604052809291908181526020016000905b8282101561153557838290600052602060002090600602016040518060c0016040529081600082015481526020016001820154815260200160028201805461136590612e56565b80601f016020809104026020016040519081016040528092919081815260200182805461139190612e56565b80156113de5780601f106113b3576101008083540402835291602001916113de565b820191906000526020600020905b8154815290600101906020018083116113c157829003601f168201915b505050505081526020016003820180546113f790612e56565b80601f016020809104026020016040519081016040528092919081815260200182805461142390612e56565b80156114705780601f1061144557610100808354040283529160200191611470565b820191906000526020600020905b81548152906001019060200180831161145357829003601f168201915b5050505050815260200160048201805461148990612e56565b80601f01602080910402602001604051908101604052809291908181526020018280546114b590612e56565b80156115025780601f106114d757610100808354040283529160200191611502565b820191906000526020600020905b8154815290600101906020018083116114e557829003601f168201915b505050505081526020016005820160009054906101000a900460ff1615151515815250508152602001906001019061131e565b505050509050809250505090565b600061154f6066611837565b905061155b6066611845565b606760405180606001604052808381526020013373ffffffffffffffffffffffffffffffffffffffff1681526020018481525090806001815401808255809150506001900390600052602060002090600302016000909190919091506000820151816000015560208201518160010160006101000a81548173ffffffffffffffffffffffffffffffffffffffff021916908373ffffffffffffffffffffffffffffffffffffffff1602179055506040820151816002019080519060200190611624929190611a06565b505050606960003373ffffffffffffffffffffffffffffffffffffffff1673ffffffffffffffffffffffffffffffffffffffff1681526020019081526020016000208190806001815401808255809150506001900390600052602060002001600090919091909150553373ffffffffffffffffffffffffffffffffffffffff167f8fd7975dffff2a53bfe748adb09eacd0516344fb3db49dad60069d8b91c63654826040516116d39190612a58565b60405180910390a25050565b6116e76117b9565b600073ffffffffffffffffffffffffffffffffffffffff168173ffffffffffffffffffffffffffffffffffffffff161415611757576040517f08c379a000000000000000000000000000000000000000000000000000000000815260040161174e906128d6565b60405180910390fd5b6117608161185b565b50565b61176b6117b9565b60008114156117af576040517f08c379a00000000000000000000000000000000000000000000000000000000081526004016117a6906129b6565b60405180910390fd5b80606f8190555050565b6117c161199d565b73ffffffffffffffffffffffffffffffffffffffff166117df610ad9565b73ffffffffffffffffffffffffffffffffffffffff1614611835576040517f08c379a000000000000000000000000000000000000000000000000000000000815260040161182c90612976565b60405180910390fd5b565b600081600001549050919050565b6001816000016000828254019250508190555050565b6000603360009054906101000a900473ffffffffffffffffffffffffffffffffffffffff16905081603360006101000a81548173ffffffffffffffffffffffffffffffffffffffff021916908373ffffffffffffffffffffffffffffffffffffffff1602179055508173ffffffffffffffffffffffffffffffffffffffff168173ffffffffffffffffffffffffffffffffffffffff167f8be0079c531659141344cd1fd0a4f28419497f9722a3daafe3b4186f6b6457e060405160405180910390a35050565b6000808273ffffffffffffffffffffffffffffffffffffffff163b119050919050565b600060019054906101000a900460ff16611993576040517f08c379a000000000000000000000000000000000000000000000000000000000815260040161198a906129f6565b60405180910390fd5b61199b6119a5565b565b600033905090565b600060019054906101000a900460ff166119f4576040517f08c379a00000000000000000000000000000000000000000000000000000000081526004016119eb906129f6565b60405180910390fd5b611a046119ff61199d565b61185b565b565b828054611a1290612e56565b90600052602060002090601f016020900481019282611a345760008555611a7b565b82601f10611a4d57805160ff1916838001178555611a7b565b82800160010185558215611a7b579182015b82811115611a7a578251825591602001919060010190611a5f565b5b509050611a889190611afb565b5090565b6040518060c0016040528060008152602001600081526020016060815260200160608152602001606081526020016000151581525090565b604051806060016040528060008152602001600073ffffffffffffffffffffffffffffffffffffffff168152602001606081525090565b5b80821115611b14576000816000905550600101611afc565b5090565b6000611b2b611b2684612ae6565b612ac1565b90508082856040860282011115611b4157600080fd5b60005b85811015611b715781611b578882611d92565b845260208401935060408301925050600181019050611b44565b5050509392505050565b6000611b8e611b8984612b0c565b612ac1565b90508082856040860282011115611ba457600080fd5b60005b85811015611bd45781611bba8882611d92565b845260208401935060408301925050600181019050611ba7565b5050509392505050565b6000611bf1611bec84612b32565b612ac1565b90508083825260208201905082856020860282011115611c1057600080fd5b60005b85811015611c5a57813567ffffffffffffffff811115611c3257600080fd5b808601611c3f8982611df8565b85526020850194506020840193505050600181019050611c13565b5050509392505050565b6000611c77611c7284612b5e565b612ac1565b90508082856020860282011115611c8d57600080fd5b60005b85811015611cbd5781611ca38882611efc565b845260208401935060208301925050600181019050611c90565b5050509392505050565b6000611cda611cd584612b84565b612ac1565b905082815260208101848484011115611cf257600080fd5b611cfd848285612e14565b509392505050565b600081359050611d14816131d8565b92915050565b600082601f830112611d2b57600080fd5b6001611d38848285611b18565b91505092915050565b600082601f830112611d5257600080fd5b6002611d5f848285611b7b565b91505092915050565b600082601f830112611d7957600080fd5b8135611d89848260208601611bde565b91505092915050565b600082601f830112611da357600080fd5b6002611db0848285611c64565b91505092915050565b600081359050611dc8816131ef565b92915050565b600082601f830112611ddf57600080fd5b8135611def848260208601611cc7565b91505092915050565b600060408284031215611e0a57600080fd5b611e146040612ac1565b9050600082013567ffffffffffffffff811115611e3057600080fd5b611e3c84828501611dce565b6000830152506020611e5084828501611efc565b60208301525092915050565b60006102408284031215611e6f57600080fd5b611e7960c0612ac1565b90506000611e8984828501611d41565b6000830152506080611e9d84828501611d92565b60208301525060c0611eb184828501611d41565b604083015250610140611ec684828501611d92565b606083015250610180611edb84828501611d41565b608083015250610200611ef084828501611d1a565b60a08301525092915050565b600081359050611f0b81613206565b92915050565b600060208284031215611f2357600080fd5b6000611f3184828501611d05565b91505092915050565b600080600060608486031215611f4f57600080fd5b6000611f5d86828701611d05565b9350506020611f6e86828701611efc565b9250506040611f7f86828701611efc565b9150509250925092565b600060208284031215611f9b57600080fd5b600082013567ffffffffffffffff811115611fb557600080fd5b611fc184828501611dce565b91505092915050565b600060208284031215611fdc57600080fd5b6000611fea84828501611efc565b91505092915050565b600080600080600080600080610320898b03121561201057600080fd5b600061201e8b828c01611efc565b985050602089013567ffffffffffffffff81111561203b57600080fd5b6120478b828c01611dce565b975050604089013567ffffffffffffffff81111561206457600080fd5b6120708b828c01611dce565b965050606089013567ffffffffffffffff81111561208d57600080fd5b6120998b828c01611dce565b95505060806120aa8b828c01611efc565b94505060a06120bb8b828c01611db9565b93505060c06120cc8b828c01611e5c565b92505061030089013567ffffffffffffffff8111156120ea57600080fd5b6120f68b828c01611d68565b9150509295985092959890939650565b6000612112838361239d565b60408301905092915050565b600061212a83836125ef565b905092915050565b600061213e838361271d565b905092915050565b6000612152838361276d565b905092915050565b60006121668383612829565b60208301905092915050565b61217b81612dad565b82525050565b61218a81612dad565b82525050565b61219981612c03565b6121a38184612c9e565b92506121ae82612bb5565b8060005b838110156121df5781516121c68782612106565b96506121d183612c50565b9250506001810190506121b2565b505050505050565b6121f081612c0e565b6121fa8184612ca9565b925061220582612bbf565b8060005b8381101561223657815161221d8782612106565b965061222883612c5d565b925050600181019050612209565b505050505050565b600061224982612c19565b6122538185612cb4565b93508360208202850161226585612bc9565b8060005b858110156122a15784840389528151612282858261211e565b945061228d83612c6a565b925060208a01995050600181019050612269565b50829750879550505050505092915050565b60006122be82612c24565b6122c88185612cc5565b9350836020820285016122da85612bd9565b8060005b8581101561231657848403895281516122f78582612132565b945061230283612c77565b925060208a019950506001810190506122de565b50829750879550505050505092915050565b600061233382612c2f565b61233d8185612cd6565b93508360208202850161234f85612be9565b8060005b8581101561238b578484038952815161236c8582612146565b945061237783612c84565b925060208a01995050600181019050612353565b50829750879550505050505092915050565b6123a681612c3a565b6123b08184612ce7565b92506123bb82612bf9565b8060005b838110156123ec5781516123d3878261215a565b96506123de83612c91565b9250506001810190506123bf565b505050505050565b6123fd81612dbf565b82525050565b61240c81612e02565b82525050565b600061241d82612c45565b6124278185612cfd565b9350612437818560208601612e23565b61244081612f8f565b840191505092915050565b6000612458602683612d0e565b915061246382612fa0565b604082019050919050565b600061247b601783612d0e565b915061248682612fef565b602082019050919050565b600061249e601583612d0e565b91506124a982613018565b602082019050919050565b60006124c1602e83612d0e565b91506124cc82613041565b604082019050919050565b60006124e4601083612d0e565b91506124ef82613090565b602082019050919050565b6000612507602083612d0e565b9150612512826130b9565b602082019050919050565b600061252a601883612d0e565b9150612535826130e2565b602082019050919050565b600061254d600083612cf2565b91506125588261310b565b600082019050919050565b6000612570600f83612d0e565b915061257b8261310e565b602082019050919050565b6000612593601983612d0e565b915061259e82613137565b602082019050919050565b60006125b6602b83612d0e565b91506125c182613160565b604082019050919050565b60006125d9600f83612d0e565b91506125e4826131af565b602082019050919050565b600060c0830160008301516126076000860182612829565b50602083015161261a6020860182612829565b50604083015184820360408601526126328282612412565b9150506060830151848203606086015261264c8282612412565b915050608083015184820360808601526126668282612412565b91505060a083015161267b60a08601826123f4565b508091505092915050565b600060c08301600083015161269e6000860182612829565b5060208301516126b16020860182612829565b50604083015184820360408601526126c98282612412565b915050606083015184820360608601526126e38282612412565b915050608083015184820360808601526126fd8282612412565b91505060a083015161271260a08601826123f4565b508091505092915050565b60006060830160008301516127356000860182612829565b5060208301516127486020860182612172565b50604083015184820360408601526127608282612412565b9150508091505092915050565b6000604083016000830151848203600086015261278a8282612412565b915050602083015161279f6020860182612829565b508091505092915050565b610240820160008201516127c160008501826121e7565b5060208201516127d4608085018261239d565b5060408201516127e760c08501826121e7565b5060608201516127fb61014085018261239d565b50608082015161280f6101808501826121e7565b5060a0820151612823610200850182612190565b50505050565b61283281612deb565b82525050565b61284181612deb565b82525050565b600061285282612540565b9150819050919050565b60006020820190506128716000830184612181565b92915050565b60006020820190508181036000830152612891818461223e565b905092915050565b600060208201905081810360008301526128b381846122b3565b905092915050565b60006020820190506128d06000830184612403565b92915050565b600060208201905081810360008301526128ef8161244b565b9050919050565b6000602082019050818103600083015261290f8161246e565b9050919050565b6000602082019050818103600083015261292f81612491565b9050919050565b6000602082019050818103600083015261294f816124b4565b9050919050565b6000602082019050818103600083015261296f816124d7565b9050919050565b6000602082019050818103600083015261298f816124fa565b9050919050565b600060208201905081810360008301526129af8161251d565b9050919050565b600060208201905081810360008301526129cf81612563565b9050919050565b600060208201905081810360008301526129ef81612586565b9050919050565b60006020820190508181036000830152612a0f816125a9565b9050919050565b60006020820190508181036000830152612a2f816125cc565b9050919050565b60006020820190508181036000830152612a508184612686565b905092915050565b6000602082019050612a6d6000830184612838565b92915050565b60006102a082019050612a896000830187612838565b612a966020830186612838565b612aa360408301856127aa565b818103610280830152612ab68184612328565b905095945050505050565b6000612acb612adc565b9050612ad78282612e88565b919050565b6000604051905090565b600067ffffffffffffffff821115612b0157612b00612f60565b5b602082029050919050565b600067ffffffffffffffff821115612b2757612b26612f60565b5b602082029050919050565b600067ffffffffffffffff821115612b4d57612b4c612f60565b5b602082029050602081019050919050565b600067ffffffffffffffff821115612b7957612b78612f60565b5b602082029050919050565b600067ffffffffffffffff821115612b9f57612b9e612f60565b5b612ba882612f8f565b9050602081019050919050565b6000819050919050565b6000819050919050565b6000819050602082019050919050565b6000819050602082019050919050565b6000819050602082019050919050565b6000819050919050565b600060019050919050565b600060029050919050565b600081519050919050565b600081519050919050565b600081519050919050565b600060029050919050565b600081519050919050565b6000602082019050919050565b6000602082019050919050565b6000602082019050919050565b6000602082019050919050565b6000602082019050919050565b6000602082019050919050565b600081905092915050565b600081905092915050565b600082825260208201905092915050565b600082825260208201905092915050565b600082825260208201905092915050565b600081905092915050565b600081905092915050565b600082825260208201905092915050565b600082825260208201905092915050565b6000612d2a82612deb565b9150612d3583612deb565b9250817fffffffffffffffffffffffffffffffffffffffffffffffffffffffffffffffff0483118215151615612d6e57612d6d612f02565b5b828202905092915050565b6000612d8482612deb565b9150612d8f83612deb565b925082821015612da257612da1612f02565b5b828203905092915050565b6000612db882612dcb565b9050919050565b60008115159050919050565b600073ffffffffffffffffffffffffffffffffffffffff82169050919050565b6000819050919050565b600060ff82169050919050565b6000612e0d82612df5565b9050919050565b82818337600083830152505050565b60005b83811015612e41578082015181840152602081019050612e26565b83811115612e50576000848401525b50505050565b60006002820490506001821680612e6e57607f821691505b60208210811415612e8257612e81612f31565b5b50919050565b612e9182612f8f565b810181811067ffffffffffffffff82111715612eb057612eaf612f60565b5b80604052505050565b6000612ec482612deb565b91507fffffffffffffffffffffffffffffffffffffffffffffffffffffffffffffffff821415612ef757612ef6612f02565b5b600182019050919050565b7f4e487b7100000000000000000000000000000000000000000000000000000000600052601160045260246000fd5b7f4e487b7100000000000000000000000000000000000000000000000000000000600052602260045260246000fd5b7f4e487b7100000000000000000000000000000000000000000000000000000000600052604160045260246000fd5b6000601f19601f8301169050919050565b7f4f776e61626c653a206e6577206f776e657220697320746865207a65726f206160008201527f6464726573730000000000000000000000000000000000000000000000000000602082015250565b7f596f7520617265206e6f742067726f7570206f776e6572000000000000000000600082015250565b7f6d696e74206c696d697420697320696e76616c69640000000000000000000000600082015250565b7f496e697469616c697a61626c653a20636f6e747261637420697320616c72656160008201527f647920696e697469616c697a6564000000000000000000000000000000000000602082015250565b7f4e6f7420656e6f7567682076616c756500000000000000000000000000000000600082015250565b7f4f776e61626c653a2063616c6c6572206973206e6f7420746865206f776e6572600082015250565b7f72656c61796572206164647265737320697320626c616e6b0000000000000000600082015250565b50565b7f6d696e74206c696d697420697320300000000000000000000000000000000000600082015250565b7f6d696e74206e6674206164647265737320697320626c616e6b00000000000000600082015250565b7f496e697469616c697a61626c653a20636f6e7472616374206973206e6f74206960008201527f6e697469616c697a696e67000000000000000000000000000000000000000000602082015250565b7f7472616e73666572206661696c65640000000000000000000000000000000000600082015250565b6131e181612dad565b81146131ec57600080fd5b50565b6131f881612dbf565b811461320357600080fd5b50565b61320f81612deb565b811461321a57600080fd5b5056fea2646970667358221220ff696206af394257f9a1e222fd355932fee8b4354a1bae7abb4f59be205d4ac364736f6c63430008040033",
  "linkReferences": {},
  "deployedLinkReferences": {}
}