{
  "_format": "hh-sol-artifact-1",
  "contractName": "EventManagerv2",
  "sourceName": "contracts/event/Eventv2.sol",
  "abi": [
    {
      "anonymous": false,
      "inputs": [
        {
          "indexed": true,
          "internalType": "address",
          "name": "owner",
          "type": "address"
        },
        {
          "indexed": false,
          "internalType": "uint256",
          "name": "eventId",
          "type": "uint256"
        }
      ],
      "name": "CreatedEventId",
      "type": "event"
    },
    {
      "anonymous": false,
      "inputs": [
        {
          "indexed": true,
          "internalType": "address",
          "name": "owner",
          "type": "address"
        },
        {
          "indexed": false,
          "internalType": "uint256",
          "name": "groupId",
          "type": "uint256"
        }
      ],
      "name": "CreatedGroupId",
      "type": "event"
    },
    {
      "anonymous": false,
      "inputs": [
        {
          "indexed": false,
          "internalType": "uint8",
          "name": "version",
          "type": "uint8"
        }
      ],
      "name": "Initialized",
      "type": "event"
    },
    {
      "anonymous": false,
      "inputs": [
        {
          "indexed": true,
          "internalType": "address",
          "name": "previousOwner",
          "type": "address"
        },
        {
          "indexed": true,
          "internalType": "address",
          "name": "newOwner",
          "type": "address"
        }
      ],
      "name": "OwnershipTransferred",
      "type": "event"
    },
    {
      "inputs": [
        {
          "internalType": "uint256",
          "name": "_groupId",
          "type": "uint256"
        },
        {
          "internalType": "string",
          "name": "_name",
          "type": "string"
        },
        {
          "internalType": "string",
          "name": "_description",
          "type": "string"
        },
        {
          "internalType": "string",
          "name": "_date",
          "type": "string"
        },
        {
          "internalType": "uint256",
          "name": "_mintLimit",
          "type": "uint256"
        },
        {
          "internalType": "bool",
          "name": "_useMtx",
          "type": "bool"
        },
        {
          "components": [
            {
              "internalType": "uint256[2][2]",
              "name": "h",
              "type": "uint256[2][2]"
            },
            {
              "internalType": "uint256[2]",
              "name": "g_alpha",
              "type": "uint256[2]"
            },
            {
              "internalType": "uint256[2][2]",
              "name": "h_beta",
              "type": "uint256[2][2]"
            },
            {
              "internalType": "uint256[2]",
              "name": "g_gamma",
              "type": "uint256[2]"
            },
            {
              "internalType": "uint256[2][2]",
              "name": "h_gamma",
              "type": "uint256[2][2]"
            },
            {
              "internalType": "uint256[2][1]",
              "name": "query",
              "type": "uint256[2][1]"
            }
          ],
          "internalType": "struct IZkVerifier.VerifyingKeyPoint",
          "name": "_verifyingKeyPoint",
          "type": "tuple"
        },
        {
          "components": [
            {
              "internalType": "string",
              "name": "metaDataURL",
              "type": "string"
            },
            {
              "internalType": "uint256",
              "name": "requiredParticipateCount",
              "type": "uint256"
            }
          ],
          "internalType": "struct IMintNFTv2.NFTAttribute[]",
          "name": "_eventNFTAttributes",
          "type": "tuple[]"
        }
      ],
      "name": "createEventRecord",
      "outputs": [],
      "stateMutability": "payable",
      "type": "function"
    },
    {
      "inputs": [
        {
          "internalType": "string",
          "name": "_name",
          "type": "string"
        }
      ],
      "name": "createGroup",
      "outputs": [],
      "stateMutability": "nonpayable",
      "type": "function"
    },
    {
      "inputs": [
        {
          "internalType": "uint256",
          "name": "_eventId",
          "type": "uint256"
        }
      ],
      "name": "getEventById",
      "outputs": [
        {
          "components": [
            {
              "internalType": "uint256",
              "name": "eventRecordId",
              "type": "uint256"
            },
            {
              "internalType": "uint256",
              "name": "groupId",
              "type": "uint256"
            },
            {
              "internalType": "string",
              "name": "name",
              "type": "string"
            },
            {
              "internalType": "string",
              "name": "description",
              "type": "string"
            },
            {
              "internalType": "string",
              "name": "date",
              "type": "string"
            },
            {
              "internalType": "bool",
              "name": "useMtx",
              "type": "bool"
            }
          ],
          "internalType": "struct IEventManagerv2.EventRecord",
          "name": "",
          "type": "tuple"
        }
      ],
      "stateMutability": "view",
      "type": "function"
    },
    {
      "inputs": [],
      "name": "getEventRecords",
      "outputs": [
        {
          "components": [
            {
              "internalType": "uint256",
              "name": "eventRecordId",
              "type": "uint256"
            },
            {
              "internalType": "uint256",
              "name": "groupId",
              "type": "uint256"
            },
            {
              "internalType": "string",
              "name": "name",
              "type": "string"
            },
            {
              "internalType": "string",
              "name": "description",
              "type": "string"
            },
            {
              "internalType": "string",
              "name": "date",
              "type": "string"
            },
            {
              "internalType": "bool",
              "name": "useMtx",
              "type": "bool"
            }
          ],
          "internalType": "struct IEventManagerv2.EventRecord[]",
          "name": "",
          "type": "tuple[]"
        }
      ],
      "stateMutability": "view",
      "type": "function"
    },
    {
      "inputs": [
        {
          "internalType": "uint256",
          "name": "_groupId",
          "type": "uint256"
        }
      ],
      "name": "getGroupById",
      "outputs": [
        {
          "components": [
            {
              "internalType": "uint256",
              "name": "groupId",
              "type": "uint256"
            },
            {
              "internalType": "address",
              "name": "ownerAddress",
              "type": "address"
            },
            {
              "internalType": "string",
              "name": "name",
              "type": "string"
            }
          ],
          "internalType": "struct IEventManagerv2.Group",
          "name": "",
          "type": "tuple"
        }
      ],
      "stateMutability": "view",
      "type": "function"
    },
    {
      "inputs": [],
      "name": "getGroups",
      "outputs": [
        {
          "components": [
            {
              "internalType": "uint256",
              "name": "groupId",
              "type": "uint256"
            },
            {
              "internalType": "address",
              "name": "ownerAddress",
              "type": "address"
            },
            {
              "internalType": "string",
              "name": "name",
              "type": "string"
            }
          ],
          "internalType": "struct IEventManagerv2.Group[]",
          "name": "",
          "type": "tuple[]"
        }
      ],
      "stateMutability": "view",
      "type": "function"
    },
    {
      "inputs": [],
      "name": "getOwnGroups",
      "outputs": [
        {
          "components": [
            {
              "internalType": "uint256",
              "name": "groupId",
              "type": "uint256"
            },
            {
              "internalType": "address",
              "name": "ownerAddress",
              "type": "address"
            },
            {
              "internalType": "string",
              "name": "name",
              "type": "string"
            }
          ],
          "internalType": "struct IEventManagerv2.Group[]",
          "name": "",
          "type": "tuple[]"
        }
      ],
      "stateMutability": "view",
      "type": "function"
    },
    {
      "inputs": [
        {
          "internalType": "address",
          "name": "_relayerAddr",
          "type": "address"
        },
        {
          "internalType": "uint256",
          "name": "_mtxPrice",
          "type": "uint256"
        },
        {
          "internalType": "uint256",
          "name": "_maxMintLimit",
          "type": "uint256"
        }
      ],
      "name": "initialize",
      "outputs": [],
      "stateMutability": "nonpayable",
      "type": "function"
    },
    {
      "inputs": [],
      "name": "owner",
      "outputs": [
        {
          "internalType": "address",
          "name": "",
          "type": "address"
        }
      ],
      "stateMutability": "view",
      "type": "function"
    },
    {
      "inputs": [],
      "name": "renounceOwnership",
      "outputs": [],
      "stateMutability": "nonpayable",
      "type": "function"
    },
    {
      "inputs": [
        {
          "internalType": "uint256",
          "name": "_mintLimit",
          "type": "uint256"
        }
      ],
      "name": "setMaxMintLimit",
      "outputs": [],
      "stateMutability": "nonpayable",
      "type": "function"
    },
    {
      "inputs": [
        {
          "internalType": "address",
          "name": "_mintNftAddr",
          "type": "address"
        }
      ],
      "name": "setMintNFTAddr",
      "outputs": [],
      "stateMutability": "nonpayable",
      "type": "function"
    },
    {
      "inputs": [
        {
          "internalType": "uint256",
          "name": "_price",
          "type": "uint256"
        }
      ],
      "name": "setMtxPrice",
      "outputs": [],
      "stateMutability": "nonpayable",
      "type": "function"
    },
    {
      "inputs": [
        {
          "internalType": "address",
          "name": "_relayerAddr",
          "type": "address"
        }
      ],
      "name": "setRelayerAddr",
      "outputs": [],
      "stateMutability": "nonpayable",
      "type": "function"
    },
    {
      "inputs": [
        {
          "internalType": "address",
          "name": "newOwner",
          "type": "address"
        }
      ],
      "name": "transferOwnership",
      "outputs": [],
      "stateMutability": "nonpayable",
      "type": "function"
    }
  ],
  "bytecode": "0x608060405234801561001057600080fd5b506134c7806100206000396000f3fe6080604052600436106100e85760003560e01c80638da5cb5b1161008a578063d337483a11610059578063d337483a146102bf578063dc2ddcae146102ea578063f2fde38b14610313578063f926b50c1461033c576100e8565b80638da5cb5b14610201578063b98079bc1461022c578063be04cc3614610269578063c72b517614610294576100e8565b80636b1f7622116100c65780636b1f76221461015b5780636cc29ea014610184578063715018a6146101c15780637a1ac61e146101d8576100e8565b80631ac30e63146100ed57806337c81cd714610116578063561020d21461013f575b600080fd5b3480156100f957600080fd5b50610114600480360381019061010f9190612113565b610365565b005b34801561012257600080fd5b5061013d60048036038101906101389190612113565b610421565b005b610159600480360381019061015491906121f5565b6104dd565b005b34801561016757600080fd5b50610182600480360381019061017d91906121cc565b6109d9565b005b34801561019057600080fd5b506101ab60048036038101906101a691906121cc565b6109eb565b6040516101b89190612caa565b60405180910390f35b3480156101cd57600080fd5b506101d6610b57565b005b3480156101e457600080fd5b506101ff60048036038101906101fa919061213c565b610b6b565b005b34801561020d57600080fd5b50610216610cdb565b6040516102239190612aae565b60405180910390f35b34801561023857600080fd5b50610253600480360381019061024e91906121cc565b610d05565b6040516102609190612c88565b60405180910390f35b34801561027557600080fd5b5061027e610f64565b60405161028b9190612aeb565b60405180910390f35b3480156102a057600080fd5b506102a9611296565b6040516102b69190612aeb565b60405180910390f35b3480156102cb57600080fd5b506102d4611474565b6040516102e19190612ac9565b60405180910390f35b3480156102f657600080fd5b50610311600480360381019061030c919061218b565b611745565b005b34801561031f57600080fd5b5061033a60048036038101906103359190612113565b6118e1565b005b34801561034857600080fd5b50610363600480360381019061035e91906121cc565b611965565b005b61036d6119bb565b600073ffffffffffffffffffffffffffffffffffffffff168173ffffffffffffffffffffffffffffffffffffffff1614156103dd576040517f08c379a00000000000000000000000000000000000000000000000000000000081526004016103d490612c28565b60405180910390fd5b80606c60006101000a81548173ffffffffffffffffffffffffffffffffffffffff021916908373ffffffffffffffffffffffffffffffffffffffff16021790555050565b6104296119bb565b600073ffffffffffffffffffffffffffffffffffffffff168173ffffffffffffffffffffffffffffffffffffffff161415610499576040517f08c379a000000000000000000000000000000000000000000000000000000000815260040161049090612be8565b60405180910390fd5b80606d60006101000a81548173ffffffffffffffffffffffffffffffffffffffff021916908373ffffffffffffffffffffffffffffffffffffffff16021790555050565b6000841180156104ef5750606f548411155b61052e576040517f08c379a000000000000000000000000000000000000000000000000000000000815260040161052590612b68565b60405180910390fd5b6000805b606960003373ffffffffffffffffffffffffffffffffffffffff1673ffffffffffffffffffffffffffffffffffffffff1681526020019081526020016000208054905081101561061d5789606960003373ffffffffffffffffffffffffffffffffffffffff1673ffffffffffffffffffffffffffffffffffffffff16815260200190815260200160002082815481106105f4577f4e487b7100000000000000000000000000000000000000000000000000000000600052603260045260246000fd5b9060005260206000200154141561060a57600191505b80806106159061312d565b915050610532565b508061065e576040517f08c379a000000000000000000000000000000000000000000000000000000000815260040161065590612b48565b60405180910390fd5b8315610795576000606e543a876106759190612f93565b61067f9190612f93565b9050803410156106c4576040517f08c379a00000000000000000000000000000000000000000000000000000000081526004016106bb90612ba8565b60405180910390fd5b6000606d60009054906101000a900473ffffffffffffffffffffffffffffffffffffffff1673ffffffffffffffffffffffffffffffffffffffff163460405161070c90612a99565b60006040518083038185875af1925050503d8060008114610749576040519150601f19603f3d011682016040523d82523d6000602084013e61074e565b606091505b5050905080610792576040517f08c379a000000000000000000000000000000000000000000000000000000000815260040161078990612c68565b60405180910390fd5b50505b60006107a16065611a39565b90506107ad6065611a47565b60686040518060c001604052808381526020018c81526020018b81526020018a8152602001898152602001871515815250908060018154018082558091505060019003906000526020600020906006020160009091909190915060008201518160000155602082015181600101556040820151816002019080519060200190610837929190611c08565b506060820151816003019080519060200190610854929190611c08565b506080820151816004019080519060200190610871929190611c08565b5060a08201518160050160006101000a81548160ff02191690831515021790555050506000606c60009054906101000a900473ffffffffffffffffffffffffffffffffffffffff1690508073ffffffffffffffffffffffffffffffffffffffff16633c322164838988886040518563ffffffff1660e01b81526004016108fa9493929190612ce7565b600060405180830381600087803b15801561091457600080fd5b505af1158015610928573d6000803e3d6000fd5b50505050606a60008c81526020019081526020016000208290806001815401808255809150506001900390600052602060002001600090919091909150558a606b6000848152602001908152602001600020819055503373ffffffffffffffffffffffffffffffffffffffff167fc8b87f280db54680dd13061cca2f27d41d7bce9ece73f26fbee5fbb724a0c7d8836040516109c49190612ccc565b60405180910390a25050505050505050505050565b6109e16119bb565b80606e8190555050565b6109f3611c8e565b6000600183610a029190612fed565b9050600060678281548110610a40577f4e487b7100000000000000000000000000000000000000000000000000000000600052603260045260246000fd5b9060005260206000209060030201604051806060016040529081600082015481526020016001820160009054906101000a900473ffffffffffffffffffffffffffffffffffffffff1673ffffffffffffffffffffffffffffffffffffffff1673ffffffffffffffffffffffffffffffffffffffff168152602001600282018054610ac9906130ca565b80601f0160208091040260200160405190810160405280929190818152602001828054610af5906130ca565b8015610b425780601f10610b1757610100808354040283529160200191610b42565b820191906000526020600020905b815481529060010190602001808311610b2557829003601f168201915b50505050508152505090508092505050919050565b610b5f6119bb565b610b696000611a5d565b565b60008060019054906101000a900460ff16159050808015610b9c5750600160008054906101000a900460ff1660ff16105b80610bc95750610bab30611b23565b158015610bc85750600160008054906101000a900460ff1660ff16145b5b610c08576040517f08c379a0000000000000000000000000000000000000000000000000000000008152600401610bff90612b88565b60405180910390fd5b60016000806101000a81548160ff021916908360ff1602179055508015610c45576001600060016101000a81548160ff0219169083151502179055505b610c4d611b46565b610c576066611a47565b610c616065611a47565b610c6a84610421565b610c73836109d9565b610c7c82611965565b8015610cd55760008060016101000a81548160ff0219169083151502179055507f7f26b83ff96e1f2b6a682f133852f6798a09c465da95921460cefb38474024986001604051610ccc9190612b0d565b60405180910390a15b50505050565b6000603360009054906101000a900473ffffffffffffffffffffffffffffffffffffffff16905090565b610d0d611cc5565b6000600183610d1c9190612fed565b9050600060688281548110610d5a577f4e487b7100000000000000000000000000000000000000000000000000000000600052603260045260246000fd5b90600052602060002090600602016040518060c00160405290816000820154815260200160018201548152602001600282018054610d97906130ca565b80601f0160208091040260200160405190810160405280929190818152602001828054610dc3906130ca565b8015610e105780601f10610de557610100808354040283529160200191610e10565b820191906000526020600020905b815481529060010190602001808311610df357829003601f168201915b50505050508152602001600382018054610e29906130ca565b80601f0160208091040260200160405190810160405280929190818152602001828054610e55906130ca565b8015610ea25780601f10610e7757610100808354040283529160200191610ea2565b820191906000526020600020905b815481529060010190602001808311610e8557829003601f168201915b50505050508152602001600482018054610ebb906130ca565b80601f0160208091040260200160405190810160405280929190818152602001828054610ee7906130ca565b8015610f345780601f10610f0957610100808354040283529160200191610f34565b820191906000526020600020905b815481529060010190602001808311610f1757829003601f168201915b505050505081526020016005820160009054906101000a900460ff16151515158152505090508092505050919050565b60606000606960003373ffffffffffffffffffffffffffffffffffffffff1673ffffffffffffffffffffffffffffffffffffffff1681526020019081526020016000208054905090506000606780549050905060008267ffffffffffffffff811115610ff9577f4e487b7100000000000000000000000000000000000000000000000000000000600052604160045260246000fd5b60405190808252806020026020018201604052801561103257816020015b61101f611c8e565b8152602001906001900390816110175790505b5090506000805b8381101561128b573373ffffffffffffffffffffffffffffffffffffffff1660678281548110611092577f4e487b7100000000000000000000000000000000000000000000000000000000600052603260045260246000fd5b906000526020600020906003020160010160009054906101000a900473ffffffffffffffffffffffffffffffffffffffff1673ffffffffffffffffffffffffffffffffffffffff161415611278576067818154811061111a577f4e487b7100000000000000000000000000000000000000000000000000000000600052603260045260246000fd5b9060005260206000209060030201604051806060016040529081600082015481526020016001820160009054906101000a900473ffffffffffffffffffffffffffffffffffffffff1673ffffffffffffffffffffffffffffffffffffffff1673ffffffffffffffffffffffffffffffffffffffff1681526020016002820180546111a3906130ca565b80601f01602080910402602001604051908101604052809291908181526020018280546111cf906130ca565b801561121c5780601f106111f15761010080835404028352916020019161121c565b820191906000526020600020905b8154815290600101906020018083116111ff57829003601f168201915b50505050508152505083838151811061125e577f4e487b7100000000000000000000000000000000000000000000000000000000600052603260045260246000fd5b602002602001018190525081806112749061312d565b9250505b80806112839061312d565b915050611039565b508194505050505090565b60606000606780549050905060008167ffffffffffffffff8111156112e4577f4e487b7100000000000000000000000000000000000000000000000000000000600052604160045260246000fd5b60405190808252806020026020018201604052801561131d57816020015b61130a611c8e565b8152602001906001900390816113025790505b5090506067805480602002602001604051908101604052809291908181526020016000905b828210156114665783829060005260206000209060030201604051806060016040529081600082015481526020016001820160009054906101000a900473ffffffffffffffffffffffffffffffffffffffff1673ffffffffffffffffffffffffffffffffffffffff1673ffffffffffffffffffffffffffffffffffffffff1681526020016002820180546113d5906130ca565b80601f0160208091040260200160405190810160405280929190818152602001828054611401906130ca565b801561144e5780601f106114235761010080835404028352916020019161144e565b820191906000526020600020905b81548152906001019060200180831161143157829003601f168201915b50505050508152505081526020019060010190611342565b505050509050809250505090565b60606000606880549050905060008167ffffffffffffffff8111156114c2577f4e487b7100000000000000000000000000000000000000000000000000000000600052604160045260246000fd5b6040519080825280602002602001820160405280156114fb57816020015b6114e8611cc5565b8152602001906001900390816114e05790505b5090506068805480602002602001604051908101604052809291908181526020016000905b8282101561173757838290600052602060002090600602016040518060c00160405290816000820154815260200160018201548152602001600282018054611567906130ca565b80601f0160208091040260200160405190810160405280929190818152602001828054611593906130ca565b80156115e05780601f106115b5576101008083540402835291602001916115e0565b820191906000526020600020905b8154815290600101906020018083116115c357829003601f168201915b505050505081526020016003820180546115f9906130ca565b80601f0160208091040260200160405190810160405280929190818152602001828054611625906130ca565b80156116725780601f1061164757610100808354040283529160200191611672565b820191906000526020600020905b81548152906001019060200180831161165557829003601f168201915b5050505050815260200160048201805461168b906130ca565b80601f01602080910402602001604051908101604052809291908181526020018280546116b7906130ca565b80156117045780601f106116d957610100808354040283529160200191611704565b820191906000526020600020905b8154815290600101906020018083116116e757829003601f168201915b505050505081526020016005820160009054906101000a900460ff16151515158152505081526020019060010190611520565b505050509050809250505090565b60006117516066611a39565b905061175d6066611a47565b606760405180606001604052808381526020013373ffffffffffffffffffffffffffffffffffffffff1681526020018481525090806001815401808255809150506001900390600052602060002090600302016000909190919091506000820151816000015560208201518160010160006101000a81548173ffffffffffffffffffffffffffffffffffffffff021916908373ffffffffffffffffffffffffffffffffffffffff1602179055506040820151816002019080519060200190611826929190611c08565b505050606960003373ffffffffffffffffffffffffffffffffffffffff1673ffffffffffffffffffffffffffffffffffffffff1681526020019081526020016000208190806001815401808255809150506001900390600052602060002001600090919091909150553373ffffffffffffffffffffffffffffffffffffffff167f8fd7975dffff2a53bfe748adb09eacd0516344fb3db49dad60069d8b91c63654826040516118d59190612ccc565b60405180910390a25050565b6118e96119bb565b600073ffffffffffffffffffffffffffffffffffffffff168173ffffffffffffffffffffffffffffffffffffffff161415611959576040517f08c379a000000000000000000000000000000000000000000000000000000000815260040161195090612b28565b60405180910390fd5b61196281611a5d565b50565b61196d6119bb565b60008114156119b1576040517f08c379a00000000000000000000000000000000000000000000000000000000081526004016119a890612c08565b60405180910390fd5b80606f8190555050565b6119c3611b9f565b73ffffffffffffffffffffffffffffffffffffffff166119e1610cdb565b73ffffffffffffffffffffffffffffffffffffffff1614611a37576040517f08c379a0000000000000000000000000000000000000000000000000000000008152600401611a2e90612bc8565b60405180910390fd5b565b600081600001549050919050565b6001816000016000828254019250508190555050565b6000603360009054906101000a900473ffffffffffffffffffffffffffffffffffffffff16905081603360006101000a81548173ffffffffffffffffffffffffffffffffffffffff021916908373ffffffffffffffffffffffffffffffffffffffff1602179055508173ffffffffffffffffffffffffffffffffffffffff168173ffffffffffffffffffffffffffffffffffffffff167f8be0079c531659141344cd1fd0a4f28419497f9722a3daafe3b4186f6b6457e060405160405180910390a35050565b6000808273ffffffffffffffffffffffffffffffffffffffff163b119050919050565b600060019054906101000a900460ff16611b95576040517f08c379a0000000000000000000000000000000000000000000000000000000008152600401611b8c90612c48565b60405180910390fd5b611b9d611ba7565b565b600033905090565b600060019054906101000a900460ff16611bf6576040517f08c379a0000000000000000000000000000000000000000000000000000000008152600401611bed90612c48565b60405180910390fd5b611c06611c01611b9f565b611a5d565b565b828054611c14906130ca565b90600052602060002090601f016020900481019282611c365760008555611c7d565b82601f10611c4f57805160ff1916838001178555611c7d565b82800160010185558215611c7d579182015b82811115611c7c578251825591602001919060010190611c61565b5b509050611c8a9190611cfd565b5090565b604051806060016040528060008152602001600073ffffffffffffffffffffffffffffffffffffffff168152602001606081525090565b6040518060c0016040528060008152602001600081526020016060815260200160608152602001606081526020016000151581525090565b5b80821115611d16576000816000905550600101611cfe565b5090565b6000611d2d611d2884612d5a565b612d35565b90508082856040860282011115611d4357600080fd5b60005b85811015611d735781611d598882611f94565b845260208401935060408301925050600181019050611d46565b5050509392505050565b6000611d90611d8b84612d80565b612d35565b90508082856040860282011115611da657600080fd5b60005b85811015611dd65781611dbc8882611f94565b845260208401935060408301925050600181019050611da9565b5050509392505050565b6000611df3611dee84612da6565b612d35565b90508083825260208201905082856020860282011115611e1257600080fd5b60005b85811015611e5c57813567ffffffffffffffff811115611e3457600080fd5b808601611e418982611ffa565b85526020850194506020840193505050600181019050611e15565b5050509392505050565b6000611e79611e7484612dd2565b612d35565b90508082856020860282011115611e8f57600080fd5b60005b85811015611ebf5781611ea588826120fe565b845260208401935060208301925050600181019050611e92565b5050509392505050565b6000611edc611ed784612df8565b612d35565b905082815260208101848484011115611ef457600080fd5b611eff848285613088565b509392505050565b600081359050611f168161344c565b92915050565b600082601f830112611f2d57600080fd5b6001611f3a848285611d1a565b91505092915050565b600082601f830112611f5457600080fd5b6002611f61848285611d7d565b91505092915050565b600082601f830112611f7b57600080fd5b8135611f8b848260208601611de0565b91505092915050565b600082601f830112611fa557600080fd5b6002611fb2848285611e66565b91505092915050565b600081359050611fca81613463565b92915050565b600082601f830112611fe157600080fd5b8135611ff1848260208601611ec9565b91505092915050565b60006040828403121561200c57600080fd5b6120166040612d35565b9050600082013567ffffffffffffffff81111561203257600080fd5b61203e84828501611fd0565b6000830152506020612052848285016120fe565b60208301525092915050565b6000610240828403121561207157600080fd5b61207b60c0612d35565b9050600061208b84828501611f43565b600083015250608061209f84828501611f94565b60208301525060c06120b384828501611f43565b6040830152506101406120c884828501611f94565b6060830152506101806120dd84828501611f43565b6080830152506102006120f284828501611f1c565b60a08301525092915050565b60008135905061210d8161347a565b92915050565b60006020828403121561212557600080fd5b600061213384828501611f07565b91505092915050565b60008060006060848603121561215157600080fd5b600061215f86828701611f07565b9350506020612170868287016120fe565b9250506040612181868287016120fe565b9150509250925092565b60006020828403121561219d57600080fd5b600082013567ffffffffffffffff8111156121b757600080fd5b6121c384828501611fd0565b91505092915050565b6000602082840312156121de57600080fd5b60006121ec848285016120fe565b91505092915050565b600080600080600080600080610320898b03121561221257600080fd5b60006122208b828c016120fe565b985050602089013567ffffffffffffffff81111561223d57600080fd5b6122498b828c01611fd0565b975050604089013567ffffffffffffffff81111561226657600080fd5b6122728b828c01611fd0565b965050606089013567ffffffffffffffff81111561228f57600080fd5b61229b8b828c01611fd0565b95505060806122ac8b828c016120fe565b94505060a06122bd8b828c01611fbb565b93505060c06122ce8b828c0161205e565b92505061030089013567ffffffffffffffff8111156122ec57600080fd5b6122f88b828c01611f6a565b9150509295985092959890939650565b6000612314838361259f565b60408301905092915050565b600061232c83836127f1565b905092915050565b6000612340838361291f565b905092915050565b600061235483836129bf565b905092915050565b60006123688383612a7b565b60208301905092915050565b61237d81613021565b82525050565b61238c81613021565b82525050565b61239b81612e77565b6123a58184612f12565b92506123b082612e29565b8060005b838110156123e15781516123c88782612308565b96506123d383612ec4565b9250506001810190506123b4565b505050505050565b6123f281612e82565b6123fc8184612f1d565b925061240782612e33565b8060005b8381101561243857815161241f8782612308565b965061242a83612ed1565b92505060018101905061240b565b505050505050565b600061244b82612e8d565b6124558185612f28565b93508360208202850161246785612e3d565b8060005b858110156124a357848403895281516124848582612320565b945061248f83612ede565b925060208a0199505060018101905061246b565b50829750879550505050505092915050565b60006124c082612e98565b6124ca8185612f39565b9350836020820285016124dc85612e4d565b8060005b8581101561251857848403895281516124f98582612334565b945061250483612eeb565b925060208a019950506001810190506124e0565b50829750879550505050505092915050565b600061253582612ea3565b61253f8185612f4a565b93508360208202850161255185612e5d565b8060005b8581101561258d578484038952815161256e8582612348565b945061257983612ef8565b925060208a01995050600181019050612555565b50829750879550505050505092915050565b6125a881612eae565b6125b28184612f5b565b92506125bd82612e6d565b8060005b838110156125ee5781516125d5878261235c565b96506125e083612f05565b9250506001810190506125c1565b505050505050565b6125ff81613033565b82525050565b61260e81613076565b82525050565b600061261f82612eb9565b6126298185612f71565b9350612639818560208601613097565b61264281613203565b840191505092915050565b600061265a602683612f82565b915061266582613214565b604082019050919050565b600061267d601783612f82565b915061268882613263565b602082019050919050565b60006126a0601583612f82565b91506126ab8261328c565b602082019050919050565b60006126c3602e83612f82565b91506126ce826132b5565b604082019050919050565b60006126e6601083612f82565b91506126f182613304565b602082019050919050565b6000612709602083612f82565b91506127148261332d565b602082019050919050565b600061272c601883612f82565b915061273782613356565b602082019050919050565b600061274f600083612f66565b915061275a8261337f565b600082019050919050565b6000612772600f83612f82565b915061277d82613382565b602082019050919050565b6000612795601983612f82565b91506127a0826133ab565b602082019050919050565b60006127b8602b83612f82565b91506127c3826133d4565b604082019050919050565b60006127db600f83612f82565b91506127e682613423565b602082019050919050565b600060c0830160008301516128096000860182612a7b565b50602083015161281c6020860182612a7b565b50604083015184820360408601526128348282612614565b9150506060830151848203606086015261284e8282612614565b915050608083015184820360808601526128688282612614565b91505060a083015161287d60a08601826125f6565b508091505092915050565b600060c0830160008301516128a06000860182612a7b565b5060208301516128b36020860182612a7b565b50604083015184820360408601526128cb8282612614565b915050606083015184820360608601526128e58282612614565b915050608083015184820360808601526128ff8282612614565b91505060a083015161291460a08601826125f6565b508091505092915050565b60006060830160008301516129376000860182612a7b565b50602083015161294a6020860182612374565b50604083015184820360408601526129628282612614565b9150508091505092915050565b60006060830160008301516129876000860182612a7b565b50602083015161299a6020860182612374565b50604083015184820360408601526129b28282612614565b9150508091505092915050565b600060408301600083015184820360008601526129dc8282612614565b91505060208301516129f16020860182612a7b565b508091505092915050565b61024082016000820151612a1360008501826123e9565b506020820151612a26608085018261259f565b506040820151612a3960c08501826123e9565b506060820151612a4d61014085018261259f565b506080820151612a616101808501826123e9565b5060a0820151612a75610200850182612392565b50505050565b612a848161305f565b82525050565b612a938161305f565b82525050565b6000612aa482612742565b9150819050919050565b6000602082019050612ac36000830184612383565b92915050565b60006020820190508181036000830152612ae38184612440565b905092915050565b60006020820190508181036000830152612b0581846124b5565b905092915050565b6000602082019050612b226000830184612605565b92915050565b60006020820190508181036000830152612b418161264d565b9050919050565b60006020820190508181036000830152612b6181612670565b9050919050565b60006020820190508181036000830152612b8181612693565b9050919050565b60006020820190508181036000830152612ba1816126b6565b9050919050565b60006020820190508181036000830152612bc1816126d9565b9050919050565b60006020820190508181036000830152612be1816126fc565b9050919050565b60006020820190508181036000830152612c018161271f565b9050919050565b60006020820190508181036000830152612c2181612765565b9050919050565b60006020820190508181036000830152612c4181612788565b9050919050565b60006020820190508181036000830152612c61816127ab565b9050919050565b60006020820190508181036000830152612c81816127ce565b9050919050565b60006020820190508181036000830152612ca28184612888565b905092915050565b60006020820190508181036000830152612cc4818461296f565b905092915050565b6000602082019050612ce16000830184612a8a565b92915050565b60006102a082019050612cfd6000830187612a8a565b612d0a6020830186612a8a565b612d1760408301856129fc565b818103610280830152612d2a818461252a565b905095945050505050565b6000612d3f612d50565b9050612d4b82826130fc565b919050565b6000604051905090565b600067ffffffffffffffff821115612d7557612d746131d4565b5b602082029050919050565b600067ffffffffffffffff821115612d9b57612d9a6131d4565b5b602082029050919050565b600067ffffffffffffffff821115612dc157612dc06131d4565b5b602082029050602081019050919050565b600067ffffffffffffffff821115612ded57612dec6131d4565b5b602082029050919050565b600067ffffffffffffffff821115612e1357612e126131d4565b5b612e1c82613203565b9050602081019050919050565b6000819050919050565b6000819050919050565b6000819050602082019050919050565b6000819050602082019050919050565b6000819050602082019050919050565b6000819050919050565b600060019050919050565b600060029050919050565b600081519050919050565b600081519050919050565b600081519050919050565b600060029050919050565b600081519050919050565b6000602082019050919050565b6000602082019050919050565b6000602082019050919050565b6000602082019050919050565b6000602082019050919050565b6000602082019050919050565b600081905092915050565b600081905092915050565b600082825260208201905092915050565b600082825260208201905092915050565b600082825260208201905092915050565b600081905092915050565b600081905092915050565b600082825260208201905092915050565b600082825260208201905092915050565b6000612f9e8261305f565b9150612fa98361305f565b9250817fffffffffffffffffffffffffffffffffffffffffffffffffffffffffffffffff0483118215151615612fe257612fe1613176565b5b828202905092915050565b6000612ff88261305f565b91506130038361305f565b92508282101561301657613015613176565b5b828203905092915050565b600061302c8261303f565b9050919050565b60008115159050919050565b600073ffffffffffffffffffffffffffffffffffffffff82169050919050565b6000819050919050565b600060ff82169050919050565b600061308182613069565b9050919050565b82818337600083830152505050565b60005b838110156130b557808201518184015260208101905061309a565b838111156130c4576000848401525b50505050565b600060028204905060018216806130e257607f821691505b602082108114156130f6576130f56131a5565b5b50919050565b61310582613203565b810181811067ffffffffffffffff82111715613124576131236131d4565b5b80604052505050565b60006131388261305f565b91507fffffffffffffffffffffffffffffffffffffffffffffffffffffffffffffffff82141561316b5761316a613176565b5b600182019050919050565b7f4e487b7100000000000000000000000000000000000000000000000000000000600052601160045260246000fd5b7f4e487b7100000000000000000000000000000000000000000000000000000000600052602260045260246000fd5b7f4e487b7100000000000000000000000000000000000000000000000000000000600052604160045260246000fd5b6000601f19601f8301169050919050565b7f4f776e61626c653a206e6577206f776e657220697320746865207a65726f206160008201527f6464726573730000000000000000000000000000000000000000000000000000602082015250565b7f596f7520617265206e6f742067726f7570206f776e6572000000000000000000600082015250565b7f6d696e74206c696d697420697320696e76616c69640000000000000000000000600082015250565b7f496e697469616c697a61626c653a20636f6e747261637420697320616c72656160008201527f647920696e697469616c697a6564000000000000000000000000000000000000602082015250565b7f4e6f7420656e6f7567682076616c756500000000000000000000000000000000600082015250565b7f4f776e61626c653a2063616c6c6572206973206e6f7420746865206f776e6572600082015250565b7f72656c61796572206164647265737320697320626c616e6b0000000000000000600082015250565b50565b7f6d696e74206c696d697420697320300000000000000000000000000000000000600082015250565b7f6d696e74206e6674206164647265737320697320626c616e6b00000000000000600082015250565b7f496e697469616c697a61626c653a20636f6e7472616374206973206e6f74206960008201527f6e697469616c697a696e67000000000000000000000000000000000000000000602082015250565b7f7472616e73666572206661696c65640000000000000000000000000000000000600082015250565b61345581613021565b811461346057600080fd5b50565b61346c81613033565b811461347757600080fd5b50565b6134838161305f565b811461348e57600080fd5b5056fea2646970667358221220fec67da4397774fb3f6919cddde1c82fd512275435bdc56a416889542d12233764736f6c63430008040033",
  "linkReferences": {},
  "deployedLinkReferences": {}
}