{
  "_format": "hh-sol-artifact-1",
  "contractName": "MintNFTv2",
  "sourceName": "contracts/mintnft/MintNFTv2.sol",
  "abi": [
    {
      "anonymous": false,
      "inputs": [
        {
          "indexed": true,
          "internalType": "address",
          "name": "owner",
          "type": "address"
        },
        {
          "indexed": true,
          "internalType": "address",
          "name": "approved",
          "type": "address"
        },
        {
          "indexed": true,
          "internalType": "uint256",
          "name": "tokenId",
          "type": "uint256"
        }
      ],
      "name": "Approval",
      "type": "event"
    },
    {
      "anonymous": false,
      "inputs": [
        {
          "indexed": true,
          "internalType": "address",
          "name": "owner",
          "type": "address"
        },
        {
          "indexed": true,
          "internalType": "address",
          "name": "operator",
          "type": "address"
        },
        {
          "indexed": false,
          "internalType": "bool",
          "name": "approved",
          "type": "bool"
        }
      ],
      "name": "ApprovalForAll",
      "type": "event"
    },
    {
      "anonymous": false,
      "inputs": [
        {
          "indexed": false,
          "internalType": "uint8",
          "name": "version",
          "type": "uint8"
        }
      ],
      "name": "Initialized",
      "type": "event"
    },
    {
      "anonymous": false,
      "inputs": [
        {
          "indexed": true,
          "internalType": "address",
          "name": "holder",
          "type": "address"
        },
        {
          "indexed": false,
          "internalType": "string",
          "name": "url",
          "type": "string"
        }
      ],
      "name": "MintedNFTAttributeURL",
      "type": "event"
    },
    {
      "anonymous": false,
      "inputs": [
        {
          "indexed": true,
          "internalType": "address",
          "name": "previousOwner",
          "type": "address"
        },
        {
          "indexed": true,
          "internalType": "address",
          "name": "newOwner",
          "type": "address"
        }
      ],
      "name": "OwnershipTransferred",
      "type": "event"
    },
    {
      "anonymous": false,
      "inputs": [
        {
          "indexed": true,
          "internalType": "address",
          "name": "from",
          "type": "address"
        },
        {
          "indexed": true,
          "internalType": "address",
          "name": "to",
          "type": "address"
        },
        {
          "indexed": true,
          "internalType": "uint256",
          "name": "tokenId",
          "type": "uint256"
        }
      ],
      "name": "Transfer",
      "type": "event"
    },
    {
      "inputs": [
        {
          "internalType": "address",
          "name": "to",
          "type": "address"
        },
        {
          "internalType": "uint256",
          "name": "tokenId",
          "type": "uint256"
        }
      ],
      "name": "approve",
      "outputs": [],
      "stateMutability": "nonpayable",
      "type": "function"
    },
    {
      "inputs": [
        {
          "internalType": "address",
          "name": "owner",
          "type": "address"
        }
      ],
      "name": "balanceOf",
      "outputs": [
        {
          "internalType": "uint256",
          "name": "",
          "type": "uint256"
        }
      ],
      "stateMutability": "view",
      "type": "function"
    },
    {
      "inputs": [
        {
          "internalType": "uint256",
          "name": "tokenId",
          "type": "uint256"
        }
      ],
      "name": "burn",
      "outputs": [],
      "stateMutability": "nonpayable",
      "type": "function"
    },
    {
      "inputs": [
        {
          "internalType": "uint256",
          "name": "_eventId",
          "type": "uint256"
        },
        {
          "components": [
            {
              "components": [
                {
                  "internalType": "uint256",
                  "name": "X",
                  "type": "uint256"
                },
                {
                  "internalType": "uint256",
                  "name": "Y",
                  "type": "uint256"
                }
              ],
              "internalType": "struct Pairing.G1Point",
              "name": "a",
              "type": "tuple"
            },
            {
              "components": [
                {
                  "internalType": "uint256[2]",
                  "name": "X",
                  "type": "uint256[2]"
                },
                {
                  "internalType": "uint256[2]",
                  "name": "Y",
                  "type": "uint256[2]"
                }
              ],
              "internalType": "struct Pairing.G2Point",
              "name": "b",
              "type": "tuple"
            },
            {
              "components": [
                {
                  "internalType": "uint256",
                  "name": "X",
                  "type": "uint256"
                },
                {
                  "internalType": "uint256",
                  "name": "Y",
                  "type": "uint256"
                }
              ],
              "internalType": "struct Pairing.G1Point",
              "name": "c",
              "type": "tuple"
            }
          ],
          "internalType": "struct IZkVerifier.Proof",
          "name": "_proof",
          "type": "tuple"
        }
      ],
      "name": "canMint",
      "outputs": [
        {
          "internalType": "bool",
          "name": "",
          "type": "bool"
        }
      ],
      "stateMutability": "view",
      "type": "function"
    },
    {
      "inputs": [
        {
          "internalType": "uint256",
          "name": "tokenId",
          "type": "uint256"
        }
      ],
      "name": "getApproved",
      "outputs": [
        {
          "internalType": "address",
          "name": "",
          "type": "address"
        }
      ],
      "stateMutability": "view",
      "type": "function"
    },
    {
      "inputs": [
        {
          "internalType": "uint256",
          "name": "_eventId",
          "type": "uint256"
        }
      ],
      "name": "getRemainingNFTCount",
      "outputs": [
        {
          "internalType": "uint256",
          "name": "",
          "type": "uint256"
        }
      ],
      "stateMutability": "view",
      "type": "function"
    },
    {
      "inputs": [
        {
          "internalType": "address",
          "name": "_zkVerifierAddress",
          "type": "address"
        }
      ],
      "name": "initialize",
      "outputs": [],
      "stateMutability": "nonpayable",
      "type": "function"
    },
    {
      "inputs": [
        {
          "internalType": "address",
          "name": "owner",
          "type": "address"
        },
        {
          "internalType": "address",
          "name": "operator",
          "type": "address"
        }
      ],
      "name": "isApprovedForAll",
      "outputs": [
        {
          "internalType": "bool",
          "name": "",
          "type": "bool"
        }
      ],
      "stateMutability": "view",
      "type": "function"
    },
    {
      "inputs": [
        {
          "internalType": "address",
          "name": "forwarder",
          "type": "address"
        }
      ],
      "name": "isTrustedForwarder",
      "outputs": [
        {
          "internalType": "bool",
          "name": "",
          "type": "bool"
        }
      ],
      "stateMutability": "view",
      "type": "function"
    },
    {
      "inputs": [
        {
          "internalType": "uint256",
          "name": "_groupId",
          "type": "uint256"
        },
        {
          "internalType": "uint256",
          "name": "_eventId",
          "type": "uint256"
        },
        {
          "components": [
            {
              "components": [
                {
                  "internalType": "uint256",
                  "name": "X",
                  "type": "uint256"
                },
                {
                  "internalType": "uint256",
                  "name": "Y",
                  "type": "uint256"
                }
              ],
              "internalType": "struct Pairing.G1Point",
              "name": "a",
              "type": "tuple"
            },
            {
              "components": [
                {
                  "internalType": "uint256[2]",
                  "name": "X",
                  "type": "uint256[2]"
                },
                {
                  "internalType": "uint256[2]",
                  "name": "Y",
                  "type": "uint256[2]"
                }
              ],
              "internalType": "struct Pairing.G2Point",
              "name": "b",
              "type": "tuple"
            },
            {
              "components": [
                {
                  "internalType": "uint256",
                  "name": "X",
                  "type": "uint256"
                },
                {
                  "internalType": "uint256",
                  "name": "Y",
                  "type": "uint256"
                }
              ],
              "internalType": "struct Pairing.G1Point",
              "name": "c",
              "type": "tuple"
            }
          ],
          "internalType": "struct IZkVerifier.Proof",
          "name": "_proof",
          "type": "tuple"
        }
      ],
      "name": "mintParticipateNFT",
      "outputs": [],
      "stateMutability": "nonpayable",
      "type": "function"
    },
    {
      "inputs": [],
      "name": "name",
      "outputs": [
        {
          "internalType": "string",
          "name": "",
          "type": "string"
        }
      ],
      "stateMutability": "view",
      "type": "function"
    },
    {
      "inputs": [],
      "name": "owner",
      "outputs": [
        {
          "internalType": "address",
          "name": "",
          "type": "address"
        }
      ],
      "stateMutability": "view",
      "type": "function"
    },
    {
      "inputs": [
        {
          "internalType": "uint256",
          "name": "tokenId",
          "type": "uint256"
        }
      ],
      "name": "ownerOf",
      "outputs": [
        {
          "internalType": "address",
          "name": "",
          "type": "address"
        }
      ],
      "stateMutability": "view",
      "type": "function"
    },
    {
      "inputs": [],
      "name": "renounceOwnership",
      "outputs": [],
      "stateMutability": "nonpayable",
      "type": "function"
    },
    {
      "inputs": [
        {
          "internalType": "address",
          "name": "from",
          "type": "address"
        },
        {
          "internalType": "address",
          "name": "to",
          "type": "address"
        },
        {
          "internalType": "uint256",
          "name": "tokenId",
          "type": "uint256"
        }
      ],
      "name": "safeTransferFrom",
      "outputs": [],
      "stateMutability": "nonpayable",
      "type": "function"
    },
    {
      "inputs": [
        {
          "internalType": "address",
          "name": "from",
          "type": "address"
        },
        {
          "internalType": "address",
          "name": "to",
          "type": "address"
        },
        {
          "internalType": "uint256",
          "name": "tokenId",
          "type": "uint256"
        },
        {
          "internalType": "bytes",
          "name": "data",
          "type": "bytes"
        }
      ],
      "name": "safeTransferFrom",
      "outputs": [],
      "stateMutability": "nonpayable",
      "type": "function"
    },
    {
      "inputs": [
        {
          "internalType": "address",
          "name": "operator",
          "type": "address"
        },
        {
          "internalType": "bool",
          "name": "approved",
          "type": "bool"
        }
      ],
      "name": "setApprovalForAll",
      "outputs": [],
      "stateMutability": "nonpayable",
      "type": "function"
    },
    {
      "inputs": [
        {
          "internalType": "uint256",
          "name": "_eventId",
          "type": "uint256"
        },
        {
          "internalType": "uint256",
          "name": "_mintLimit",
          "type": "uint256"
        },
        {
          "components": [
            {
              "internalType": "uint256[2][2]",
              "name": "h",
              "type": "uint256[2][2]"
            },
            {
              "internalType": "uint256[2]",
              "name": "g_alpha",
              "type": "uint256[2]"
            },
            {
              "internalType": "uint256[2][2]",
              "name": "h_beta",
              "type": "uint256[2][2]"
            },
            {
              "internalType": "uint256[2]",
              "name": "g_gamma",
              "type": "uint256[2]"
            },
            {
              "internalType": "uint256[2][2]",
              "name": "h_gamma",
              "type": "uint256[2][2]"
            },
            {
              "internalType": "uint256[2][1]",
              "name": "query",
              "type": "uint256[2][1]"
            }
          ],
          "internalType": "struct IZkVerifier.VerifyingKeyPoint",
          "name": "_verifyingKeyPoint",
          "type": "tuple"
        },
        {
          "components": [
            {
              "internalType": "string",
              "name": "metaDataURL",
              "type": "string"
            },
            {
              "internalType": "uint256",
              "name": "requiredParticipateCount",
              "type": "uint256"
            }
          ],
          "internalType": "struct IMintNFTv2.NFTAttribute[]",
          "name": "attributes",
          "type": "tuple[]"
        }
      ],
      "name": "setEventInfo",
      "outputs": [],
      "stateMutability": "nonpayable",
      "type": "function"
    },
    {
      "inputs": [
        {
          "internalType": "address",
          "name": "_addr",
          "type": "address"
        }
      ],
      "name": "setEventManagerAddr",
      "outputs": [],
      "stateMutability": "nonpayable",
      "type": "function"
    },
    {
      "inputs": [
        {
          "internalType": "address",
          "name": "_addr",
          "type": "address"
        }
      ],
      "name": "setZkVerifier",
      "outputs": [],
      "stateMutability": "nonpayable",
      "type": "function"
    },
    {
      "inputs": [
        {
          "internalType": "bytes4",
          "name": "interfaceId",
          "type": "bytes4"
        }
      ],
      "name": "supportsInterface",
      "outputs": [
        {
          "internalType": "bool",
          "name": "",
          "type": "bool"
        }
      ],
      "stateMutability": "view",
      "type": "function"
    },
    {
      "inputs": [],
      "name": "symbol",
      "outputs": [
        {
          "internalType": "string",
          "name": "",
          "type": "string"
        }
      ],
      "stateMutability": "view",
      "type": "function"
    },
    {
      "inputs": [
        {
          "internalType": "uint256",
          "name": "index",
          "type": "uint256"
        }
      ],
      "name": "tokenByIndex",
      "outputs": [
        {
          "internalType": "uint256",
          "name": "",
          "type": "uint256"
        }
      ],
      "stateMutability": "view",
      "type": "function"
    },
    {
      "inputs": [
        {
          "internalType": "address",
          "name": "owner",
          "type": "address"
        },
        {
          "internalType": "uint256",
          "name": "index",
          "type": "uint256"
        }
      ],
      "name": "tokenOfOwnerByIndex",
      "outputs": [
        {
          "internalType": "uint256",
          "name": "",
          "type": "uint256"
        }
      ],
      "stateMutability": "view",
      "type": "function"
    },
    {
      "inputs": [
        {
          "internalType": "uint256",
          "name": "_tokenId",
          "type": "uint256"
        }
      ],
      "name": "tokenURI",
      "outputs": [
        {
          "internalType": "string",
          "name": "",
          "type": "string"
        }
      ],
      "stateMutability": "view",
      "type": "function"
    },
    {
      "inputs": [],
      "name": "totalSupply",
      "outputs": [
        {
          "internalType": "uint256",
          "name": "",
          "type": "uint256"
        }
      ],
      "stateMutability": "view",
      "type": "function"
    },
    {
      "inputs": [
        {
          "internalType": "address",
          "name": "from",
          "type": "address"
        },
        {
          "internalType": "address",
          "name": "to",
          "type": "address"
        },
        {
          "internalType": "uint256",
          "name": "tokenId",
          "type": "uint256"
        }
      ],
      "name": "transferFrom",
      "outputs": [],
      "stateMutability": "nonpayable",
      "type": "function"
    },
    {
      "inputs": [
        {
          "internalType": "address",
          "name": "newOwner",
          "type": "address"
        }
      ],
      "name": "transferOwnership",
      "outputs": [],
      "stateMutability": "nonpayable",
      "type": "function"
    }
  ],
  "bytecode": "0x608060405234801561001057600080fd5b50614bb1806100206000396000f3fe608060405234801561001057600080fd5b50600436106101c45760003560e01c806370a08231116100f9578063b88d4fde11610097578063c4d66de811610071578063c4d66de814610513578063c87b56dd1461052f578063e985e9c51461055f578063f2fde38b1461058f576101c4565b8063b88d4fde146104ab578063bb7607dd146104c7578063c417e3f4146104e3576101c4565b80639041e3f4116100d35780639041e3f41461043957806395d89b41146104555780639691352814610473578063a22cb4651461048f576101c4565b806370a08231146103e1578063715018a6146104115780638da5cb5b1461041b576101c4565b80633c322164116101665780634f6ccce7116101405780634f6ccce7146103215780634ffc9f4b14610351578063572b6c05146103815780636352211e146103b1576101c4565b80633c322164146102cd57806342842e0e146102e957806342966c6814610305576101c4565b8063095ea7b3116101a2578063095ea7b31461024757806318160ddd1461026357806323b872dd146102815780632f745c591461029d576101c4565b806301ffc9a7146101c957806306fdde03146101f9578063081812fc14610217575b600080fd5b6101e360048036038101906101de91906134a4565b6105ab565b6040516101f09190613daa565b60405180910390f35b610201610625565b60405161020e9190613dc5565b60405180910390f35b610231600480360381019061022c91906134f6565b6106b7565b60405161023e9190613d43565b60405180910390f35b610261600480360381019061025c919061343f565b6106fd565b005b61026b610815565b60405161027891906140fd565b60405180910390f35b61029b60048036038101906102969190613339565b610822565b005b6102b760048036038101906102b2919061343f565b610882565b6040516102c491906140fd565b60405180910390f35b6102e760048036038101906102e291906135ac565b610927565b005b61030360048036038101906102fe9190613339565b610b4e565b005b61031f600480360381019061031a91906134f6565b610b6e565b005b61033b600480360381019061033691906134f6565b610b82565b60405161034891906140fd565b60405180910390f35b61036b600480360381019061036691906134f6565b610c19565b60405161037891906140fd565b60405180910390f35b61039b600480360381019061039691906132d4565b610c37565b6040516103a89190613daa565b60405180910390f35b6103cb60048036038101906103c691906134f6565b610c91565b6040516103d89190613d43565b60405180910390f35b6103fb60048036038101906103f691906132d4565b610d43565b60405161040891906140fd565b60405180910390f35b610419610dfb565b005b610423610e0f565b6040516104309190613d43565b60405180910390f35b610453600480360381019061044e91906132d4565b610e39565b005b61045d610ef6565b60405161046a9190613dc5565b60405180910390f35b61048d600480360381019061048891906132d4565b610f88565b005b6104a960048036038101906104a49190613403565b611045565b005b6104c560048036038101906104c09190613388565b61105b565b005b6104e160048036038101906104dc919061355c565b6110bd565b005b6104fd60048036038101906104f8919061351f565b611488565b60405161050a9190613daa565b60405180910390f35b61052d600480360381019061052891906132d4565b611656565b005b610549600480360381019061054491906134f6565b611759565b6040516105569190613dc5565b60405180910390f35b610579600480360381019061057491906132fd565b611805565b6040516105869190613daa565b60405180910390f35b6105a960048036038101906105a491906132d4565b611899565b005b60007f780e9d63000000000000000000000000000000000000000000000000000000007bffffffffffffffffffffffffffffffffffffffffffffffffffffffff1916827bffffffffffffffffffffffffffffffffffffffffffffffffffffffff1916148061061e575061061d8261191d565b5b9050919050565b6060606580546106349061446f565b80601f01602080910402602001604051908101604052809291908181526020018280546106609061446f565b80156106ad5780601f10610682576101008083540402835291602001916106ad565b820191906000526020600020905b81548152906001019060200180831161069057829003601f168201915b5050505050905090565b60006106c2826119ff565b6069600083815260200190815260200160002060009054906101000a900473ffffffffffffffffffffffffffffffffffffffff169050919050565b600061070882610c91565b90508073ffffffffffffffffffffffffffffffffffffffff168373ffffffffffffffffffffffffffffffffffffffff161415610779576040517f08c379a000000000000000000000000000000000000000000000000000000000815260040161077090614007565b60405180910390fd5b8073ffffffffffffffffffffffffffffffffffffffff16610798611a4a565b73ffffffffffffffffffffffffffffffffffffffff1614806107c757506107c6816107c1611a4a565b611805565b5b610806576040517f08c379a00000000000000000000000000000000000000000000000000000000081526004016107fd90613f87565b60405180910390fd5b6108108383611a7c565b505050565b6000609980549050905090565b61083361082d611a4a565b82611b35565b610872576040517f08c379a000000000000000000000000000000000000000000000000000000000815260040161086990614087565b60405180910390fd5b61087d838383611bca565b505050565b600061088d83610d43565b82106108ce576040517f08c379a00000000000000000000000000000000000000000000000000000000081526004016108c590613e07565b60405180910390fd5b609760008473ffffffffffffffffffffffffffffffffffffffff1673ffffffffffffffffffffffffffffffffffffffff168152602001908152602001600020600083815260200190815260200160002054905092915050565b61012f60009054906101000a900473ffffffffffffffffffffffffffffffffffffffff1673ffffffffffffffffffffffffffffffffffffffff16610969611a4a565b73ffffffffffffffffffffffffffffffffffffffff16146109bf576040517f08c379a00000000000000000000000000000000000000000000000000000000081526004016109b690614027565b60405180910390fd5b82610134600086815260200190815260200160002081905550600061013660009054906101000a900473ffffffffffffffffffffffffffffffffffffffff1690508073ffffffffffffffffffffffffffffffffffffffff16638119259684876040518363ffffffff1660e01b8152600401610a3b9291906140d2565b600060405180830381600087803b158015610a5557600080fd5b505af1158015610a69573d6000803e3d6000fd5b5050505060005b8251811015610b4657828181518110610ab2577f4e487b7100000000000000000000000000000000000000000000000000000000600052603260045260246000fd5b6020026020010151600001516101336000610b1189878681518110610b00577f4e487b7100000000000000000000000000000000000000000000000000000000600052603260045260246000fd5b602002602001015160200151611e31565b81526020019081526020016000209080519060200190610b32929190612c98565b508080610b3e906144d2565b915050610a70565b505050505050565b610b698383836040518060200160405280600081525061105b565b505050565b610b76611e64565b610b7f81611ee2565b50565b6000610b8c610815565b8210610bcd576040517f08c379a0000000000000000000000000000000000000000000000000000000008152600401610bc490614047565b60405180910390fd5b60998281548110610c07577f4e487b7100000000000000000000000000000000000000000000000000000000600052603260045260246000fd5b90600052602060002001549050919050565b60006101346000838152602001908152602001600020549050919050565b600060c960009054906101000a900473ffffffffffffffffffffffffffffffffffffffff1673ffffffffffffffffffffffffffffffffffffffff168273ffffffffffffffffffffffffffffffffffffffff16149050919050565b6000806067600084815260200190815260200160002060009054906101000a900473ffffffffffffffffffffffffffffffffffffffff169050600073ffffffffffffffffffffffffffffffffffffffff168173ffffffffffffffffffffffffffffffffffffffff161415610d3a576040517f08c379a0000000000000000000000000000000000000000000000000000000008152600401610d3190613fe7565b60405180910390fd5b80915050919050565b60008073ffffffffffffffffffffffffffffffffffffffff168273ffffffffffffffffffffffffffffffffffffffff161415610db4576040517f08c379a0000000000000000000000000000000000000000000000000000000008152600401610dab90613f27565b60405180910390fd5b606860008373ffffffffffffffffffffffffffffffffffffffff1673ffffffffffffffffffffffffffffffffffffffff168152602001908152602001600020549050919050565b610e03611e64565b610e0d6000611fff565b565b600060fc60009054906101000a900473ffffffffffffffffffffffffffffffffffffffff16905090565b610e41611e64565b600073ffffffffffffffffffffffffffffffffffffffff168173ffffffffffffffffffffffffffffffffffffffff161415610eb1576040517f08c379a0000000000000000000000000000000000000000000000000000000008152600401610ea890614067565b60405180910390fd5b8061012f60006101000a81548173ffffffffffffffffffffffffffffffffffffffff021916908373ffffffffffffffffffffffffffffffffffffffff16021790555050565b606060668054610f059061446f565b80601f0160208091040260200160405190810160405280929190818152602001828054610f319061446f565b8015610f7e5780601f10610f5357610100808354040283529160200191610f7e565b820191906000526020600020905b815481529060010190602001808311610f6157829003601f168201915b5050505050905090565b610f90611e64565b600073ffffffffffffffffffffffffffffffffffffffff168173ffffffffffffffffffffffffffffffffffffffff161415611000576040517f08c379a0000000000000000000000000000000000000000000000000000000008152600401610ff790613f47565b60405180910390fd5b8061013660006101000a81548173ffffffffffffffffffffffffffffffffffffffff021916908373ffffffffffffffffffffffffffffffffffffffff16021790555050565b611057611050611a4a565b83836120c5565b5050565b61106c611066611a4a565b83611b35565b6110ab576040517f08c379a00000000000000000000000000000000000000000000000000000000081526004016110a290614087565b60405180910390fd5b6110b784848484612232565b50505050565b6110c78282611488565b50600061013660009054906101000a900473ffffffffffffffffffffffffffffffffffffffff1690508073ffffffffffffffffffffffffffffffffffffffff1663b531b60483856040518363ffffffff1660e01b815260040161112b9291906140a7565b600060405180830381600087803b15801561114557600080fd5b505af1158015611159573d6000803e3d6000fd5b50505050600161013460008581526020019081526020016000205461117e9190614378565b610134600085815260200190815260200160002081905550600161013160006111ae6111a8611a4a565b8761228e565b815260200190815260200160002060006101000a81548160ff02191690831515021790555060006111e66111e0611a4a565b8661228e565b90506000610132600083815260200190815260200160002054905060018161120e9190614322565b61013260008481526020019081526020016000208190555060006101336000611238886000611e31565b815260200190815260200160002080546112519061446f565b80601f016020809104026020016040519081016040528092919081815260200182805461127d9061446f565b80156112ca5780601f1061129f576101008083540402835291602001916112ca565b820191906000526020600020905b8154815290600101906020018083116112ad57829003601f168201915b50505050509050600061013360006112e28986611e31565b815260200190815260200160002080546112fb9061446f565b80601f01602080910402602001604051908101604052809291908181526020018280546113279061446f565b80156113745780601f1061134957610100808354040283529160200191611374565b820191906000526020600020905b81548152906001019060200180831161135757829003601f168201915b5050505050905060405160200161138a90613d02565b60405160208183030381529060405280519060200120816040516020016113b19190613ceb565b60405160208183030381529060405280519060200120146113d0578091505b8161013060006113e161012e6122c1565b81526020019081526020016000209080519060200190611402929190612c98565b5061141e61140e611a4a565b61141961012e6122c1565b6122cf565b61142961012e6122ed565b611431611a4a565b73ffffffffffffffffffffffffffffffffffffffff167faf2fad1984d2c7abaa9300537cf9fe1bcfaf2d6226e4ffdf03522dbf3064808e836040516114769190613dc5565b60405180910390a25050505050505050565b60008061013660009054906101000a900473ffffffffffffffffffffffffffffffffffffffff1690508073ffffffffffffffffffffffffffffffffffffffff1663ad13171b84866040518363ffffffff1660e01b81526004016114ec9291906140a7565b60206040518083038186803b15801561150457600080fd5b505afa158015611518573d6000803e3d6000fd5b505050506040513d601f19601f8201168201806040525081019061153c919061347b565b61157b576040517f08c379a000000000000000000000000000000000000000000000000000000000815260040161157290613ec7565b60405180910390fd5b600061013460008681526020019081526020016000205414156115d3576040517f08c379a00000000000000000000000000000000000000000000000000000000081526004016115ca90613de7565b60405180910390fd5b600061013160006115eb6115e5611a4a565b8861228e565b815260200190815260200160002060009054906101000a900460ff169050801561164a576040517f08c379a000000000000000000000000000000000000000000000000000000000815260040161164190613e87565b60405180910390fd5b60019250505092915050565b6002600060019054906101000a900460ff1615801561168757508060ff1660008054906101000a900460ff1660ff16105b6116c6576040517f08c379a00000000000000000000000000000000000000000000000000000000081526004016116bd90613f67565b60405180910390fd5b806000806101000a81548160ff021916908360ff1602179055506001600060016101000a81548160ff02191690831515021790555061170482610f88565b60008060016101000a81548160ff0219169083151502179055507f7f26b83ff96e1f2b6a682f133852f6798a09c465da95921460cefb38474024988160405161174d9190614118565b60405180910390a15050565b606060006101306000848152602001908152602001600020805461177c9061446f565b80601f01602080910402602001604051908101604052809291908181526020018280546117a89061446f565b80156117f55780601f106117ca576101008083540402835291602001916117f5565b820191906000526020600020905b8154815290600101906020018083116117d857829003601f168201915b5050505050905080915050919050565b6000606a60008473ffffffffffffffffffffffffffffffffffffffff1673ffffffffffffffffffffffffffffffffffffffff16815260200190815260200160002060008373ffffffffffffffffffffffffffffffffffffffff1673ffffffffffffffffffffffffffffffffffffffff16815260200190815260200160002060009054906101000a900460ff16905092915050565b6118a1611e64565b600073ffffffffffffffffffffffffffffffffffffffff168173ffffffffffffffffffffffffffffffffffffffff161415611911576040517f08c379a000000000000000000000000000000000000000000000000000000000815260040161190890613e47565b60405180910390fd5b61191a81611fff565b50565b60007f80ac58cd000000000000000000000000000000000000000000000000000000007bffffffffffffffffffffffffffffffffffffffffffffffffffffffff1916827bffffffffffffffffffffffffffffffffffffffffffffffffffffffff191614806119e857507f5b5e139f000000000000000000000000000000000000000000000000000000007bffffffffffffffffffffffffffffffffffffffffffffffffffffffff1916827bffffffffffffffffffffffffffffffffffffffffffffffffffffffff1916145b806119f857506119f782612303565b5b9050919050565b611a088161236d565b611a47576040517f08c379a0000000000000000000000000000000000000000000000000000000008152600401611a3e90613fe7565b60405180910390fd5b50565b6000611a5533610c37565b15611a6957601436033560601c9050611a78565b611a716123d9565b9050611a79565b5b90565b816069600083815260200190815260200160002060006101000a81548173ffffffffffffffffffffffffffffffffffffffff021916908373ffffffffffffffffffffffffffffffffffffffff160217905550808273ffffffffffffffffffffffffffffffffffffffff16611aef83610c91565b73ffffffffffffffffffffffffffffffffffffffff167f8c5be1e5ebec7d5bd14f71427d1e84f3dd0314c0f7b2291e5b200ac8c7c3b92560405160405180910390a45050565b600080611b4183610c91565b90508073ffffffffffffffffffffffffffffffffffffffff168473ffffffffffffffffffffffffffffffffffffffff161480611b835750611b828185611805565b5b80611bc157508373ffffffffffffffffffffffffffffffffffffffff16611ba9846106b7565b73ffffffffffffffffffffffffffffffffffffffff16145b91505092915050565b8273ffffffffffffffffffffffffffffffffffffffff16611bea82610c91565b73ffffffffffffffffffffffffffffffffffffffff1614611c40576040517f08c379a0000000000000000000000000000000000000000000000000000000008152600401611c3790613e67565b60405180910390fd5b600073ffffffffffffffffffffffffffffffffffffffff168273ffffffffffffffffffffffffffffffffffffffff161415611cb0576040517f08c379a0000000000000000000000000000000000000000000000000000000008152600401611ca790613ee7565b60405180910390fd5b611cbb83838361240b565b611cc6600082611a7c565b6001606860008573ffffffffffffffffffffffffffffffffffffffff1673ffffffffffffffffffffffffffffffffffffffff1681526020019081526020016000206000828254611d169190614378565b925050819055506001606860008473ffffffffffffffffffffffffffffffffffffffff1673ffffffffffffffffffffffffffffffffffffffff1681526020019081526020016000206000828254611d6d9190614322565b92505081905550816067600083815260200190815260200160002060006101000a81548173ffffffffffffffffffffffffffffffffffffffff021916908373ffffffffffffffffffffffffffffffffffffffff160217905550808273ffffffffffffffffffffffffffffffffffffffff168473ffffffffffffffffffffffffffffffffffffffff167fddf252ad1be2c89b69c2b068fc378daa952ba7f163c4a11628f55a4df523b3ef60405160405180910390a4611e2c83838361251f565b505050565b60008282604051602001611e46929190613d17565b60405160208183030381529060405280519060200120905092915050565b611e6c611a4a565b73ffffffffffffffffffffffffffffffffffffffff16611e8a610e0f565b73ffffffffffffffffffffffffffffffffffffffff1614611ee0576040517f08c379a0000000000000000000000000000000000000000000000000000000008152600401611ed790613fc7565b60405180910390fd5b565b6000611eed82610c91565b9050611efb8160008461240b565b611f06600083611a7c565b6001606860008373ffffffffffffffffffffffffffffffffffffffff1673ffffffffffffffffffffffffffffffffffffffff1681526020019081526020016000206000828254611f569190614378565b925050819055506067600083815260200190815260200160002060006101000a81549073ffffffffffffffffffffffffffffffffffffffff021916905581600073ffffffffffffffffffffffffffffffffffffffff168273ffffffffffffffffffffffffffffffffffffffff167fddf252ad1be2c89b69c2b068fc378daa952ba7f163c4a11628f55a4df523b3ef60405160405180910390a4611ffb8160008461251f565b5050565b600060fc60009054906101000a900473ffffffffffffffffffffffffffffffffffffffff1690508160fc60006101000a81548173ffffffffffffffffffffffffffffffffffffffff021916908373ffffffffffffffffffffffffffffffffffffffff1602179055508173ffffffffffffffffffffffffffffffffffffffff168173ffffffffffffffffffffffffffffffffffffffff167f8be0079c531659141344cd1fd0a4f28419497f9722a3daafe3b4186f6b6457e060405160405180910390a35050565b8173ffffffffffffffffffffffffffffffffffffffff168373ffffffffffffffffffffffffffffffffffffffff161415612134576040517f08c379a000000000000000000000000000000000000000000000000000000000815260040161212b90613f07565b60405180910390fd5b80606a60008573ffffffffffffffffffffffffffffffffffffffff1673ffffffffffffffffffffffffffffffffffffffff16815260200190815260200160002060008473ffffffffffffffffffffffffffffffffffffffff1673ffffffffffffffffffffffffffffffffffffffff16815260200190815260200160002060006101000a81548160ff0219169083151502179055508173ffffffffffffffffffffffffffffffffffffffff168373ffffffffffffffffffffffffffffffffffffffff167f17307eab39ab6107e8899845ad3d59bd9653f200f220920489ca2b5937696c31836040516122259190613daa565b60405180910390a3505050565b61223d848484611bca565b61224984848484612524565b612288576040517f08c379a000000000000000000000000000000000000000000000000000000000815260040161227f90613e27565b60405180910390fd5b50505050565b600082826040516020016122a3929190613cbf565b60405160208183030381529060405280519060200120905092915050565b600081600001549050919050565b6122e98282604051806020016040528060008152506126bb565b5050565b6001816000016000828254019250508190555050565b60007f01ffc9a7000000000000000000000000000000000000000000000000000000007bffffffffffffffffffffffffffffffffffffffffffffffffffffffff1916827bffffffffffffffffffffffffffffffffffffffffffffffffffffffff1916149050919050565b60008073ffffffffffffffffffffffffffffffffffffffff166067600084815260200190815260200160002060009054906101000a900473ffffffffffffffffffffffffffffffffffffffff1673ffffffffffffffffffffffffffffffffffffffff1614159050919050565b60006123e433610c37565b156123f857601436033560601c9050612407565b612400612716565b9050612408565b5b90565b61241683838361271e565b600073ffffffffffffffffffffffffffffffffffffffff168373ffffffffffffffffffffffffffffffffffffffff1614156124595761245481612723565b612498565b8173ffffffffffffffffffffffffffffffffffffffff168373ffffffffffffffffffffffffffffffffffffffff161461249757612496838261276c565b5b5b600073ffffffffffffffffffffffffffffffffffffffff168273ffffffffffffffffffffffffffffffffffffffff1614156124db576124d6816128d9565b61251a565b8273ffffffffffffffffffffffffffffffffffffffff168273ffffffffffffffffffffffffffffffffffffffff1614612519576125188282612a1c565b5b5b505050565b505050565b60006125458473ffffffffffffffffffffffffffffffffffffffff16612a9b565b156126ae578373ffffffffffffffffffffffffffffffffffffffff1663150b7a0261256e611a4a565b8786866040518563ffffffff1660e01b81526004016125909493929190613d5e565b602060405180830381600087803b1580156125aa57600080fd5b505af19250505080156125db57506040513d601f19601f820116820180604052508101906125d891906134cd565b60015b61265e573d806000811461260b576040519150601f19603f3d011682016040523d82523d6000602084013e612610565b606091505b50600081511415612656576040517f08c379a000000000000000000000000000000000000000000000000000000000815260040161264d90613e27565b60405180910390fd5b805181602001fd5b63150b7a0260e01b7bffffffffffffffffffffffffffffffffffffffffffffffffffffffff1916817bffffffffffffffffffffffffffffffffffffffffffffffffffffffff1916149150506126b3565b600190505b949350505050565b6126c58383612abe565b6126d26000848484612524565b612711576040517f08c379a000000000000000000000000000000000000000000000000000000000815260040161270890613e27565b60405180910390fd5b505050565b600033905090565b505050565b609980549050609a600083815260200190815260200160002081905550609981908060018154018082558091505060019003906000526020600020016000909190919091505550565b6000600161277984610d43565b6127839190614378565b9050600060986000848152602001908152602001600020549050818114612868576000609760008673ffffffffffffffffffffffffffffffffffffffff1673ffffffffffffffffffffffffffffffffffffffff168152602001908152602001600020600084815260200190815260200160002054905080609760008773ffffffffffffffffffffffffffffffffffffffff1673ffffffffffffffffffffffffffffffffffffffff168152602001908152602001600020600084815260200190815260200160002081905550816098600083815260200190815260200160002081905550505b6098600084815260200190815260200160002060009055609760008573ffffffffffffffffffffffffffffffffffffffff1673ffffffffffffffffffffffffffffffffffffffff16815260200190815260200160002060008381526020019081526020016000206000905550505050565b600060016099805490506128ed9190614378565b90506000609a6000848152602001908152602001600020549050600060998381548110612943577f4e487b7100000000000000000000000000000000000000000000000000000000600052603260045260246000fd5b90600052602060002001549050806099838154811061298b577f4e487b7100000000000000000000000000000000000000000000000000000000600052603260045260246000fd5b906000526020600020018190555081609a600083815260200190815260200160002081905550609a6000858152602001908152602001600020600090556099805480612a00577f4e487b7100000000000000000000000000000000000000000000000000000000600052603160045260246000fd5b6001900381819060005260206000200160009055905550505050565b6000612a2783610d43565b905081609760008573ffffffffffffffffffffffffffffffffffffffff1673ffffffffffffffffffffffffffffffffffffffff168152602001908152602001600020600083815260200190815260200160002081905550806098600084815260200190815260200160002081905550505050565b6000808273ffffffffffffffffffffffffffffffffffffffff163b119050919050565b600073ffffffffffffffffffffffffffffffffffffffff168273ffffffffffffffffffffffffffffffffffffffff161415612b2e576040517f08c379a0000000000000000000000000000000000000000000000000000000008152600401612b2590613fa7565b60405180910390fd5b612b378161236d565b15612b77576040517f08c379a0000000000000000000000000000000000000000000000000000000008152600401612b6e90613ea7565b60405180910390fd5b612b836000838361240b565b6001606860008473ffffffffffffffffffffffffffffffffffffffff1673ffffffffffffffffffffffffffffffffffffffff1681526020019081526020016000206000828254612bd39190614322565b92505081905550816067600083815260200190815260200160002060006101000a81548173ffffffffffffffffffffffffffffffffffffffff021916908373ffffffffffffffffffffffffffffffffffffffff160217905550808273ffffffffffffffffffffffffffffffffffffffff16600073ffffffffffffffffffffffffffffffffffffffff167fddf252ad1be2c89b69c2b068fc378daa952ba7f163c4a11628f55a4df523b3ef60405160405180910390a4612c946000838361251f565b5050565b828054612ca49061446f565b90600052602060002090601f016020900481019282612cc65760008555612d0d565b82601f10612cdf57805160ff1916838001178555612d0d565b82800160010185558215612d0d579182015b82811115612d0c578251825591602001919060010190612cf1565b5b509050612d1a9190612d1e565b5090565b5b80821115612d37576000816000905550600101612d1f565b5090565b6000612d4e612d4984614158565b614133565b90508082856040860282011115612d6457600080fd5b60005b85811015612d945781612d7a8882612ff3565b845260208401935060408301925050600181019050612d67565b5050509392505050565b6000612db1612dac8461417e565b614133565b90508082856040860282011115612dc757600080fd5b60005b85811015612df75781612ddd8882612ff3565b845260208401935060408301925050600181019050612dca565b5050509392505050565b6000612e14612e0f846141a4565b614133565b90508083825260208201905082856020860282011115612e3357600080fd5b60005b85811015612e7d57813567ffffffffffffffff811115612e5557600080fd5b808601612e62898261315a565b85526020850194506020840193505050600181019050612e36565b5050509392505050565b6000612e9a612e95846141d0565b614133565b90508082856020860282011115612eb057600080fd5b60005b85811015612ee05781612ec688826132bf565b845260208401935060208301925050600181019050612eb3565b5050509392505050565b6000612efd612ef8846141f6565b614133565b905082815260208101848484011115612f1557600080fd5b612f2084828561442d565b509392505050565b6000612f3b612f3684614227565b614133565b905082815260208101848484011115612f5357600080fd5b612f5e84828561442d565b509392505050565b600081359050612f7581614b1f565b92915050565b600082601f830112612f8c57600080fd5b6001612f99848285612d3b565b91505092915050565b600082601f830112612fb357600080fd5b6002612fc0848285612d9e565b91505092915050565b600082601f830112612fda57600080fd5b8135612fea848260208601612e01565b91505092915050565b600082601f83011261300457600080fd5b6002613011848285612e87565b91505092915050565b60008135905061302981614b36565b92915050565b60008151905061303e81614b36565b92915050565b60008135905061305381614b4d565b92915050565b60008151905061306881614b4d565b92915050565b600082601f83011261307f57600080fd5b813561308f848260208601612eea565b91505092915050565b600082601f8301126130a957600080fd5b81356130b9848260208601612f28565b91505092915050565b6000604082840312156130d457600080fd5b6130de6040614133565b905060006130ee848285016132bf565b6000830152506020613102848285016132bf565b60208301525092915050565b60006080828403121561312057600080fd5b61312a6040614133565b9050600061313a84828501612ff3565b600083015250604061314e84828501612ff3565b60208301525092915050565b60006040828403121561316c57600080fd5b6131766040614133565b9050600082013567ffffffffffffffff81111561319257600080fd5b61319e84828501613098565b60008301525060206131b2848285016132bf565b60208301525092915050565b600061010082840312156131d157600080fd5b6131db6060614133565b905060006131eb848285016130c2565b60008301525060406131ff8482850161310e565b60208301525060c0613213848285016130c2565b60408301525092915050565b6000610240828403121561323257600080fd5b61323c60c0614133565b9050600061324c84828501612fa2565b600083015250608061326084828501612ff3565b60208301525060c061327484828501612fa2565b60408301525061014061328984828501612ff3565b60608301525061018061329e84828501612fa2565b6080830152506102006132b384828501612f7b565b60a08301525092915050565b6000813590506132ce81614b64565b92915050565b6000602082840312156132e657600080fd5b60006132f484828501612f66565b91505092915050565b6000806040838503121561331057600080fd5b600061331e85828601612f66565b925050602061332f85828601612f66565b9150509250929050565b60008060006060848603121561334e57600080fd5b600061335c86828701612f66565b935050602061336d86828701612f66565b925050604061337e868287016132bf565b9150509250925092565b6000806000806080858703121561339e57600080fd5b60006133ac87828801612f66565b94505060206133bd87828801612f66565b93505060406133ce878288016132bf565b925050606085013567ffffffffffffffff8111156133eb57600080fd5b6133f78782880161306e565b91505092959194509250565b6000806040838503121561341657600080fd5b600061342485828601612f66565b92505060206134358582860161301a565b9150509250929050565b6000806040838503121561345257600080fd5b600061346085828601612f66565b9250506020613471858286016132bf565b9150509250929050565b60006020828403121561348d57600080fd5b600061349b8482850161302f565b91505092915050565b6000602082840312156134b657600080fd5b60006134c484828501613044565b91505092915050565b6000602082840312156134df57600080fd5b60006134ed84828501613059565b91505092915050565b60006020828403121561350857600080fd5b6000613516848285016132bf565b91505092915050565b600080610120838503121561353357600080fd5b6000613541858286016132bf565b9250506020613552858286016131be565b9150509250929050565b6000806000610140848603121561357257600080fd5b6000613580868287016132bf565b9350506020613591868287016132bf565b92505060406135a2868287016131be565b9150509250925092565b6000806000806102a085870312156135c357600080fd5b60006135d1878288016132bf565b94505060206135e2878288016132bf565b93505060406135f38782880161321f565b92505061028085013567ffffffffffffffff81111561361157600080fd5b61361d87828801612fc9565b91505092959194509250565b6000613635838361372d565b60408301905092915050565b600061364d8383613c7b565b60208301905092915050565b613662816143ac565b82525050565b613679613674826143ac565b61451b565b82525050565b61368881614276565b61369281846142d4565b925061369d82614258565b8060005b838110156136ce5781516136b58782613629565b96506136c0836142ad565b9250506001810190506136a1565b505050505050565b6136df81614281565b6136e981846142df565b92506136f482614262565b8060005b8381101561372557815161370c8782613629565b9650613717836142ba565b9250506001810190506136f8565b505050505050565b6137368161428c565b61374081846142ea565b925061374b8261426c565b8060005b8381101561377c5781516137638782613641565b965061376e836142c7565b92505060018101905061374f565b505050505050565b61378d816143be565b82525050565b600061379e82614297565b6137a881856142f5565b93506137b881856020860161443c565b6137c1816145d6565b840191505092915050565b60006137d7826142a2565b6137e18185614306565b93506137f181856020860161443c565b6137fa816145d6565b840191505092915050565b6000613810826142a2565b61381a8185614317565b935061382a81856020860161443c565b80840191505092915050565b6000613843602083614306565b915061384e826145f4565b602082019050919050565b6000613866602b83614306565b91506138718261461d565b604082019050919050565b6000613889603283614306565b91506138948261466c565b604082019050919050565b60006138ac602683614306565b91506138b7826146bb565b604082019050919050565b60006138cf602583614306565b91506138da8261470a565b604082019050919050565b60006138f2601783614306565b91506138fd82614759565b602082019050919050565b6000613915601c83614306565b915061392082614782565b602082019050919050565b6000613938601683614306565b9150613943826147ab565b602082019050919050565b600061395b602483614306565b9150613966826147d4565b604082019050919050565b600061397e601983614306565b915061398982614823565b602082019050919050565b60006139a1602983614306565b91506139ac8261484c565b604082019050919050565b60006139c4601b83614306565b91506139cf8261489b565b602082019050919050565b60006139e7602e83614306565b91506139f2826148c4565b604082019050919050565b6000613a0a603e83614306565b9150613a1582614913565b604082019050919050565b6000613a2d602083614306565b9150613a3882614962565b602082019050919050565b6000613a50602083614306565b9150613a5b8261498b565b602082019050919050565b6000613a73601883614306565b9150613a7e826149b4565b602082019050919050565b6000613a96602183614306565b9150613aa1826149dd565b604082019050919050565b6000613ab9601583614306565b9150613ac482614a2c565b602082019050919050565b6000613adc600083614317565b9150613ae782614a55565b600082019050919050565b6000613aff602c83614306565b9150613b0a82614a58565b604082019050919050565b6000613b22601983614306565b9150613b2d82614aa7565b602082019050919050565b6000613b45602e83614306565b9150613b5082614ad0565b604082019050919050565b604082016000820151613b716000850182613c7b565b506020820151613b846020850182613c7b565b50505050565b608082016000820151613ba0600085018261372d565b506020820151613bb3604085018261372d565b50505050565b61010082016000820151613bd06000850182613b5b565b506020820151613be36040850182613b8a565b506040820151613bf660c0850182613b5b565b50505050565b61024082016000820151613c1360008501826136d6565b506020820151613c26608085018261372d565b506040820151613c3960c08501826136d6565b506060820151613c4d61014085018261372d565b506080820151613c616101808501826136d6565b5060a0820151613c7561020085018261367f565b50505050565b613c8481614416565b82525050565b613c9381614416565b82525050565b613caa613ca582614416565b61453f565b82525050565b613cb981614420565b82525050565b6000613ccb8285613668565b601482019150613cdb8284613c99565b6020820191508190509392505050565b6000613cf78284613805565b915081905092915050565b6000613d0d82613acf565b9150819050919050565b6000613d238285613c99565b602082019150613d338284613c99565b6020820191508190509392505050565b6000602082019050613d586000830184613659565b92915050565b6000608082019050613d736000830187613659565b613d806020830186613659565b613d8d6040830185613c8a565b8181036060830152613d9f8184613793565b905095945050505050565b6000602082019050613dbf6000830184613784565b92915050565b60006020820190508181036000830152613ddf81846137cc565b905092915050565b60006020820190508181036000830152613e0081613836565b9050919050565b60006020820190508181036000830152613e2081613859565b9050919050565b60006020820190508181036000830152613e408161387c565b9050919050565b60006020820190508181036000830152613e608161389f565b9050919050565b60006020820190508181036000830152613e80816138c2565b9050919050565b60006020820190508181036000830152613ea0816138e5565b9050919050565b60006020820190508181036000830152613ec081613908565b9050919050565b60006020820190508181036000830152613ee08161392b565b9050919050565b60006020820190508181036000830152613f008161394e565b9050919050565b60006020820190508181036000830152613f2081613971565b9050919050565b60006020820190508181036000830152613f4081613994565b9050919050565b60006020820190508181036000830152613f60816139b7565b9050919050565b60006020820190508181036000830152613f80816139da565b9050919050565b60006020820190508181036000830152613fa0816139fd565b9050919050565b60006020820190508181036000830152613fc081613a20565b9050919050565b60006020820190508181036000830152613fe081613a43565b9050919050565b6000602082019050818103600083015261400081613a66565b9050919050565b6000602082019050818103600083015261402081613a89565b9050919050565b6000602082019050818103600083015261404081613aac565b9050919050565b6000602082019050818103600083015261406081613af2565b9050919050565b6000602082019050818103600083015261408081613b15565b9050919050565b600060208201905081810360008301526140a081613b38565b9050919050565b6000610120820190506140bd6000830185613bb9565b6140cb610100830184613c8a565b9392505050565b6000610260820190506140e86000830185613bfc565b6140f6610240830184613c8a565b9392505050565b60006020820190506141126000830184613c8a565b92915050565b600060208201905061412d6000830184613cb0565b92915050565b600061413d61414e565b905061414982826144a1565b919050565b6000604051905090565b600067ffffffffffffffff821115614173576141726145a7565b5b602082029050919050565b600067ffffffffffffffff821115614199576141986145a7565b5b602082029050919050565b600067ffffffffffffffff8211156141bf576141be6145a7565b5b602082029050602081019050919050565b600067ffffffffffffffff8211156141eb576141ea6145a7565b5b602082029050919050565b600067ffffffffffffffff821115614211576142106145a7565b5b61421a826145d6565b9050602081019050919050565b600067ffffffffffffffff821115614242576142416145a7565b5b61424b826145d6565b9050602081019050919050565b6000819050919050565b6000819050919050565b6000819050919050565b600060019050919050565b600060029050919050565b600060029050919050565b600081519050919050565b600081519050919050565b6000602082019050919050565b6000602082019050919050565b6000602082019050919050565b600081905092915050565b600081905092915050565b600081905092915050565b600082825260208201905092915050565b600082825260208201905092915050565b600081905092915050565b600061432d82614416565b915061433883614416565b9250827fffffffffffffffffffffffffffffffffffffffffffffffffffffffffffffffff0382111561436d5761436c614549565b5b828201905092915050565b600061438382614416565b915061438e83614416565b9250828210156143a1576143a0614549565b5b828203905092915050565b60006143b7826143f6565b9050919050565b60008115159050919050565b60007fffffffff0000000000000000000000000000000000000000000000000000000082169050919050565b600073ffffffffffffffffffffffffffffffffffffffff82169050919050565b6000819050919050565b600060ff82169050919050565b82818337600083830152505050565b60005b8381101561445a57808201518184015260208101905061443f565b83811115614469576000848401525b50505050565b6000600282049050600182168061448757607f821691505b6020821081141561449b5761449a614578565b5b50919050565b6144aa826145d6565b810181811067ffffffffffffffff821117156144c9576144c86145a7565b5b80604052505050565b60006144dd82614416565b91507fffffffffffffffffffffffffffffffffffffffffffffffffffffffffffffffff8214156145105761450f614549565b5b600182019050919050565b60006145268261452d565b9050919050565b6000614538826145e7565b9050919050565b6000819050919050565b7f4e487b7100000000000000000000000000000000000000000000000000000000600052601160045260246000fd5b7f4e487b7100000000000000000000000000000000000000000000000000000000600052602260045260246000fd5b7f4e487b7100000000000000000000000000000000000000000000000000000000600052604160045260246000fd5b6000601f19601f8301169050919050565b60008160601b9050919050565b7f4d696e744e46543a2072656d61696e696e6720636f756e74206973207a65726f600082015250565b7f455243373231456e756d657261626c653a206f776e657220696e646578206f7560008201527f74206f6620626f756e6473000000000000000000000000000000000000000000602082015250565b7f4552433732313a207472616e7366657220746f206e6f6e20455243373231526560008201527f63656976657220696d706c656d656e7465720000000000000000000000000000602082015250565b7f4f776e61626c653a206e6577206f776e657220697320746865207a65726f206160008201527f6464726573730000000000000000000000000000000000000000000000000000602082015250565b7f4552433732313a207472616e736665722066726f6d20696e636f72726563742060008201527f6f776e6572000000000000000000000000000000000000000000000000000000602082015250565b7f4d696e744e46543a20616c7265616479206d696e746564000000000000000000600082015250565b7f4552433732313a20746f6b656e20616c7265616479206d696e74656400000000600082015250565b7f4d696e744e46543a20696e76616c69642070726f6f6600000000000000000000600082015250565b7f4552433732313a207472616e7366657220746f20746865207a65726f2061646460008201527f7265737300000000000000000000000000000000000000000000000000000000602082015250565b7f4552433732313a20617070726f766520746f2063616c6c657200000000000000600082015250565b7f4552433732313a2061646472657373207a65726f206973206e6f74206120766160008201527f6c6964206f776e65720000000000000000000000000000000000000000000000602082015250565b7f4d696e744e465476323a206164647265737320697320626c616e6b0000000000600082015250565b7f496e697469616c697a61626c653a20636f6e747261637420697320616c72656160008201527f647920696e697469616c697a6564000000000000000000000000000000000000602082015250565b7f4552433732313a20617070726f76652063616c6c6572206973206e6f7420746f60008201527f6b656e206f776e6572206e6f7220617070726f76656420666f7220616c6c0000602082015250565b7f4552433732313a206d696e7420746f20746865207a65726f2061646472657373600082015250565b7f4f776e61626c653a2063616c6c6572206973206e6f7420746865206f776e6572600082015250565b7f4552433732313a20696e76616c696420746f6b656e2049440000000000000000600082015250565b7f4552433732313a20617070726f76616c20746f2063757272656e74206f776e6560008201527f7200000000000000000000000000000000000000000000000000000000000000602082015250565b7f4d696e744e46543a20756e617574686f72697a65640000000000000000000000600082015250565b50565b7f455243373231456e756d657261626c653a20676c6f62616c20696e646578206f60008201527f7574206f6620626f756e64730000000000000000000000000000000000000000602082015250565b7f4d696e744e46543a206164647265737320697320626c616e6b00000000000000600082015250565b7f4552433732313a2063616c6c6572206973206e6f7420746f6b656e206f776e6560008201527f72206e6f7220617070726f766564000000000000000000000000000000000000602082015250565b614b28816143ac565b8114614b3357600080fd5b50565b614b3f816143be565b8114614b4a57600080fd5b50565b614b56816143ca565b8114614b6157600080fd5b50565b614b6d81614416565b8114614b7857600080fd5b5056fea264697066735822122075df619b8a22730cc03ce02b80c4aaf7b25f264ea5d013cb386b935193272d8e64736f6c63430008040033",
  "linkReferences": {},
  "deployedLinkReferences": {}
}