{
  "_format": "hh-sol-artifact-1",
  "contractName": "MintNFT",
  "sourceName": "contracts/MintNFT.sol",
  "abi": [
    {
      "anonymous": false,
      "inputs": [
        {
          "indexed": true,
          "internalType": "address",
          "name": "owner",
          "type": "address"
        },
        {
          "indexed": true,
          "internalType": "address",
          "name": "approved",
          "type": "address"
        },
        {
          "indexed": true,
          "internalType": "uint256",
          "name": "tokenId",
          "type": "uint256"
        }
      ],
      "name": "Approval",
      "type": "event"
    },
    {
      "anonymous": false,
      "inputs": [
        {
          "indexed": true,
          "internalType": "address",
          "name": "owner",
          "type": "address"
        },
        {
          "indexed": true,
          "internalType": "address",
          "name": "operator",
          "type": "address"
        },
        {
          "indexed": false,
          "internalType": "bool",
          "name": "approved",
          "type": "bool"
        }
      ],
      "name": "ApprovalForAll",
      "type": "event"
    },
    {
      "anonymous": false,
      "inputs": [
        {
          "indexed": false,
          "internalType": "uint8",
          "name": "version",
          "type": "uint8"
        }
      ],
      "name": "Initialized",
      "type": "event"
    },
    {
      "anonymous": false,
      "inputs": [
        {
          "indexed": true,
          "internalType": "address",
          "name": "holder",
          "type": "address"
        },
        {
          "indexed": false,
          "internalType": "string",
          "name": "url",
          "type": "string"
        }
      ],
      "name": "MintedNFTAttributeURL",
      "type": "event"
    },
    {
      "anonymous": false,
      "inputs": [
        {
          "indexed": true,
          "internalType": "address",
          "name": "previousOwner",
          "type": "address"
        },
        {
          "indexed": true,
          "internalType": "address",
          "name": "newOwner",
          "type": "address"
        }
      ],
      "name": "OwnershipTransferred",
      "type": "event"
    },
    {
      "anonymous": false,
      "inputs": [
        {
          "indexed": true,
          "internalType": "address",
          "name": "from",
          "type": "address"
        },
        {
          "indexed": true,
          "internalType": "address",
          "name": "to",
          "type": "address"
        },
        {
          "indexed": true,
          "internalType": "uint256",
          "name": "tokenId",
          "type": "uint256"
        }
      ],
      "name": "Transfer",
      "type": "event"
    },
    {
      "inputs": [
        {
          "internalType": "address",
          "name": "to",
          "type": "address"
        },
        {
          "internalType": "uint256",
          "name": "tokenId",
          "type": "uint256"
        }
      ],
      "name": "approve",
      "outputs": [],
      "stateMutability": "nonpayable",
      "type": "function"
    },
    {
      "inputs": [
        {
          "internalType": "address",
          "name": "owner",
          "type": "address"
        }
      ],
      "name": "balanceOf",
      "outputs": [
        {
          "internalType": "uint256",
          "name": "",
          "type": "uint256"
        }
      ],
      "stateMutability": "view",
      "type": "function"
    },
    {
      "inputs": [
        {
          "internalType": "uint256",
          "name": "tokenId",
          "type": "uint256"
        }
      ],
      "name": "burn",
      "outputs": [],
      "stateMutability": "nonpayable",
      "type": "function"
    },
    {
      "inputs": [
        {
          "internalType": "uint256",
          "name": "_eventId",
          "type": "uint256"
        },
        {
          "internalType": "string",
          "name": "_secretPhrase",
          "type": "string"
        }
      ],
      "name": "canMint",
      "outputs": [
        {
          "internalType": "bool",
          "name": "",
          "type": "bool"
        }
      ],
      "stateMutability": "view",
      "type": "function"
    },
    {
      "inputs": [
        {
          "internalType": "uint256",
          "name": "tokenId",
          "type": "uint256"
        }
      ],
      "name": "getApproved",
      "outputs": [
        {
          "internalType": "address",
          "name": "",
          "type": "address"
        }
      ],
      "stateMutability": "view",
      "type": "function"
    },
    {
      "inputs": [
        {
          "internalType": "uint256",
          "name": "_eventId",
          "type": "uint256"
        }
      ],
      "name": "getRemainingNFTCount",
      "outputs": [
        {
          "internalType": "uint256",
          "name": "",
          "type": "uint256"
        }
      ],
      "stateMutability": "view",
      "type": "function"
    },
    {
      "inputs": [
        {
          "internalType": "contract MinimalForwarderUpgradeable",
          "name": "trustedForwarder",
          "type": "address"
        }
      ],
      "name": "initialize",
      "outputs": [],
      "stateMutability": "nonpayable",
      "type": "function"
    },
    {
      "inputs": [
        {
          "internalType": "address",
          "name": "owner",
          "type": "address"
        },
        {
          "internalType": "address",
          "name": "operator",
          "type": "address"
        }
      ],
      "name": "isApprovedForAll",
      "outputs": [
        {
          "internalType": "bool",
          "name": "",
          "type": "bool"
        }
      ],
      "stateMutability": "view",
      "type": "function"
    },
    {
      "inputs": [
        {
          "internalType": "address",
          "name": "forwarder",
          "type": "address"
        }
      ],
      "name": "isTrustedForwarder",
      "outputs": [
        {
          "internalType": "bool",
          "name": "",
          "type": "bool"
        }
      ],
      "stateMutability": "view",
      "type": "function"
    },
    {
      "inputs": [
        {
          "internalType": "uint256",
          "name": "_groupId",
          "type": "uint256"
        },
        {
          "internalType": "uint256",
          "name": "_eventId",
          "type": "uint256"
        },
        {
          "internalType": "string",
          "name": "_secretPhrase",
          "type": "string"
        }
      ],
      "name": "mintParticipateNFT",
      "outputs": [],
      "stateMutability": "nonpayable",
      "type": "function"
    },
    {
      "inputs": [],
      "name": "name",
      "outputs": [
        {
          "internalType": "string",
          "name": "",
          "type": "string"
        }
      ],
      "stateMutability": "view",
      "type": "function"
    },
    {
      "inputs": [],
      "name": "owner",
      "outputs": [
        {
          "internalType": "address",
          "name": "",
          "type": "address"
        }
      ],
      "stateMutability": "view",
      "type": "function"
    },
    {
      "inputs": [
        {
          "internalType": "uint256",
          "name": "tokenId",
          "type": "uint256"
        }
      ],
      "name": "ownerOf",
      "outputs": [
        {
          "internalType": "address",
          "name": "",
          "type": "address"
        }
      ],
      "stateMutability": "view",
      "type": "function"
    },
    {
      "inputs": [],
      "name": "renounceOwnership",
      "outputs": [],
      "stateMutability": "nonpayable",
      "type": "function"
    },
    {
      "inputs": [
        {
          "internalType": "address",
          "name": "from",
          "type": "address"
        },
        {
          "internalType": "address",
          "name": "to",
          "type": "address"
        },
        {
          "internalType": "uint256",
          "name": "tokenId",
          "type": "uint256"
        }
      ],
      "name": "safeTransferFrom",
      "outputs": [],
      "stateMutability": "nonpayable",
      "type": "function"
    },
    {
      "inputs": [
        {
          "internalType": "address",
          "name": "from",
          "type": "address"
        },
        {
          "internalType": "address",
          "name": "to",
          "type": "address"
        },
        {
          "internalType": "uint256",
          "name": "tokenId",
          "type": "uint256"
        },
        {
          "internalType": "bytes",
          "name": "data",
          "type": "bytes"
        }
      ],
      "name": "safeTransferFrom",
      "outputs": [],
      "stateMutability": "nonpayable",
      "type": "function"
    },
    {
      "inputs": [
        {
          "internalType": "address",
          "name": "operator",
          "type": "address"
        },
        {
          "internalType": "bool",
          "name": "approved",
          "type": "bool"
        }
      ],
      "name": "setApprovalForAll",
      "outputs": [],
      "stateMutability": "nonpayable",
      "type": "function"
    },
    {
      "inputs": [
        {
          "internalType": "uint256",
          "name": "_eventId",
          "type": "uint256"
        },
        {
          "internalType": "uint256",
          "name": "_mintLimit",
          "type": "uint256"
        },
        {
          "internalType": "bytes32",
          "name": "_secretPhrase",
          "type": "bytes32"
        },
        {
          "components": [
            {
              "internalType": "string",
              "name": "metaDataURL",
              "type": "string"
            },
            {
              "internalType": "uint256",
              "name": "requiredParticipateCount",
              "type": "uint256"
            }
          ],
          "internalType": "struct MintNFT.NFTAttribute[]",
          "name": "attributes",
          "type": "tuple[]"
        }
      ],
      "name": "setEventInfo",
      "outputs": [],
      "stateMutability": "nonpayable",
      "type": "function"
    },
    {
      "inputs": [
        {
          "internalType": "address",
          "name": "_addr",
          "type": "address"
        }
      ],
      "name": "setEventManagerAddr",
      "outputs": [],
      "stateMutability": "nonpayable",
      "type": "function"
    },
    {
      "inputs": [
        {
          "internalType": "bytes4",
          "name": "interfaceId",
          "type": "bytes4"
        }
      ],
      "name": "supportsInterface",
      "outputs": [
        {
          "internalType": "bool",
          "name": "",
          "type": "bool"
        }
      ],
      "stateMutability": "view",
      "type": "function"
    },
    {
      "inputs": [],
      "name": "symbol",
      "outputs": [
        {
          "internalType": "string",
          "name": "",
          "type": "string"
        }
      ],
      "stateMutability": "view",
      "type": "function"
    },
    {
      "inputs": [
        {
          "internalType": "uint256",
          "name": "index",
          "type": "uint256"
        }
      ],
      "name": "tokenByIndex",
      "outputs": [
        {
          "internalType": "uint256",
          "name": "",
          "type": "uint256"
        }
      ],
      "stateMutability": "view",
      "type": "function"
    },
    {
      "inputs": [
        {
          "internalType": "address",
          "name": "owner",
          "type": "address"
        },
        {
          "internalType": "uint256",
          "name": "index",
          "type": "uint256"
        }
      ],
      "name": "tokenOfOwnerByIndex",
      "outputs": [
        {
          "internalType": "uint256",
          "name": "",
          "type": "uint256"
        }
      ],
      "stateMutability": "view",
      "type": "function"
    },
    {
      "inputs": [
        {
          "internalType": "uint256",
          "name": "_tokenId",
          "type": "uint256"
        }
      ],
      "name": "tokenURI",
      "outputs": [
        {
          "internalType": "string",
          "name": "",
          "type": "string"
        }
      ],
      "stateMutability": "view",
      "type": "function"
    },
    {
      "inputs": [],
      "name": "totalSupply",
      "outputs": [
        {
          "internalType": "uint256",
          "name": "",
          "type": "uint256"
        }
      ],
      "stateMutability": "view",
      "type": "function"
    },
    {
      "inputs": [
        {
          "internalType": "address",
          "name": "from",
          "type": "address"
        },
        {
          "internalType": "address",
          "name": "to",
          "type": "address"
        },
        {
          "internalType": "uint256",
          "name": "tokenId",
          "type": "uint256"
        }
      ],
      "name": "transferFrom",
      "outputs": [],
      "stateMutability": "nonpayable",
      "type": "function"
    },
    {
      "inputs": [
        {
          "internalType": "address",
          "name": "newOwner",
          "type": "address"
        }
      ],
      "name": "transferOwnership",
      "outputs": [],
      "stateMutability": "nonpayable",
      "type": "function"
    }
  ],
  "bytecode": "0x608060405234801561001057600080fd5b5061464a806100206000396000f3fe608060405234801561001057600080fd5b50600436106101a95760003560e01c80636352211e116100f9578063a22cb46511610097578063c87b56dd11610071578063c87b56dd146104dc578063e985e9c51461050c578063ef3ad9eb1461053c578063f2fde38b14610558576101a9565b8063a22cb46514610488578063b88d4fde146104a4578063c4d66de8146104c0576101a9565b806372746a8d116100d357806372746a8d146104145780638da5cb5b146104305780639041e3f41461044e57806395d89b411461046a576101a9565b80636352211e146103aa57806370a08231146103da578063715018a61461040a576101a9565b80632b3e44361161016657806342966c681161014057806342966c68146102fe5780634f6ccce71461031a5780634ffc9f4b1461034a578063572b6c051461037a576101a9565b80632b3e4436146102825780632f745c59146102b257806342842e0e146102e2576101a9565b806301ffc9a7146101ae57806306fdde03146101de578063081812fc146101fc578063095ea7b31461022c57806318160ddd1461024857806323b872dd14610266575b600080fd5b6101c860048036038101906101c39190613219565b610574565b6040516101d59190613910565b60405180910390f35b6101e66105ee565b6040516101f39190613946565b60405180910390f35b61021660048036038101906102119190613294565b610680565b60405161022391906138a9565b60405180910390f35b610246600480360381019061024191906131dd565b6106c6565b005b6102506107de565b60405161025d9190613c28565b60405180910390f35b610280600480360381019061027b91906130d7565b6107eb565b005b61029c600480360381019061029791906132bd565b61084b565b6040516102a99190613910565b60405180910390f35b6102cc60048036038101906102c791906131dd565b610970565b6040516102d99190613c28565b60405180910390f35b6102fc60048036038101906102f791906130d7565b610a15565b005b61031860048036038101906103139190613294565b610a35565b005b610334600480360381019061032f9190613294565b610a49565b6040516103419190613c28565b60405180910390f35b610364600480360381019061035f9190613294565b610ae0565b6040516103719190613c28565b60405180910390f35b610394600480360381019061038f9190613072565b610afe565b6040516103a19190613910565b60405180910390f35b6103c460048036038101906103bf9190613294565b610b58565b6040516103d191906138a9565b60405180910390f35b6103f460048036038101906103ef9190613072565b610c0a565b6040516104019190613c28565b60405180910390f35b610412610cc2565b005b61042e6004803603810190610429919061338c565b610cd6565b005b61043861100b565b60405161044591906138a9565b60405180910390f35b61046860048036038101906104639190613072565b611035565b005b6104726110f2565b60405161047f9190613946565b60405180910390f35b6104a2600480360381019061049d91906131a1565b611184565b005b6104be60048036038101906104b99190613126565b61119a565b005b6104da60048036038101906104d5919061326b565b6111fc565b005b6104f660048036038101906104f19190613294565b6113b8565b6040516105039190613946565b60405180910390f35b6105266004803603810190610521919061309b565b611464565b6040516105339190613910565b60405180910390f35b61055660048036038101906105519190613311565b6114f8565b005b610572600480360381019061056d9190613072565b6116a2565b005b60007f780e9d63000000000000000000000000000000000000000000000000000000007bffffffffffffffffffffffffffffffffffffffffffffffffffffffff1916827bffffffffffffffffffffffffffffffffffffffffffffffffffffffff191614806105e757506105e682611726565b5b9050919050565b6060606580546105fd90613eb4565b80601f016020809104026020016040519081016040528092919081815260200182805461062990613eb4565b80156106765780601f1061064b57610100808354040283529160200191610676565b820191906000526020600020905b81548152906001019060200180831161065957829003601f168201915b5050505050905090565b600061068b82611808565b6069600083815260200190815260200160002060009054906101000a900473ffffffffffffffffffffffffffffffffffffffff169050919050565b60006106d182610b58565b90508073ffffffffffffffffffffffffffffffffffffffff168373ffffffffffffffffffffffffffffffffffffffff161415610742576040517f08c379a000000000000000000000000000000000000000000000000000000000815260040161073990613b88565b60405180910390fd5b8073ffffffffffffffffffffffffffffffffffffffff16610761611853565b73ffffffffffffffffffffffffffffffffffffffff161480610790575061078f8161078a611853565b611464565b5b6107cf576040517f08c379a00000000000000000000000000000000000000000000000000000000081526004016107c690613ac8565b60405180910390fd5b6107d98383611885565b505050565b6000609980549050905090565b6107fc6107f6611853565b8261193e565b61083b576040517f08c379a000000000000000000000000000000000000000000000000000000000815260040161083290613be8565b60405180910390fd5b6108468383836119d3565b505050565b60006108578284611c3a565b610896576040517f08c379a000000000000000000000000000000000000000000000000000000000815260040161088d90613b48565b60405180910390fd5b600061013460008581526020019081526020016000205414156108ee576040517f08c379a00000000000000000000000000000000000000000000000000000000081526004016108e590613968565b60405180910390fd5b60006101316000610906610900611853565b87611c6d565b815260200190815260200160002060009054906101000a900460ff1690508015610965576040517f08c379a000000000000000000000000000000000000000000000000000000000815260040161095c90613c08565b60405180910390fd5b600191505092915050565b600061097b83610c0a565b82106109bc576040517f08c379a00000000000000000000000000000000000000000000000000000000081526004016109b390613988565b60405180910390fd5b609760008473ffffffffffffffffffffffffffffffffffffffff1673ffffffffffffffffffffffffffffffffffffffff168152602001908152602001600020600083815260200190815260200160002054905092915050565b610a308383836040518060200160405280600081525061119a565b505050565b610a3d611ca0565b610a4681611d1e565b50565b6000610a536107de565b8210610a94576040517f08c379a0000000000000000000000000000000000000000000000000000000008152600401610a8b90613ba8565b60405180910390fd5b60998281548110610ace577f4e487b7100000000000000000000000000000000000000000000000000000000600052603260045260246000fd5b90600052602060002001549050919050565b60006101346000838152602001908152602001600020549050919050565b600060c960009054906101000a900473ffffffffffffffffffffffffffffffffffffffff1673ffffffffffffffffffffffffffffffffffffffff168273ffffffffffffffffffffffffffffffffffffffff16149050919050565b6000806067600084815260200190815260200160002060009054906101000a900473ffffffffffffffffffffffffffffffffffffffff169050600073ffffffffffffffffffffffffffffffffffffffff168173ffffffffffffffffffffffffffffffffffffffff161415610c01576040517f08c379a0000000000000000000000000000000000000000000000000000000008152600401610bf890613b68565b60405180910390fd5b80915050919050565b60008073ffffffffffffffffffffffffffffffffffffffff168273ffffffffffffffffffffffffffffffffffffffff161415610c7b576040517f08c379a0000000000000000000000000000000000000000000000000000000008152600401610c7290613a68565b60405180910390fd5b606860008373ffffffffffffffffffffffffffffffffffffffff1673ffffffffffffffffffffffffffffffffffffffff168152602001908152602001600020549050919050565b610cca611ca0565b610cd46000611e3b565b565b610ce0828261084b565b506001610134600084815260200190815260200160002054610d029190613d8f565b61013460008481526020019081526020016000208190555060016101316000610d32610d2c611853565b86611c6d565b815260200190815260200160002060006101000a81548160ff0219169083151502179055506000610d6a610d64611853565b85611c6d565b905060006101326000838152602001908152602001600020549050600181610d929190613d39565b61013260008481526020019081526020016000208190555060006101336000610dbc876000611f01565b81526020019081526020016000208054610dd590613eb4565b80601f0160208091040260200160405190810160405280929190818152602001828054610e0190613eb4565b8015610e4e5780601f10610e2357610100808354040283529160200191610e4e565b820191906000526020600020905b815481529060010190602001808311610e3157829003601f168201915b5050505050905060006101336000610e668886611f01565b81526020019081526020016000208054610e7f90613eb4565b80601f0160208091040260200160405190810160405280929190818152602001828054610eab90613eb4565b8015610ef85780601f10610ecd57610100808354040283529160200191610ef8565b820191906000526020600020905b815481529060010190602001808311610edb57829003601f168201915b50505050509050604051602001610f0e90613868565b6040516020818303038152906040528051906020012081604051602001610f359190613851565b6040516020818303038152906040528051906020012014610f54578091505b816101306000610f6561012e611f34565b81526020019081526020016000209080519060200190610f86929190612d58565b50610fa2610f92611853565b610f9d61012e611f34565b611f42565b610fad61012e611f60565b610fb5611853565b73ffffffffffffffffffffffffffffffffffffffff167faf2fad1984d2c7abaa9300537cf9fe1bcfaf2d6226e4ffdf03522dbf3064808e83604051610ffa9190613946565b60405180910390a250505050505050565b600060fc60009054906101000a900473ffffffffffffffffffffffffffffffffffffffff16905090565b61103d611ca0565b600073ffffffffffffffffffffffffffffffffffffffff168173ffffffffffffffffffffffffffffffffffffffff1614156110ad576040517f08c379a00000000000000000000000000000000000000000000000000000000081526004016110a490613a88565b60405180910390fd5b8061012f60006101000a81548173ffffffffffffffffffffffffffffffffffffffff021916908373ffffffffffffffffffffffffffffffffffffffff16021790555050565b60606066805461110190613eb4565b80601f016020809104026020016040519081016040528092919081815260200182805461112d90613eb4565b801561117a5780601f1061114f5761010080835404028352916020019161117a565b820191906000526020600020905b81548152906001019060200180831161115d57829003601f168201915b5050505050905090565b61119661118f611853565b8383611f76565b5050565b6111ab6111a5611853565b8361193e565b6111ea576040517f08c379a00000000000000000000000000000000000000000000000000000000081526004016111e190613be8565b60405180910390fd5b6111f6848484846120e3565b50505050565b60008060019054906101000a900460ff1615905080801561122d5750600160008054906101000a900460ff1660ff16105b8061125a575061123c3061213f565b1580156112595750600160008054906101000a900460ff1660ff16145b5b611299576040517f08c379a000000000000000000000000000000000000000000000000000000000815260040161129090613aa8565b60405180910390fd5b60016000806101000a81548160ff021916908360ff16021790555080156112d6576001600060016101000a81548160ff0219169083151502179055505b61134a6040518060400160405280600981526020017f4d696e7452616c6c7900000000000000000000000000000000000000000000008152506040518060400160405280600281526020017f4d52000000000000000000000000000000000000000000000000000000000000815250612162565b6113526121bf565b61135b82612218565b80156113b45760008060016101000a81548160ff0219169083151502179055507f7f26b83ff96e1f2b6a682f133852f6798a09c465da95921460cefb384740249860016040516113ab919061392b565b60405180910390a15b5050565b60606000610130600084815260200190815260200160002080546113db90613eb4565b80601f016020809104026020016040519081016040528092919081815260200182805461140790613eb4565b80156114545780601f1061142957610100808354040283529160200191611454565b820191906000526020600020905b81548152906001019060200180831161143757829003601f168201915b5050505050905080915050919050565b6000606a60008473ffffffffffffffffffffffffffffffffffffffff1673ffffffffffffffffffffffffffffffffffffffff16815260200190815260200160002060008373ffffffffffffffffffffffffffffffffffffffff1673ffffffffffffffffffffffffffffffffffffffff16815260200190815260200160002060009054906101000a900460ff16905092915050565b61012f60009054906101000a900473ffffffffffffffffffffffffffffffffffffffff1673ffffffffffffffffffffffffffffffffffffffff1661153a611853565b73ffffffffffffffffffffffffffffffffffffffff1614611590576040517f08c379a000000000000000000000000000000000000000000000000000000000815260040161158790613b08565b60405180910390fd5b826101346000868152602001908152602001600020819055508161013560008681526020019081526020016000208190555060005b815181101561169b57818181518110611607577f4e487b7100000000000000000000000000000000000000000000000000000000600052603260045260246000fd5b602002602001015160000151610133600061166688868681518110611655577f4e487b7100000000000000000000000000000000000000000000000000000000600052603260045260246000fd5b602002602001015160200151611f01565b81526020019081526020016000209080519060200190611687929190612d58565b50808061169390613f17565b9150506115c5565b5050505050565b6116aa611ca0565b600073ffffffffffffffffffffffffffffffffffffffff168173ffffffffffffffffffffffffffffffffffffffff16141561171a576040517f08c379a0000000000000000000000000000000000000000000000000000000008152600401611711906139c8565b60405180910390fd5b61172381611e3b565b50565b60007f80ac58cd000000000000000000000000000000000000000000000000000000007bffffffffffffffffffffffffffffffffffffffffffffffffffffffff1916827bffffffffffffffffffffffffffffffffffffffffffffffffffffffff191614806117f157507f5b5e139f000000000000000000000000000000000000000000000000000000007bffffffffffffffffffffffffffffffffffffffffffffffffffffffff1916827bffffffffffffffffffffffffffffffffffffffffffffffffffffffff1916145b806118015750611800826122b3565b5b9050919050565b6118118161231d565b611850576040517f08c379a000000000000000000000000000000000000000000000000000000000815260040161184790613b68565b60405180910390fd5b50565b600061185e33610afe565b1561187257601436033560601c9050611881565b61187a612389565b9050611882565b5b90565b816069600083815260200190815260200160002060006101000a81548173ffffffffffffffffffffffffffffffffffffffff021916908373ffffffffffffffffffffffffffffffffffffffff160217905550808273ffffffffffffffffffffffffffffffffffffffff166118f883610b58565b73ffffffffffffffffffffffffffffffffffffffff167f8c5be1e5ebec7d5bd14f71427d1e84f3dd0314c0f7b2291e5b200ac8c7c3b92560405160405180910390a45050565b60008061194a83610b58565b90508073ffffffffffffffffffffffffffffffffffffffff168473ffffffffffffffffffffffffffffffffffffffff16148061198c575061198b8185611464565b5b806119ca57508373ffffffffffffffffffffffffffffffffffffffff166119b284610680565b73ffffffffffffffffffffffffffffffffffffffff16145b91505092915050565b8273ffffffffffffffffffffffffffffffffffffffff166119f382610b58565b73ffffffffffffffffffffffffffffffffffffffff1614611a49576040517f08c379a0000000000000000000000000000000000000000000000000000000008152600401611a40906139e8565b60405180910390fd5b600073ffffffffffffffffffffffffffffffffffffffff168273ffffffffffffffffffffffffffffffffffffffff161415611ab9576040517f08c379a0000000000000000000000000000000000000000000000000000000008152600401611ab090613a28565b60405180910390fd5b611ac48383836123bb565b611acf600082611885565b6001606860008573ffffffffffffffffffffffffffffffffffffffff1673ffffffffffffffffffffffffffffffffffffffff1681526020019081526020016000206000828254611b1f9190613d8f565b925050819055506001606860008473ffffffffffffffffffffffffffffffffffffffff1673ffffffffffffffffffffffffffffffffffffffff1681526020019081526020016000206000828254611b769190613d39565b92505081905550816067600083815260200190815260200160002060006101000a81548173ffffffffffffffffffffffffffffffffffffffff021916908373ffffffffffffffffffffffffffffffffffffffff160217905550808273ffffffffffffffffffffffffffffffffffffffff168473ffffffffffffffffffffffffffffffffffffffff167fddf252ad1be2c89b69c2b068fc378daa952ba7f163c4a11628f55a4df523b3ef60405160405180910390a4611c358383836124cf565b505050565b60008083805190602001209050600081610135600086815260200190815260200160002054149050809250505092915050565b60008282604051602001611c82929190613825565b60405160208183030381529060405280519060200120905092915050565b611ca8611853565b73ffffffffffffffffffffffffffffffffffffffff16611cc661100b565b73ffffffffffffffffffffffffffffffffffffffff1614611d1c576040517f08c379a0000000000000000000000000000000000000000000000000000000008152600401611d1390613b28565b60405180910390fd5b565b6000611d2982610b58565b9050611d37816000846123bb565b611d42600083611885565b6001606860008373ffffffffffffffffffffffffffffffffffffffff1673ffffffffffffffffffffffffffffffffffffffff1681526020019081526020016000206000828254611d929190613d8f565b925050819055506067600083815260200190815260200160002060006101000a81549073ffffffffffffffffffffffffffffffffffffffff021916905581600073ffffffffffffffffffffffffffffffffffffffff168273ffffffffffffffffffffffffffffffffffffffff167fddf252ad1be2c89b69c2b068fc378daa952ba7f163c4a11628f55a4df523b3ef60405160405180910390a4611e37816000846124cf565b5050565b600060fc60009054906101000a900473ffffffffffffffffffffffffffffffffffffffff1690508160fc60006101000a81548173ffffffffffffffffffffffffffffffffffffffff021916908373ffffffffffffffffffffffffffffffffffffffff1602179055508173ffffffffffffffffffffffffffffffffffffffff168173ffffffffffffffffffffffffffffffffffffffff167f8be0079c531659141344cd1fd0a4f28419497f9722a3daafe3b4186f6b6457e060405160405180910390a35050565b60008282604051602001611f1692919061387d565b60405160208183030381529060405280519060200120905092915050565b600081600001549050919050565b611f5c8282604051806020016040528060008152506124d4565b5050565b6001816000016000828254019250508190555050565b8173ffffffffffffffffffffffffffffffffffffffff168373ffffffffffffffffffffffffffffffffffffffff161415611fe5576040517f08c379a0000000000000000000000000000000000000000000000000000000008152600401611fdc90613a48565b60405180910390fd5b80606a60008573ffffffffffffffffffffffffffffffffffffffff1673ffffffffffffffffffffffffffffffffffffffff16815260200190815260200160002060008473ffffffffffffffffffffffffffffffffffffffff1673ffffffffffffffffffffffffffffffffffffffff16815260200190815260200160002060006101000a81548160ff0219169083151502179055508173ffffffffffffffffffffffffffffffffffffffff168373ffffffffffffffffffffffffffffffffffffffff167f17307eab39ab6107e8899845ad3d59bd9653f200f220920489ca2b5937696c31836040516120d69190613910565b60405180910390a3505050565b6120ee8484846119d3565b6120fa8484848461252f565b612139576040517f08c379a0000000000000000000000000000000000000000000000000000000008152600401612130906139a8565b60405180910390fd5b50505050565b6000808273ffffffffffffffffffffffffffffffffffffffff163b119050919050565b600060019054906101000a900460ff166121b1576040517f08c379a00000000000000000000000000000000000000000000000000000000081526004016121a890613bc8565b60405180910390fd5b6121bb82826126c6565b5050565b600060019054906101000a900460ff1661220e576040517f08c379a000000000000000000000000000000000000000000000000000000000815260040161220590613bc8565b60405180910390fd5b612216612747565b565b600060019054906101000a900460ff16612267576040517f08c379a000000000000000000000000000000000000000000000000000000000815260040161225e90613bc8565b60405180910390fd5b61226f6127a8565b8060c960006101000a81548173ffffffffffffffffffffffffffffffffffffffff021916908373ffffffffffffffffffffffffffffffffffffffff16021790555050565b60007f01ffc9a7000000000000000000000000000000000000000000000000000000007bffffffffffffffffffffffffffffffffffffffffffffffffffffffff1916827bffffffffffffffffffffffffffffffffffffffffffffffffffffffff1916149050919050565b60008073ffffffffffffffffffffffffffffffffffffffff166067600084815260200190815260200160002060009054906101000a900473ffffffffffffffffffffffffffffffffffffffff1673ffffffffffffffffffffffffffffffffffffffff1614159050919050565b600061239433610afe565b156123a857601436033560601c90506123b7565b6123b06127f9565b90506123b8565b5b90565b6123c6838383612801565b600073ffffffffffffffffffffffffffffffffffffffff168373ffffffffffffffffffffffffffffffffffffffff1614156124095761240481612806565b612448565b8173ffffffffffffffffffffffffffffffffffffffff168373ffffffffffffffffffffffffffffffffffffffff161461244757612446838261284f565b5b5b600073ffffffffffffffffffffffffffffffffffffffff168273ffffffffffffffffffffffffffffffffffffffff16141561248b57612486816129bc565b6124ca565b8273ffffffffffffffffffffffffffffffffffffffff168273ffffffffffffffffffffffffffffffffffffffff16146124c9576124c88282612aff565b5b5b505050565b505050565b6124de8383612b7e565b6124eb600084848461252f565b61252a576040517f08c379a0000000000000000000000000000000000000000000000000000000008152600401612521906139a8565b60405180910390fd5b505050565b60006125508473ffffffffffffffffffffffffffffffffffffffff1661213f565b156126b9578373ffffffffffffffffffffffffffffffffffffffff1663150b7a02612579611853565b8786866040518563ffffffff1660e01b815260040161259b94939291906138c4565b602060405180830381600087803b1580156125b557600080fd5b505af19250505080156125e657506040513d601f19601f820116820180604052508101906125e39190613242565b60015b612669573d8060008114612616576040519150601f19603f3d011682016040523d82523d6000602084013e61261b565b606091505b50600081511415612661576040517f08c379a0000000000000000000000000000000000000000000000000000000008152600401612658906139a8565b60405180910390fd5b805181602001fd5b63150b7a0260e01b7bffffffffffffffffffffffffffffffffffffffffffffffffffffffff1916817bffffffffffffffffffffffffffffffffffffffffffffffffffffffff1916149150506126be565b600190505b949350505050565b600060019054906101000a900460ff16612715576040517f08c379a000000000000000000000000000000000000000000000000000000000815260040161270c90613bc8565b60405180910390fd5b816065908051906020019061272b929190612d58565b508060669080519060200190612742929190612d58565b505050565b600060019054906101000a900460ff16612796576040517f08c379a000000000000000000000000000000000000000000000000000000000815260040161278d90613bc8565b60405180910390fd5b6127a66127a1611853565b611e3b565b565b600060019054906101000a900460ff166127f7576040517f08c379a00000000000000000000000000000000000000000000000000000000081526004016127ee90613bc8565b60405180910390fd5b565b600033905090565b505050565b609980549050609a600083815260200190815260200160002081905550609981908060018154018082558091505060019003906000526020600020016000909190919091505550565b6000600161285c84610c0a565b6128669190613d8f565b905060006098600084815260200190815260200160002054905081811461294b576000609760008673ffffffffffffffffffffffffffffffffffffffff1673ffffffffffffffffffffffffffffffffffffffff168152602001908152602001600020600084815260200190815260200160002054905080609760008773ffffffffffffffffffffffffffffffffffffffff1673ffffffffffffffffffffffffffffffffffffffff168152602001908152602001600020600084815260200190815260200160002081905550816098600083815260200190815260200160002081905550505b6098600084815260200190815260200160002060009055609760008573ffffffffffffffffffffffffffffffffffffffff1673ffffffffffffffffffffffffffffffffffffffff16815260200190815260200160002060008381526020019081526020016000206000905550505050565b600060016099805490506129d09190613d8f565b90506000609a6000848152602001908152602001600020549050600060998381548110612a26577f4e487b7100000000000000000000000000000000000000000000000000000000600052603260045260246000fd5b906000526020600020015490508060998381548110612a6e577f4e487b7100000000000000000000000000000000000000000000000000000000600052603260045260246000fd5b906000526020600020018190555081609a600083815260200190815260200160002081905550609a6000858152602001908152602001600020600090556099805480612ae3577f4e487b7100000000000000000000000000000000000000000000000000000000600052603160045260246000fd5b6001900381819060005260206000200160009055905550505050565b6000612b0a83610c0a565b905081609760008573ffffffffffffffffffffffffffffffffffffffff1673ffffffffffffffffffffffffffffffffffffffff168152602001908152602001600020600083815260200190815260200160002081905550806098600084815260200190815260200160002081905550505050565b600073ffffffffffffffffffffffffffffffffffffffff168273ffffffffffffffffffffffffffffffffffffffff161415612bee576040517f08c379a0000000000000000000000000000000000000000000000000000000008152600401612be590613ae8565b60405180910390fd5b612bf78161231d565b15612c37576040517f08c379a0000000000000000000000000000000000000000000000000000000008152600401612c2e90613a08565b60405180910390fd5b612c43600083836123bb565b6001606860008473ffffffffffffffffffffffffffffffffffffffff1673ffffffffffffffffffffffffffffffffffffffff1681526020019081526020016000206000828254612c939190613d39565b92505081905550816067600083815260200190815260200160002060006101000a81548173ffffffffffffffffffffffffffffffffffffffff021916908373ffffffffffffffffffffffffffffffffffffffff160217905550808273ffffffffffffffffffffffffffffffffffffffff16600073ffffffffffffffffffffffffffffffffffffffff167fddf252ad1be2c89b69c2b068fc378daa952ba7f163c4a11628f55a4df523b3ef60405160405180910390a4612d54600083836124cf565b5050565b828054612d6490613eb4565b90600052602060002090601f016020900481019282612d865760008555612dcd565b82601f10612d9f57805160ff1916838001178555612dcd565b82800160010185558215612dcd579182015b82811115612dcc578251825591602001919060010190612db1565b5b509050612dda9190612dde565b5090565b5b80821115612df7576000816000905550600101612ddf565b5090565b6000612e0e612e0984613c68565b613c43565b90508083825260208201905082856020860282011115612e2d57600080fd5b60005b85811015612e7757813567ffffffffffffffff811115612e4f57600080fd5b808601612e5c8982612ff9565b85526020850194506020840193505050600181019050612e30565b5050509392505050565b6000612e94612e8f84613c94565b613c43565b905082815260208101848484011115612eac57600080fd5b612eb7848285613e72565b509392505050565b6000612ed2612ecd84613cc5565b613c43565b905082815260208101848484011115612eea57600080fd5b612ef5848285613e72565b509392505050565b600081359050612f0c8161458a565b92915050565b600082601f830112612f2357600080fd5b8135612f33848260208601612dfb565b91505092915050565b600081359050612f4b816145a1565b92915050565b600081359050612f60816145b8565b92915050565b600081359050612f75816145cf565b92915050565b600081519050612f8a816145cf565b92915050565b600082601f830112612fa157600080fd5b8135612fb1848260208601612e81565b91505092915050565b600081359050612fc9816145e6565b92915050565b600082601f830112612fe057600080fd5b8135612ff0848260208601612ebf565b91505092915050565b60006040828403121561300b57600080fd5b6130156040613c43565b9050600082013567ffffffffffffffff81111561303157600080fd5b61303d84828501612fcf565b60008301525060206130518482850161305d565b60208301525092915050565b60008135905061306c816145fd565b92915050565b60006020828403121561308457600080fd5b600061309284828501612efd565b91505092915050565b600080604083850312156130ae57600080fd5b60006130bc85828601612efd565b92505060206130cd85828601612efd565b9150509250929050565b6000806000606084860312156130ec57600080fd5b60006130fa86828701612efd565b935050602061310b86828701612efd565b925050604061311c8682870161305d565b9150509250925092565b6000806000806080858703121561313c57600080fd5b600061314a87828801612efd565b945050602061315b87828801612efd565b935050604061316c8782880161305d565b925050606085013567ffffffffffffffff81111561318957600080fd5b61319587828801612f90565b91505092959194509250565b600080604083850312156131b457600080fd5b60006131c285828601612efd565b92505060206131d385828601612f3c565b9150509250929050565b600080604083850312156131f057600080fd5b60006131fe85828601612efd565b925050602061320f8582860161305d565b9150509250929050565b60006020828403121561322b57600080fd5b600061323984828501612f66565b91505092915050565b60006020828403121561325457600080fd5b600061326284828501612f7b565b91505092915050565b60006020828403121561327d57600080fd5b600061328b84828501612fba565b91505092915050565b6000602082840312156132a657600080fd5b60006132b48482850161305d565b91505092915050565b600080604083850312156132d057600080fd5b60006132de8582860161305d565b925050602083013567ffffffffffffffff8111156132fb57600080fd5b61330785828601612fcf565b9150509250929050565b6000806000806080858703121561332757600080fd5b60006133358782880161305d565b94505060206133468782880161305d565b935050604061335787828801612f51565b925050606085013567ffffffffffffffff81111561337457600080fd5b61338087828801612f12565b91505092959194509250565b6000806000606084860312156133a157600080fd5b60006133af8682870161305d565b93505060206133c08682870161305d565b925050604084013567ffffffffffffffff8111156133dd57600080fd5b6133e986828701612fcf565b9150509250925092565b6133fc81613dc3565b82525050565b61341361340e82613dc3565b613f60565b82525050565b61342281613dd5565b82525050565b600061343382613cf6565b61343d8185613d0c565b935061344d818560208601613e81565b6134568161401b565b840191505092915050565b61346a81613e60565b82525050565b600061347b82613d01565b6134858185613d1d565b9350613495818560208601613e81565b61349e8161401b565b840191505092915050565b60006134b482613d01565b6134be8185613d2e565b93506134ce818560208601613e81565b80840191505092915050565b60006134e7601783613d1d565b91506134f282614039565b602082019050919050565b600061350a602b83613d1d565b915061351582614062565b604082019050919050565b600061352d603283613d1d565b9150613538826140b1565b604082019050919050565b6000613550602683613d1d565b915061355b82614100565b604082019050919050565b6000613573602583613d1d565b915061357e8261414f565b604082019050919050565b6000613596601c83613d1d565b91506135a18261419e565b602082019050919050565b60006135b9602483613d1d565b91506135c4826141c7565b604082019050919050565b60006135dc601983613d1d565b91506135e782614216565b602082019050919050565b60006135ff602983613d1d565b915061360a8261423f565b604082019050919050565b6000613622601e83613d1d565b915061362d8261428e565b602082019050919050565b6000613645602e83613d1d565b9150613650826142b7565b604082019050919050565b6000613668603e83613d1d565b915061367382614306565b604082019050919050565b600061368b602083613d1d565b915061369682614355565b602082019050919050565b60006136ae600c83613d1d565b91506136b98261437e565b602082019050919050565b60006136d1602083613d1d565b91506136dc826143a7565b602082019050919050565b60006136f4601583613d1d565b91506136ff826143d0565b602082019050919050565b6000613717601883613d1d565b9150613722826143f9565b602082019050919050565b600061373a602183613d1d565b915061374582614422565b604082019050919050565b600061375d600083613d2e565b915061376882614471565b600082019050919050565b6000613780602c83613d1d565b915061378b82614474565b604082019050919050565b60006137a3602b83613d1d565b91506137ae826144c3565b604082019050919050565b60006137c6602e83613d1d565b91506137d182614512565b604082019050919050565b60006137e9600e83613d1d565b91506137f482614561565b602082019050919050565b61380881613e49565b82525050565b61381f61381a82613e49565b613f84565b82525050565b60006138318285613402565b601482019150613841828461380e565b6020820191508190509392505050565b600061385d82846134a9565b915081905092915050565b600061387382613750565b9150819050919050565b6000613889828561380e565b602082019150613899828461380e565b6020820191508190509392505050565b60006020820190506138be60008301846133f3565b92915050565b60006080820190506138d960008301876133f3565b6138e660208301866133f3565b6138f360408301856137ff565b81810360608301526139058184613428565b905095945050505050565b60006020820190506139256000830184613419565b92915050565b60006020820190506139406000830184613461565b92915050565b600060208201905081810360008301526139608184613470565b905092915050565b60006020820190508181036000830152613981816134da565b9050919050565b600060208201905081810360008301526139a1816134fd565b9050919050565b600060208201905081810360008301526139c181613520565b9050919050565b600060208201905081810360008301526139e181613543565b9050919050565b60006020820190508181036000830152613a0181613566565b9050919050565b60006020820190508181036000830152613a2181613589565b9050919050565b60006020820190508181036000830152613a41816135ac565b9050919050565b60006020820190508181036000830152613a61816135cf565b9050919050565b60006020820190508181036000830152613a81816135f2565b9050919050565b60006020820190508181036000830152613aa181613615565b9050919050565b60006020820190508181036000830152613ac181613638565b9050919050565b60006020820190508181036000830152613ae18161365b565b9050919050565b60006020820190508181036000830152613b018161367e565b9050919050565b60006020820190508181036000830152613b21816136a1565b9050919050565b60006020820190508181036000830152613b41816136c4565b9050919050565b60006020820190508181036000830152613b61816136e7565b9050919050565b60006020820190508181036000830152613b818161370a565b9050919050565b60006020820190508181036000830152613ba18161372d565b9050919050565b60006020820190508181036000830152613bc181613773565b9050919050565b60006020820190508181036000830152613be181613796565b9050919050565b60006020820190508181036000830152613c01816137b9565b9050919050565b60006020820190508181036000830152613c21816137dc565b9050919050565b6000602082019050613c3d60008301846137ff565b92915050565b6000613c4d613c5e565b9050613c598282613ee6565b919050565b6000604051905090565b600067ffffffffffffffff821115613c8357613c82613fec565b5b602082029050602081019050919050565b600067ffffffffffffffff821115613caf57613cae613fec565b5b613cb88261401b565b9050602081019050919050565b600067ffffffffffffffff821115613ce057613cdf613fec565b5b613ce98261401b565b9050602081019050919050565b600081519050919050565b600081519050919050565b600082825260208201905092915050565b600082825260208201905092915050565b600081905092915050565b6000613d4482613e49565b9150613d4f83613e49565b9250827fffffffffffffffffffffffffffffffffffffffffffffffffffffffffffffffff03821115613d8457613d83613f8e565b5b828201905092915050565b6000613d9a82613e49565b9150613da583613e49565b925082821015613db857613db7613f8e565b5b828203905092915050565b6000613dce82613e29565b9050919050565b60008115159050919050565b6000819050919050565b60007fffffffff0000000000000000000000000000000000000000000000000000000082169050919050565b6000613e2282613dc3565b9050919050565b600073ffffffffffffffffffffffffffffffffffffffff82169050919050565b6000819050919050565b600060ff82169050919050565b6000613e6b82613e53565b9050919050565b82818337600083830152505050565b60005b83811015613e9f578082015181840152602081019050613e84565b83811115613eae576000848401525b50505050565b60006002820490506001821680613ecc57607f821691505b60208210811415613ee057613edf613fbd565b5b50919050565b613eef8261401b565b810181811067ffffffffffffffff82111715613f0e57613f0d613fec565b5b80604052505050565b6000613f2282613e49565b91507fffffffffffffffffffffffffffffffffffffffffffffffffffffffffffffffff821415613f5557613f54613f8e565b5b600182019050919050565b6000613f6b82613f72565b9050919050565b6000613f7d8261402c565b9050919050565b6000819050919050565b7f4e487b7100000000000000000000000000000000000000000000000000000000600052601160045260246000fd5b7f4e487b7100000000000000000000000000000000000000000000000000000000600052602260045260246000fd5b7f4e487b7100000000000000000000000000000000000000000000000000000000600052604160045260246000fd5b6000601f19601f8301169050919050565b60008160601b9050919050565b7f72656d61696e696e6720636f756e74206973207a65726f000000000000000000600082015250565b7f455243373231456e756d657261626c653a206f776e657220696e646578206f7560008201527f74206f6620626f756e6473000000000000000000000000000000000000000000602082015250565b7f4552433732313a207472616e7366657220746f206e6f6e20455243373231526560008201527f63656976657220696d706c656d656e7465720000000000000000000000000000602082015250565b7f4f776e61626c653a206e6577206f776e657220697320746865207a65726f206160008201527f6464726573730000000000000000000000000000000000000000000000000000602082015250565b7f4552433732313a207472616e736665722066726f6d20696e636f72726563742060008201527f6f776e6572000000000000000000000000000000000000000000000000000000602082015250565b7f4552433732313a20746f6b656e20616c7265616479206d696e74656400000000600082015250565b7f4552433732313a207472616e7366657220746f20746865207a65726f2061646460008201527f7265737300000000000000000000000000000000000000000000000000000000602082015250565b7f4552433732313a20617070726f766520746f2063616c6c657200000000000000600082015250565b7f4552433732313a2061646472657373207a65726f206973206e6f74206120766160008201527f6c6964206f776e65720000000000000000000000000000000000000000000000602082015250565b7f6576656e74206d616e61676572206164647265737320697320626c616e6b0000600082015250565b7f496e697469616c697a61626c653a20636f6e747261637420697320616c72656160008201527f647920696e697469616c697a6564000000000000000000000000000000000000602082015250565b7f4552433732313a20617070726f76652063616c6c6572206973206e6f7420746f60008201527f6b656e206f776e6572206e6f7220617070726f76656420666f7220616c6c0000602082015250565b7f4552433732313a206d696e7420746f20746865207a65726f2061646472657373600082015250565b7f756e617574686f72697a65640000000000000000000000000000000000000000600082015250565b7f4f776e61626c653a2063616c6c6572206973206e6f7420746865206f776e6572600082015250565b7f696e76616c696420736563726574207068726173650000000000000000000000600082015250565b7f4552433732313a20696e76616c696420746f6b656e2049440000000000000000600082015250565b7f4552433732313a20617070726f76616c20746f2063757272656e74206f776e6560008201527f7200000000000000000000000000000000000000000000000000000000000000602082015250565b50565b7f455243373231456e756d657261626c653a20676c6f62616c20696e646578206f60008201527f7574206f6620626f756e64730000000000000000000000000000000000000000602082015250565b7f496e697469616c697a61626c653a20636f6e7472616374206973206e6f74206960008201527f6e697469616c697a696e67000000000000000000000000000000000000000000602082015250565b7f4552433732313a2063616c6c6572206973206e6f7420746f6b656e206f776e6560008201527f72206e6f7220617070726f766564000000000000000000000000000000000000602082015250565b7f616c7265616479206d696e746564000000000000000000000000000000000000600082015250565b61459381613dc3565b811461459e57600080fd5b50565b6145aa81613dd5565b81146145b557600080fd5b50565b6145c181613de1565b81146145cc57600080fd5b50565b6145d881613deb565b81146145e357600080fd5b50565b6145ef81613e17565b81146145fa57600080fd5b50565b61460681613e49565b811461461157600080fd5b5056fea264697066735822122066035881b997ec5d9d864250c08a15efb11d68494d81596960657d2ee17b6da464736f6c63430008040033",
  "linkReferences": {},
  "deployedLinkReferences": {}
}